:020000040800F2
:10000000303200204986000851860008F50A0008B1
:100010005586000857860008598600080000000031
:100020000000000000000000000000005B860008E7
:100030005D860008000000005F86000861860008F9
:1000400063860008638600086386000863860008EC
:1000500063860008638600086386000863860008DC
:1000600063860008638600086386000863860008CC
:1000700063860008638600086386000863860008BC
:1000800063860008638600086386000863860008AC
:10009000E755000863860008638600086386000849
:1000A000638600086386000863860008638600088C
:1000B000638600086386000863860008638600087C
:1000C000638600086386000863860008638600086C
:1000D000638600088B490008638600086386000871
:1000E000638600086386000863860008638600084C
:1000F000638600086386000863860008638600083C
:10010000638600086386000863860008638600082B
:10011000638600086386000863860008638600081B
:10012000638600086386000863860008638600080B
:10013000DFF80CD008F0ACFA00480047A103000833
:100140003032002010B504460448046001F0C9FEB6
:1001500010BD012002490870704700000000002017
:100160004A08002010B500F0F5FCFE490968084473
:10017000FC49086000F0F6FCFB4909680844FA49AC
:10018000086010BD10B500F015FE10F0010F05D08D
:10019000F6480068401CF549086009E00020F34972
:1001A0000860F348007800F0FE0040B2F0490870A3
:1001B00000F000FE00F00200022805D1ED480068C2
:1001C000401CEC49086009E00020EA490860E84862
:1001D000007800F0FD0040B2E5490870E34800688F
:1001E000B0F5206F12DBE248007810F0010F0DD15E
:1001F000DF4890F9000040F00100DD49087032222C
:100200004FF47A714FF4E15000F0C7FBD948006811
:10021000FF2818DDD648007800F00200022812D02E
:10022000D34890F9000040F00200D14908705F22E5
:1002300042F210714FF4E15000F0AFFBCEA2022168
:10024000002005F017FD10BD38B5002400F03FFD7B
:100250000446601C11D010200090C948B0F900205D
:100260000B230221282005F0C3FC10200323224683
:1002700000210090682005F0BBFC38BD10B50024BB
:1002800000F036FABF48006838B1BE48BE49086081
:10029000084600680168BD48884705F0E9F9012073
:1002A00005F0F1F9322000F0C9FA002400BF05F092
:1002B00003FA28B92046641C40F6FF718842F6D341
:1002C00040F6FE70844203D30020B149087002E07A
:1002D0000120AF49087010BD10B505F029FCADA292
:1002E0000021084605F0C6FCAEA20221002005F060
:1002F000C1FCAEA20421002005F0BCFCADA2062189
:10030000002005F0B7FC10BD10B5AC4805F0DEFECE
:10031000AB4805F0DBFEAB4805F0D8FEAA4805F077
:10032000D5FEAA4805F0D2FEA94805F0CFFEA9489F
:10033000806940F00D00A74988610121A64805F0B9
:10034000F4FF00F08BFA00F0FAFA00F0ACFA05F0D6
:100350001CFD00F009FD00F055FC00F0A2F900F0D2
:10036000C7F900F08FF910BD00BF05F055FEFFF78B
:10037000CBFF00F0C3F9FFF7AFFFFFF77FFF32229B
:100380004FF4FA614FF4E15000F007FB03F028FA54
:1003900005E0FFF759FFFFF7F5FEFFF7E3FEF8E78B
:1003A000FFF7E2FF08B5002405F036FEFFF7ACFFCB
:1003B00000F0A4F989A20221002005F05BFC4FF4B3
:1003C0007A7000F03BFA00F093F900F066F96D489E
:1003D000006838B16B486C490860084600680168DD
:1003E0006A48884732224FF47A714FF4E15000F0A6
:1003F000D4FA7EA20221002005F03CFC05F038F979
:10040000012005F040F9322000F018FA00207C4964
:100410000860002407E010200346224604210090D3
:10042000002005F0E5FB05F047F928B92046641CDB
:1004300040F6FF718842EED340F6FE70844207D347
:100440000020534908706FA2022105F013FC07E059
:1004500001204F49087070A20221002005F00AFC1B
:100460004FF47A7000F0EAF900BF00F0F7F900F0FD
:1004700014F90020624908606C486D49086049A27F
:100480000221002005F0F6FB10200B2300220221A0
:100490000090282005F0ACFB44A20421002005F0C8
:1004A000E9FB44A20621002005F0E4FB32224FF4D0
:1004B000FA614FF4E15000F070FA03F091F933E083
:1004C000002500F004FC0546681C11D010200090A7
:1004D0002B48B0F900200B230221282005F088FBCF
:1004E000102003232A4600210090682005F080FB9D
:1004F00000F030FB1B49096808441A4908601020C5
:100500000B230090084604210268282005F070FBA8
:1005100000F028FB14490968084413490860FFF7F4
:1005200093FEFFF72FFE00BFCAE710B505F07AFF74
:100530004FF4803005F096FF05F0D3FF0446012C00
:100540000FD1102006F058FB022006F041FB0020DE
:1005500006F00DF8002006F01CF8A00206F010F8D6
:1005600068E07DE00C08002008080020100800204A
:10057000180800201408002046554C4C3A00000092
:1005800038080020AC99000804080020E48D000819
:1005900020080020434D5349532D4441503A5357AE
:1005A00044000000564241543A00000048494420AB
:1005B0003A000000554152543A0000000008014042
:1005C000000C0140001001400014014000180140DF
:1005D000001C0140001002400002300053544D3313
:1005E000325F434443204D6F64656C005553422095
:1005F000436F6E6E65637474696E672E2E2E0000F5
:100600002408002055534220556E636F6E6E65635B
:10061000742020200000000055534220436F6E6E6E
:10062000656374656420202000000000400D030015
:10063000280800204FF4E011200405F07BFF012082
:1006400005F084FF00BF392005F02FFF0028FAD005
:10065000022005F07EFF00BF05F084FF0828FBD1D3
:1006600010BD10B500F00AF800F017F8002005F0F2
:100670000AF805F00EF800F03DFA10BD0020FA4926
:10068000086070470120F84908607047F748006823
:1006900080F01000F549086070470020F2490860BA
:1006A00070470120F04908607047F048006880F00A
:1006B0001000EE490860704700B5024612F0010FC5
:1006C00002D0FFF7DBFF01E0FFF7DCFF00BD00B564
:1006D000024612F0010F02D0FFF7DFFF01E0FFF743
:1006E000E0FF00BD4FF40040E049091D086070477D
:1006F0004FF40040DD490831086070474FF48060D6
:10070000DB49086070474FF48060D949091D0860D3
:100710007047D6480068C0F3C00070470820D3492E
:10072000091D086070470820D049083108607047EB
:10073000CE48001F0068C0F3800070470420CB49FA
:10074000091D08607047C948001F006810F0040FB9
:1007500001D0012070470020FCE7C4480C38006835
:1007600020F4706040F44070C0490C390860704754
:10077000BE480C38006820F4706040F40060BB494B
:100780000C3908607047B9480C38006820F4704094
:1007900040F44050B5490C3908607047B3480C38F4
:1007A000006820F4704040F40040B0490C39086003
:1007B0007047AF48001F00680020704710F0010F1D
:1007C00003D00021AA4A116003E00021A84A121DAB
:1007D00011607047A6480838006800207047002064
:1007E00070477047A2480838006810F0010F01D028
:1007F000012070470020FCE710F0010F03D000211A
:100800009B4A116003E00021994A121D1160704754
:1008100097481038006820F00F00C01D9449103927
:100820000860704792481038006820F00F00001DE3
:100830008F49103908607047002070478D4909685A
:100840004FF47A72B1FBF2F1891C0622B1FBF2F18E
:10085000484300BF411E0800FCD170471CB58648C4
:10086000006801908448001D0068009083488069FA
:1008700040F00400814988610121052005F03CFF1A
:1008800010207A490831086001A978480C3805F031
:100890007DFC1020754908310860694673480C38A2
:1008A00005F074FC1CBD1CB573480830006800904E
:1008B000FFF71EFF7148806940F004006F498861AE
:1008C00069466A480C3805F061FCFFF711FF012109
:1008D000052005F011FF0121694805F026FD4FF4C0
:1008E0000040ADF8040003208DF8060010208DF8BC
:1008F000070001A95D480C3805F048FCFFF7F8FE39
:100900001CBD1CB55C480C30006801905A48103082
:10091000006800900C205549091D086001205449C9
:10092000091D0860FFF77EFF01A95148103805F046
:100930002DFC69464D480C3805F028FC1CBD08B557
:100940004D481430006800900C204849091D08608B
:1009500001204749091D0860694644480C3805F0E4
:1009600015FCFFF7EBFE002046490860FFF75AFF31
:1009700008BD1CB540481830006801903E481C3046
:100980000068009001A939480C3805F0FFFB694662
:100990003748103805F0FAFB1CBD70B588B0064624
:1009A0000C4615460121052005F0A6FE012108464A
:1009B00005F0AFFE0120ADF81C0003208DF81E00ED
:1009C00018208DF81F0007A928480C3805F0DEFB19
:1009D000701E80B2ADF81000601E80B2ADF8140039
:1009E0000020ADF81600ADF8120004A94FF08040C9
:1009F00006F0A0FC0121880707F0F8F8012188071C
:100A000006F0F4FF0121880707F0B6FA01218807F4
:100A100006F0ECFF6020ADF800004FF08040808DC4
:100A20006843642190FBF1F080B2ADF8060000202D
:100A3000ADF808000120ADF802006946800706F015
:100A4000B6FC0121880706F0DDFF0821C80607F083
:100A5000FDF80121880707F0C9F80121880706F091
:100A6000C5FF08B070BD0000900121420C08014094
:100A7000100C0140580A0020EC8D000800100240C4
:100A8000000230008C01214270B5002403F057FFB2
:100A9000054615F0040F01D044F0400415F0020F94
:100AA00001D044F0400415F0010F01D044F01004CF
:100AB00003F043FF054615F0080F01D044F0080489
:100AC00015F0040F01D044F0020415F0020F01D01C
:100AD00044F0010403F056FF08B144F004041A483E
:100AE0000068604005D0A0B204F00DF908B11648C6
:100AF000046070BDFFF7B2FE002312E0FFF7CDFDEA
:100B0000FA20FFF79BFEFFF7CCFDFFF7B7FDFA20B9
:100B1000FFF794FEFFF7B6FD4FF47A70FFF78EFEF5
:100B20005B1C052BEADB00BFBFF34F8F0748006853
:100B300000F4E06006490843001D04490860BFF363
:100B40004F8F00BF00BFFEE72C0800200CED00E037
:100B50000000FA0510B503F0A9FC08B1012010BD92
:100B60000020FCE710B50024FFF78EFF2348006843
:100B7000401C03D104F0B4F8204908601F48006805
:100B8000401C0BD001241D49087803F0C1FE1B490D
:100B90000968884202D1A01E1849086018480068F8
:100BA000401C0BD01649087804F06DF81449096808
:100BB000884203D14FF0FF301149086010480068A7
:100BC000401C03D103F097FE0D490860204610BD7C
:100BD00010B504460A2C02D10D20FFF7F9FF00BF23
:100BE000204604F050F8A042FAD110BD70B504467A
:100BF0000D46E0B2FFF7ECFF204670BD3008002044
:100C00003408002000B591B00121082005F074FDE2
:100C10000121480205F070FD0121084605F05FFD45
:100C20004FF4004005F0CFFC0220ADF8400000205A
:100C30008DF8430010A9464805F0A8FA00200B9053
:100C400001208DF830008DF831004FF460200D90B8
:100C500000200E9001208DF83C000BA93D4807F0C4
:100C6000CAF90723012209213A4807F05CFA012159
:100C7000384807F0F7F90121364807F0E8F9364817
:100C800007F0BAFB33484C30009034480190002004
:100C900002900120039000200490802005904000E5
:100CA0000690800007902020089000020990002004
:100CB0000A906946284807F041FC0121254807F0C1
:100CC00006FA0121244807F064FC11B000BD244855
:100CD0000088401C00B2224908802249B1F9001066
:100CE0001E4AB2F90020881800EBD071491009B2F1
:100CF0001C4A11801A480088B0F57A7F25D100205F
:100D00000021174A11801749B1F9001040F69802E6
:100D1000914200DC18E01349B1F90010A1F69801E6
:100D200064225143C82291FBF2F1642901DD642160
:100D300009E00C49B1F90010A1F698016422514371
:100D4000C82291FBF2F108B270474FF0FF30FBE789
:100D5000000C01400024014008000240400800202F
:100D6000480800203808002008B50121052005F0BA
:100D7000C3FC0121184805F0D8FA0220ADF80000A4
:100D800048208DF803000121042005F0B5FC6946D8
:100D9000124805F0FBF90820ADF8000048208DF856
:100DA00003000121082005F0A7FC69460C4805F066
:100DB000EDF908BD10B500240221084805F077FAC6
:100DC00000B901240821064805F071FA08B944F079
:100DD0000204204610BD000000023000000801405F
:100DE000000C014002460020052A1AD008DC012A26
:100DF0000FD0022A0ED0032A0DD0042A21D10BE0F5
:100E0000062A0FD0F02A0ED0FE2A16D0FF2A18D1BB
:100E10000DE016E015E014E0F94B1B680B600420B0
:100E20000FE00EE00DE003230B70012009E04023EA
:100E30000B7000234B70022003E040230B70012055
:100E400000BF00BF704708B5EE4909684FF47A72D9
:100E5000B1FBF2F1891C0322B1FBF2F148430146D8
:100E6000009100BF00BF009A521E0092FBD100BF4C
:100E700008BD18B502460B461078547840EA0421A4
:100E8000E0480068E04CB0FBF4F0801C0324B0FBA9
:100E9000F4F041430846009000BF00BF009C641E70
:100EA0000094FBD100BF00201870012018BD70B560
:100EB00004460D46207810B1012810D107E0627871
:100EC00002F00100D14A1268116888470BE062788D
:100ED00002F00100CD4A12685168884703E0FF2004
:100EE0002870012070BD00BF002028700120F9E7A4
:100EF00070B506460D46307808B9012400E0347814
:100F0000012C02D0022C0CD105E00120C049087050
:100F1000FFF715FD09E00220BD490870FFF7F1FC5D
:100F200003E000202870012070BD00BF2C7001205C
:100F3000FAE710B504460020B5490870FFF719FD1F
:100F400000202070012010BD10B50446FFF774FC8E
:100F5000607000202070022010BD2DE9F047064689
:100F6000884600240025002734787578B078F17819
:100F700040EA0120317940EA0140717940EA016795
:100F800015F0010F07D014F0010F02D0FFF7C6FBD8
:100F900001E0FFF7C8FB15F0020F08D014F0020FB4
:100FA00002D0FFF7CBFB02E000209A49086015F061
:100FB000040F02D0A010FFF701FC15F0200F02D0A3
:100FC0006011FFF70EFC15F0800F02D0E011FFF763
:100FD00013FC002F52D09048874200D9074600BF2B
:100FE00000204FF0E02188618648006878438649F8
:100FF000B0FBF1F04FF0E02148610520086100BF2F
:1010000000BF15F0010F04D0FFF783FB604000D054
:1010100024E015F0020F05D0FFF78AFB90EA640088
:1010200000D01BE015F0040F05D0FFF7C2FB90EADB
:10103000A40000D012E015F0200F05D0FFF7CFFB81
:1010400090EA641000D009E015F0800F05D0FFF79A
:10105000C9FB90EAE41000D000E007E000BF4FF0C9
:10106000E0200069C0F300400028CAD000BF00BFE4
:1010700000204FF0E021086100BF00BFFFF749FBEF
:101080008146FFF755FB49EA4009FFF792FB49EA21
:101090008009FFF79FFB49EAC009FFF7A0FB49EA77
:1010A0004019FFF79FFB49EAC010C4B288F800401E
:1010B0000120BDE8F08730B502460C46107855781F
:1010C00040EA0520957840EA0540D57840EA056376
:1010D0001BB9FF202070012030BD4A480068B3EBE7
:1010E000900F04D301204A4D6870686014E000201E
:1010F000474D6870581E434D2D6800EB5500B0FBFE
:10110000F3F1022905D9891E881C0325B0FBF5F1EE
:1011100000E001213E484160002020700120DBE713
:1011200070B504460D4614F8016B0EB94FF4807685
:101130002146304600F0EEFE00202870012070BDF0
:1011400010B50246137803F00300401C304C2075A4
:10115000C3F380042E48447500200870012010BDA0
:1011600038B504460D462A480078012803D0FF20F0
:101170002870012038BD6078A17840EA0120E1782C
:1011800040EA0140217940EA016000906946002070
:1011900000F0F4FE002028700120EBE72DE9F04775
:1011A00004460D46002005F8010B4FF0010814F825
:1011B000019B12E014F8017B2A462146384601F0D3
:1011C0003FFA07F03F0606B94026F01DC608344432
:1011D00017F0800F01D03544B0445FEA0900A9F14F
:1011E0000109E7D14046BDE8F087F0B502460E465A
:1011F00012F8013B064883750025002117E0000026
:101200000C8E0008580A002040420F000000002009
:10121000800A002088012142C0C62D0012F8014B2F
:10122000FE484454083020F811502544491C994286
:10123000F4D3002107E0F948405C2D1AF748183034
:1012400020F81150491C9942F5D30020307001203C
:10125000F0BD70B506460C46F048183800780228F4
:1012600004D000BFFF202070012070BD3178EB4812
:101270001838C175C07DE9491839897D884200DB7D
:10128000F0E70E2002F08BFA02F015F80546002078
:1012900020706570280AA070280CE070280E20715C
:1012A0000520E2E770B504460D46DC4818380078A2
:1012B000022804D000BFFF202870012070BD2178D3
:1012C000D6481838C175C07DD4491839897D8842FF
:1012D00000DBF0E7082002F062FA6078A17840EACB
:1012E0000120E17840EA0140217940EA0166304678
:1012F00002F0C7F8002028700120DFE702461078CE
:10130000C64B183B18725078937840EA0323C348C1
:1013100018384381D078137940EA0323BF4818383E
:10132000838100200870012070472DE9F04F85B0BF
:1013300006460C46002003900025A146A41CB8498F
:10134000087082460290761C16F8010B04904FE15B
:1013500016F8018B18F0020F7ED0BAF1000F3DD0C5
:10136000AE481838478908F01100012811D100BF94
:101370006946404600F002FE0546022D1CD13800A9
:10138000A7F101018FB217D0A54800780028EFD04F
:1013900012E000BF69460E2000F0F0FD0546022D68
:1013A00008D13800A7F101018FB203D09C48007822
:1013B0000028EFD04FF0000A012D00D01FE1009867
:1013C00004F8010B0098000A04F8010B0098000CC7
:1013D00004F8010B0098000E04F8010B18F0100F30
:1013E0005FD03078717840EA0120B17840EA01405E
:1013F000F17840EA016B361D8848183880890190E1
:1014000018F0010F16D085481838478900BF002111
:10141000404600F0B3FD0546022D08D13800A7F183
:1014200001018FB203D07E4800780028EFD0012D53
:1014300000D0E4E000BF79481838478900BF69460A
:10144000404600F09BFD0546022D0AD13800A7F169
:1014500001018FB205D000E069E0714800780028F2
:10146000EDD0012D00D00FE06C48183800690099CC
:101470000840584508D00198411E89B2019118B121
:10148000674800780028D6D000BF64481838006943
:1014900000990840584501D045F01005012D43D072
:1014A000ADE05E481838478918F0010F19D0BAF13D
:1014B000000F39D100BF0021404600F05FFD054616
:1014C000022D08D13800A7F101018FB203D0544892
:1014D00000780028EFD0012D00D090E04FF0010AF5
:1014E00022E000BF6946404600F048FD0546022D57
:1014F00008D13800A7F101018FB203D04848007825
:101500000028EFD0012D00D079E0009804F8010BFD
:101510000098000A04F8010B0098000C04F8010B75
:101520000098000E04F8010B0020029058E0BAF178
:10153000000F27D039481838478900BF69460E2068
:1015400000F01CFD0546022D08D13800A7F101016D
:101550008FB203D0324800780028EFD0012D00D0A0
:101560004DE0009804F8010B0098000A04F8010B04
:101570000098000C04F8010B0098000E04F8010B11
:101580004FF0000A3078717840EA0120B17840EAE3
:101590000140F17840EA01600090361D18F0200FFC
:1015A00005D01E48183800990161012518E01B4834
:1015B0001838478900BF6946404600F0DFFC054601
:1015C000022D08D13800A7F101018FB203D01448D1
:1015D00000780028EFD0012D00D010E0012002900B
:1015E0000398401CC0B203900D48007800B106E09B
:1015F0000498411EC9B2049100287FF4A9AE00BF2F
:10160000012D43D1BAF1000F2BD004481838478977
:1016100000BF69460E2000F0B1FC03E0980A0020EC
:101620004A0800200546022D08D13800A7F1010123
:101630008FB203D0F94800780028EAD0012D00D0FD
:1016400025E0009804F8010B0098000A04F8010B4B
:101650000098000C04F8010B0098000E04F8010B30
:1016600014E0029890B1EE48478900BF00210E2097
:1016700000F084FC0546022D08D13800A7F10101D5
:101680008FB203D0E54800780028EFD000BF039860
:1016900089F8000089F80150A4EB090005B0BDE805
:1016A000F08F2DE9F04F87B006460C4600200590DC
:1016B0000025A346A41CD94908708146049016F859
:1016C000011BD748C175C07DD549897D884200DBA3
:1016D00099E116F8010B069046E116F8017B17F028
:1016E000010F01D00B2000E00A20824617F0020F04
:1016F00078D00498002846D0C948B0F80A80D1456F
:1017000014D117F0100F11D100BFF8B201A902F0E7
:1017100053F80546022D24D15FEA0800A8F101081C
:101720001FD0BE4800780028EFD01AE0B9F10A0FA8
:1017300004D04FF00A09484602F031F800BF01A971
:101740000E2002F039F80546022D08D15FEA0800A4
:10175000A8F1010803D0B14800780028EFD000209C
:101760000490012D00D005E1019804F8010B0198C7
:10177000000A04F8010B0198000C04F8010B019811
:10178000000E04F8010B17F0100F60D0307871785C
:1017900040EA0120B17840EA0140F17840EA016076
:1017A0000390361D9E4880890290D14503D0D146D2
:1017B000484601F0F4FF9A48B0F80A8000BFF8B23A
:1017C000002101F0F9FF0546022D08D15FEA08006B
:1017D000A8F1010803D0914800780028EFD0012D2E
:1017E00001D0C7E056E000BF8D48B0F80A8000BFC6
:1017F000F8B201A901F0E0FF0546022D08D15FEA29
:101800000800A8F1010803D0844800780028EFD030
:10181000012D00D00EE0824800690199084003992B
:10182000884207D00298411E029118B17B48007887
:101830000028D9D000BF7A4800690199084003996F
:10184000884201D045F01005012D22D092E0049885
:1018500000281ED1D14503D0D146484601F09FFF54
:101860006F48B0F80A8000BFF8B2002101F0A4FF71
:101870000546022D08D15FEA0800A8F1010803D04F
:10188000664800780028EFD0012D00D072E00120DA
:10189000049062E0049878B3B9F10A0F04D04FF0D5
:1018A0000A09484601F07BFF5D48B0F80A8000BF96
:1018B00001A90E2001F080FF0546022D08D15FEA44
:1018C0000800A8F1010803D0544800780028EFD0A0
:1018D000012D00D04EE0019804F8010B0198000A98
:1018E00004F8010B0198000C04F8010B0198000E9C
:1018F00004F8010B002004903078717840EA012050
:10190000B17840EA0140F17840EA01600190361D6B
:1019100017F0200F04D042480199016101251CE015
:10192000D14503D0D146484601F039FF3C48B0F8D4
:101930000A8000BFF8B201A901F03EFF0546022D62
:1019400008D15FEA0800A8F1010803D03348007805
:101950000028EFD0012D00D00CE00598401C059028
:101960002E48007800B105E00698411E0691002837
:101970007FF4B3AE00BF012D44D1B9F10A0F04D0FA
:101980004FF00A09484601F00AFF049830B3244892
:10199000B0F80A8000BF01A90E2001F00DFF054636
:1019A000022D08D15FEA0800A8F1010803D01B4806
:1019B00000780028EFD0012D00D024E0019804F831
:1019C000010B0198000A04F8010B0198000C04F8BF
:1019D000010B0198000E04F8010B13E01048B0F859
:1019E0000A8000BF00210E2001F0E6FE0546022D10
:1019F00008D15FEA0800A8F1010803D00748007881
:101A00000028EFD000BF05988BF800008BF801503C
:101A1000A4EB0B0007B0BDE8F08F00004A080020DF
:101A2000800A00202DE9F84F04460D464FF0000BC8
:101A30000026A846ED1C0020F9490870641C207897
:101A4000617840EA012AA41CBAF1000F00D194E0A9
:101A500014F8017B17F0020F4FD017F0010F16D0CA
:101A6000F048B0F80A9000BFF8B2002100F086FA02
:101A70000646022E08D15FEA0900A9F1010903D048
:101A8000E74800780028EFD0012E00D075E02EE066
:101A9000BAF1000F03D117F0010F00D00E27E14873
:101AA000B0F80A9000BFF8B2694600F067FA06463F
:101AB000022E08D15FEA0900A9F1010903D0D84834
:101AC00000780028EFD0012E00D056E0009805F8ED
:101AD000010B0098000A05F8010B0098000C05F8AE
:101AE000010B0098000E05F8010B0BF1010B5FEAEA
:101AF0000A00AAF1010ACBD13EE024E02078617807
:101B000040EA0120A17840EA0140E17840EA016022
:101B10000090241DC348B0F80A9000BFF8B269468F
:101B200000F02CFA0646022E08D15FEA0900A9F15E
:101B3000010903D0BA4800780028EFD0012E00D068
:101B40001BE00BF1010B5FEA0A00AAF1010AD5D1F3
:101B5000B448B0F80A9000BF00210E2000F00EFA41
:101B60000646022E08D15FEA0900A9F1010903D057
:101B7000AB4800780028EFD000BF88F800B04FEAEB
:101B80001B2088F8010088F80260A5EB0800BDE87A
:101B9000F88F2DE9FC5F04460D464FF0000B002640
:101BA000A946ED1C00209E49087014F8011B9D48B1
:101BB000C175C07D9B49897D884200DBADE02078FE
:101BC000617840EA0128A41CB8F1000F00D1A4E01C
:101BD00014F8017B17F0010F01D00B2000E00A2060
:101BE0000090009801F0DBFD17F0020F4FD08D48F8
:101BF000B0F80AA000BFF8B2002101F0DDFD0646F2
:101C0000022E08D15FEA0A00AAF1010A03D0844833
:101C100000780028EFD0012E00D07EE031E0B8F14E
:101C2000000F06D100980A2802D00A2001F0B7FD63
:101C30000E277C48B0F80AA000BFF8B201A901F055
:101C4000BBFD0646022E08D15FEA0A00AAF1010A8E
:101C500003D0734800780028EFD0012E00D05CE05C
:101C6000019805F8010B0198000A05F8010B01988D
:101C7000000C05F8010B0198000E05F8010B0BF1A3
:101C8000010B5FEA0800A8F10108C8D144E024E094
:101C90002078617840EA0120A17840EA0140E178AB
:101CA00040EA01600190241D5E48B0F80AA000BF20
:101CB000F8B201A901F080FD0646022E08D15FEAC4
:101CC0000A00AAF1010A03D0554800780028EFD095
:101CD000012E00D021E00BF1010B5FEA0800A8F112
:101CE0000108D5D100980A2802D00A2001F057FD3A
:101CF0004C48B0F80AA000BF00210E2001F05CFDA6
:101D00000646022E08D15FEA0A00AAF1010A03D0B2
:101D1000434800780028EFD000BF89F800B04FEAB0
:101D20001B2089F8010089F80260A5EB0900BDE8D5
:101D3000FC9F0246FF2008700120704770B50646E0
:101D40000D463078802807DB30789F2804DC294650
:101D50003046FFF7EEFF70BD307805F8010B16F83E
:101D6000010B172873D2DFE800F00C141A20256548
:101D7000802B9B2C32B4B4B4B4B4373D43494F5597
:101D80005F003078691CFFF72DF804462C70A01C0A
:101D9000E1E729463046FFF78AF804469EE02946E7
:101DA0003046FFF7A5F8044698E02846FFF7C1F84B
:101DB000044693E029463046FFF7A0FA04468DE03A
:101DC0008CE029463046FFF754F8044686E0284662
:101DD000FFF7BAF8044681E029463046FFF7BDF820
:101DE00004467BE029463046FFF765F9044675E076
:101DF00029463046FFF794F904466FE029463046FD
:101E0000FFF79EF9044669E029463046FFF7C6F918
:101E1000044663E029463046FFF7E7F904465DE0F3
:101E20004A080020800A002029463046FFF711FAB0
:101E3000044653E034480078012802D002280DD12E
:101E400006E029463046FFF770FA04460BE040E012
:101E500029463046FFF725FC044604E000202870A0
:101E60006870022400BF00BF38E0274800780128CE
:101E700002D002280CD105E029463046FFF7D2FDFA
:101E800004460BE029463046FFF783FE044605E092
:101E9000002028706870A870032400BF00BF1DE0F8
:101EA00019480078012802D002280CD105E0294603
:101EB0003046FFF755F9044609E029463046FFF75A
:101EC000F1F9044603E0FF202870022043E700BF39
:101ED00004E0FF2005F8010C01203CE700BF601C76
:101EE00039E710B50948006840080949B0FBF1F02E
:101EF000801E054948606421034841810120024950
:101F00000875FEF736FD10BD800A0020580A002033
:101F100040420F00F8B504460D4600272BE0641E32
:101F200017B915F8016B082716F0010F02D0FEF75C
:101F300005FC02E00020FE4908604FF00000FD496A
:101F40000860FD494868009000BF00BF0099491E25
:101F50000091FBD100BF0120F6490860F6494868AE
:101F6000009000BF00BF0099491E0091FBD100BF47
:101F70007610781EC7B2002CD1D1F8BD2DE9F84FEC
:101F800006468A4600270120E94908604FF0000014
:101F9000EA49C1F88C01E8494868009000BF00BFD9
:101FA0000099491E0091FBD100BF0120E149086062
:101FB000E1494868009000BF00BF0099491E0091A8
:101FC000FBD100BF3546DA4805604FF00000DB4921
:101FD000C1F88C01D8494868009000BF00BF009943
:101FE000491E0091FBD100BF0120D2490860D249AF
:101FF0004868009000BF00BF0099491E0091FBD1C6
:1020000000BF7819C7B27510C94805604FF00000CD
:10201000CA49C1F88C01C8494868009000BF00BF98
:102020000099491E0091FBD100BF0120C149086001
:10203000C1494868009000BF00BF0099491E009147
:10204000FBD100BF7819C7B2B510B94805604FF091
:102050000000BA49C1F88C01B7494868009000BF38
:1020600000BF0099491E0091FBD100BF0120B1497A
:102070000860B1494868009000BF00BF0099491E40
:102080000091FBD100BF7819C7B2F510A8480560D0
:102090004FF00000A949C1F88C01A7494868009099
:1020A00000BF00BF0099491E0091FBD100BF012075
:1020B000A0490860A0494868009000BF00BF00998F
:1020C000491E0091FBD100BF7819C7B2984807603C
:1020D0004FF000009949C1F88C0197494868009079
:1020E00000BF00BF0099491E0091FBD100BF012035
:1020F0009049086090494868009000BF00BF00996F
:10210000491E0091FBD100BF0020894908608B491E
:10211000C1F88C0188494868009000BF00BF009951
:10212000491E0091FBD100BF01208249086082490D
:102130004868009000BF00BF0099491E0091FBD184
:1021400000BF01207A4908604FF000007B49C1F8C8
:102150008C0179494868009000BF00BF0099491E72
:102160000091FBD100BF01207249086072494868A4
:10217000009000BF00BF0099491E0091FBD100BF35
:10218000FEF7F6FA6C48047D1BE000206949086000
:1021900069494868009000BF00BF0099491E00913E
:1021A000FBD100BF01206349086063494868009083
:1021B00000BF00BF0099491E0091FBD100BF601E07
:1021C000C4B2002CE1D100205A4908605A4948683D
:1021D000009000BF00BF0099491E0091FBD100BFD5
:1021E00057480068C5B24FF001005449C1F88C014E
:1021F00051494868009000BF00BF0099491E0091F6
:10220000FBD100BFA94600204A4908604A494868F6
:10221000009000BF00BF0099491E0091FBD100BF94
:1022200047480068C5B24FF001004449C1F88C012D
:1022300041494868009000BF00BF0099491E0091C5
:10224000FBD100BF49EA450000F0FF0900203949F1
:10225000086039494868009000BF00BF0099491ED6
:102260000091FBD100BF36480068C5B24FF00100B5
:102270003249C1F88C0130494868009000BF00BF66
:102280000099491E0091FBD100BF49EA850000F08A
:10229000FF09B9F1010F7DD116F0020F7BD08846FE
:1022A0000027202426E000202249086022494868AF
:1022B000009000BF00BF0099491E0091FBD100BFF4
:1022C0001F480068C5B24FF001001C49C1F88C01DD
:1022D00019494868009000BF00BF0099491E00914D
:1022E000FBD100BF7819C7B24FEA580848EAC57851
:1022F000601EC4B2002CD6D100200E4908600E49E1
:102300004868009000BF00BF0099491E0091FBD1B2
:1023100000BF0B480068C5B24FF001000749C1F883
:102320008C0105494868009000BF00BF009909E092
:10233000880121428C012142800A002000002142B4
:1023400008012142491E0091F0D100BF87EA050033
:1023500010F0010F01D04FF00809BAF1000F01D0C1
:10236000CAF80080B248047D1EE00020B149086030
:10237000AF494868009000BF00BF0099491E009116
:10238000FBD100BF0120AB490860A9494868009013
:1023900000BF01E0A4E00CE000BF0099491E0091DD
:1023A000FBD100BF601EC4B2002CDED1FEF7D5F910
:1023B0006BE09F48047D1BE000209E4908609C491B
:1023C0004868009000BF00BF0099491E0091FBD1F2
:1023D00000BF01209749086095494868009000BFF8
:1023E00000BF0099491E0091FBD100BF601EC4B21E
:1023F000002CE1D1FEF7B1F9DAF8008000272024A3
:1024000023E08D48C0F8888100208A490860884907
:102410004868009000BF00BF0099491E0091FBD1A1
:1024200000BF01208349086081494868009000BFCF
:1024300000BF0099491E0091FBD100BF07EB0800C7
:10244000C7B24FEA5808601EC4B2002CD9D17B48ED
:1024500007604FF000007849C1F88C017449486862
:10246000009000BF00BF0099491E0091FBD100BF42
:102470000120704908606E494868009000BF00BFA5
:102480000099491E0091FBD100BF6948047A0CB342
:1024900000206A4908601BE0002066490860644922
:1024A0004868009000BF00BF0099491E0091FBD111
:1024B00000BF01205F4908605D494868009000BF87
:1024C00000BF0099491E0091FBD100BF601EC4B23D
:1024D000002CE1D10120594908604846BDE8F88F39
:1024E000B9F1020F02D0B9F1040F78D15048407D04
:1024F00010B316F0020F1FD021241BE000204D491D
:1025000008604B494868009000BF00BF0099491E11
:102510000091FBD100BF012046490860444948684A
:10252000009000BF00BF0099491E0091FBD100BF81
:10253000601EC4B2002CE1D13D48047D1BE00020A8
:102540003C4908603A494868009000BF00BF0099C4
:10255000491E0091FBD100BF012036490860344973
:102560004868009000BF00BF0099491E0091FBD150
:1025700000BF601EC4B2002CE1D1FEF7EEF82C487B
:10258000407D30B316F0020F23D100202B490860A4
:102590004FF021041BE000202649086024494868C8
:1025A000009000BF00BF0099491E0091FBD100BF01
:1025B0000120204908601E494868009000BF00BF04
:1025C0000099491E0091FBD100BF601EC4B2002CCF
:1025D000E1D101201949086048467FE7FFE7144828
:1025E000007D2130C4B21BE0002012490860104970
:1025F0004868009000BF00BF0099491E0091FBD1C0
:1026000000BF01200B49086009494868009000BFDD
:1026100000BF0099491E0091FBD100BF601EC4B2EB
:10262000002CE1D1012005490860484656E700002A
:10263000800A00208C0121420000214288012142B1
:102640002DE9F84F04460F46904604F03F0606B9C0
:10265000402614F0400F03D00120F849086002E042
:102660000020F649086038E017F801AB00254FF06C
:10267000080926E00AF0FF00FEF7A0F8FEF753F87D
:10268000EF494868009000BF00BF0099491E0091C3
:10269000FBD100BFFEF79EF88346FEF73FF8E849FE
:1026A0004868009000BF00BF0099491E0091FBD10F
:1026B00000BF4FEA5A0A6D0845EACB15A9F1010996
:1026C000761EB9F1000F01D0002ED3D125FA09F5FD
:1026D00014F0800F01D008F8015B002EC4D1BDE8D2
:1026E000F88F70B505460120D4490860FEF71BF845
:1026F00000BF00BFFEF712F800BF00BFFEF713F8DF
:1027000000BF00BFFEF70AF800BF00BF0020CD49A0
:10271000C1F88801FEF707F800BF00BFFDF7FEFF14
:1027200000BF00BFFDF7FFFF00BF00BFFDF7F6FFD2
:1027300000BF00BF0120FEF741F8C148C17D203035
:1027400030F8114008E0FDF7EEFF00BF00BFFDF7D5
:10275000E5FF00BF00BF641E002CF4D1B848C17D66
:102760001830405C441E0CE0E8B2FEF727F8FDF795
:10277000DAFF00BF00BFFDF7D1FF00BF00BF6D084B
:10278000641E002CF0D1AE48C17D303030F81140CD
:1027900034B3E8B2FEF712F8FDF7C5FF00BF00BF83
:1027A000FDF7BCFF00BF00BF0120FEF707F8641E65
:1027B00008E0FDF7B8FF00BF00BFFDF7AFFF00BFA7
:1027C00000BF641E002CF4D101209C490860FDF775
:1027D000AAFF00BF00BFFDF7A1FF00BF00BF0EE0D2
:1027E000012096490860E8B2FDF7E8FFFDF79BFF7E
:1027F00000BF00BFFDF792FF00BF00BF00BFFDF7A5
:1028000092FF00BF00BFFDF789FF00BF00BF00209F
:102810008A490860FDF787FF00BF00BFFDF77EFF14
:1028200000BF00BF0120FDF7C9FF70BD2DE9F047D3
:1028300006468846012081490860FDF774FF00BF05
:1028400000BFFDF76BFF00BF00BF00207D49C1F84E
:102850008801FDF768FF00BF00BFFDF75FFF00BF05
:1028600000BFFDF760FF00BF00BFFDF757FF00BFCF
:1028700000BF7348C47D08E0FDF755FF00BF00BFEF
:10288000FDF74CFF00BF00BF641E002CF4D1C6F35F
:102890004700FDF793FFFDF746FF00BF00BFFDF7C0
:1028A00099FF0746FDF73AFF00BF00BF4FEA47090F
:1028B000C6F38700FDF782FFFDF735FF00BF00BFBD
:1028C000FDF788FF0746FDF729FF00BF00BF49EA73
:1028D0000709C6F3C700FDF771FFFDF724FF00BF2E
:1028E00000BFFDF777FF0746FDF718FF00BF00BFE9
:1028F00049EA8709B9F1010F0BD001204F4908605F
:10290000FDF711FF00BF00BFFDF708FF00BF00BFCC
:10291000ABE016F0020F54D000251F240EE0FDF7A7
:1029200002FF00BF00BFFDF755FF0746FDF7F6FEAB
:1029300000BF00BF45EAC7756D08641E002CEED1CC
:102940003F48817DC07D081A441E1CB3FDF7EBFE95
:1029500000BF00BFFDF73EFF0746FDF7DFFE00BFEB
:1029600000BF641E08E0FDF7DEFE00BF00BFFDF7FC
:10297000D5FE00BF00BF641E002CF4D101202F49FA
:102980000860FDF7D0FE00BF00BFFDF7C7FE00BF27
:1029900000BF0EE0012029490860FDF7C4FE00BF1A
:1029A00000BFFDF717FF0746FDF7B8FE00BF00BFE9
:1029B00000BF45EAC775B8F1000F55D0C8F8005000
:1029C00052E0D8F800501F240CE0E8B2FDF7F6FE04
:1029D000FDF7A9FE00BF00BFFDF7A0FE00BF00BFCE
:1029E0006D08641E002CF0D11548817DC07D081A49
:1029F000441E4CB3E8B2FDF7E1FEFDF794FE00BFC4
:102A000000BFFDF78BFE00BF00BF641E08E0FDF7AE
:102A10008AFE00BF00BFFDF781FE00BF00BF641E3D
:102A2000002CF4D1012005490860FDF77CFE00BFB1
:102A300000BFFDF773FE00BF00BF15E08801214213
:102A4000800A002000002142FFE70120F8490860C9
:102A5000E8B2FDF7B3FEFDF766FE00BF00BFFDF76D
:102A60005DFE00BF00BF00BF00BFFDF75CFE00BF02
:102A700000BFFDF753FE00BF00BF0020EC49086017
:102A8000FDF751FE00BF00BFFDF748FE00BF00BFCD
:102A90000120FDF793FEE748047A08E0FDF743FEC6
:102AA00000BF00BFFDF73AFE00BF00BF00BF20001F
:102AB000A4F10104F2D109F0FF00BDE8F08738B5B8
:102AC00005460120DA490860FDF72DFED94948681E
:102AD000009000BF00BF0099491E0091FBD100BFCC
:102AE000FDF71CFED3494868009000BF00BF009965
:102AF000491E0091FBD100BFFDF715FECD49486886
:102B0000009000BF00BF0099491E0091FBD100BF9B
:102B1000FDF704FEC7494868009000BF00BF009958
:102B2000491E0091FBD100BF0020C1490860FDF79C
:102B3000FAFDC0494868009000BF00BF0099491ED7
:102B40000091FBD100BFFDF7E9FDBA49486800904C
:102B500000BF00BF0099491E0091FBD100BFFDF7E7
:102B6000E2FDB4494868009000BF00BF0099491ECB
:102B70000091FBD100BFFDF7D1FDAE494868009040
:102B800000BF00BF0099491E0091FBD100BF01208A
:102B9000FDF714FEA748C17D203030F8114018E041
:102BA000FDF7C1FDA3494868009000BF00BF009930
:102BB000491E0091FBD100BFFDF7B0FD9D4948685B
:102BC000009000BF00BF0099491E0091FBD100BFDB
:102BD000641E002CE4D19748C17D1830405C441E2F
:102BE0001CE0E8B2FDF7EAFDFDF79DFD914948685C
:102BF000009000BF00BF0099491E0091FBD100BFAB
:102C0000FDF78CFD8B494868009000BF00BF00991C
:102C1000491E0091FBD100BF6D08641E002CE0D15D
:102C20008448C17D303030F81140002C55D0E8B2D6
:102C3000FDF7C4FDFDF777FD7E494868009000BFB1
:102C400000BF0099491E0091FBD100BFFDF766FD52
:102C500078494868009000BF00BF0099491E009164
:102C6000FBD100BF0120FDF7A9FD641E18E0FDF7B0
:102C70005AFD70494868009000BF00BF0099491E86
:102C80000091FBD100BFFDF749FD6A4948680090FB
:102C900000BF00BF0099491E0091FBD100BF641E18
:102CA000002CE4D1012062490860FDF73CFD614938
:102CB0004868009000BF00BF0099491E0091FBD1F9
:102CC00000BFFDF72BFD5B494868009000BF00BFC7
:102CD0000099491E0091FBD11DE001205449086074
:102CE000E8B2FDF76BFDFDF71EFD52494868009004
:102CF00000BF00BF0099491E0091FBD100BFFDF746
:102D00000DFD4C494868009000BF00BF0099491E66
:102D10000091FBD100BFFDF706FD464948680090D1
:102D200000BF00BF0099491E0091FBD100BFFDF715
:102D3000F5FC40494868009000BF00BF0099491E5B
:102D40000091FBD100BF002039490860FDF7EBFC82
:102D500038494868009000BF00BF0099491E0091A3
:102D6000FBD100BFFDF7DAFC32494868009000BF94
:102D700000BF0099491E0091FBD100BF0120FDF763
:102D80001DFD38BD2DE9F843074689460120284935
:102D90000860FDF7C8FC27494868009000BF00BFE5
:102DA0000099491E0091FBD100BFFDF7B7FC2149F6
:102DB0004868009000BF00BF0099491E0091FBD1F8
:102DC00000BF00201A490860FDF7ADFC19494868AA
:102DD000009000BF00BF0099491E0091FBD100BFC9
:102DE000FDF79CFC13494868009000BF00BF0099A4
:102DF000491E0091FBD100BFFDF795FC0D494868C5
:102E0000009000BF00BF0099491E0091FBD100BF98
:102E1000FDF784FC07494868009000BF00BF009997
:102E2000491E0091FBD100BF0248C47D1DE0000097
:102E300088012142800A0020FDF775FCFE494868A0
:102E4000009000BF00BF0099491E0091FBD100BF58
:102E5000FDF764FCF8494868009000BF00BF009986
:102E6000491E0091FBD100BF641E002CE4D1C7F3C2
:102E70004700FDF7A3FCFDF756FCEF4948680090BA
:102E800000BF00BF0099491E0091FBD100BFFDF7B4
:102E9000A1FC0646FDF742FCE7494868009000BFE8
:102EA00000BF0099491E0091FBD100BF4FEA4608C0
:102EB000C7F38700FDF782FCFDF735FCDE49486863
:102EC000009000BF00BF0099491E0091FBD100BFD8
:102ED000FDF780FC0646FDF721FCD74948680090C5
:102EE00000BF00BF0099491E0091FBD100BF48EA16
:102EF0000608C7F3C700FDF761FCFDF714FCCE49D7
:102F00004868009000BF00BF0099491E0091FBD1A6
:102F100000BFFDF75FFC0646FDF700FCC6494868A8
:102F2000009000BF00BF0099491E0091FBD100BF77
:102F300048EA8608B8F1010F1BD00120BF4908609C
:102F4000FDF7F1FBBC494868009000BF00BF009945
:102F5000491E0091FBD100BFFDF7E0FBB649486870
:102F6000009000BF00BF0099491E0091FBD100BF37
:102F700043E117F0020F7DD000251F241EE0FDF76E
:102F8000D2FBAD494868009000BF00BF0099491EC0
:102F90000091FBD100BFFDF71DFC0646FDF7BEFB0F
:102FA000A5494868009000BF00BF0099491E0091E4
:102FB000FBD100BF45EAC6756D08641E002CDED14A
:102FC0009D48817DC07D081A441E002C53D0FDF71A
:102FD000AAFB99494868009000BF00BF0099491EAC
:102FE0000091FBD100BFFDF7F5FB0646FDF796FB10
:102FF00091494868009000BF00BF0099491E0091A8
:10300000FBD100BF641E18E0FDF78DFB8A494868BC
:10301000009000BF00BF0099491E0091FBD100BF86
:10302000FDF77CFB84494868009000BF00BF009911
:10303000491E0091FBD100BF641E002CE4D1012089
:103040007E490860FDF76FFB7B494868009000BF30
:1030500000BF0099491E0091FBD100BFFDF75EFB48
:1030600075494868009000BF00BF0099491E009153
:10307000FBD11EE025E0012070490860FDF753FBFD
:103080006D494868009000BF00BF0099491E00913B
:10309000FBD100BFFDF79EFB0646FDF73FFB6649EF
:1030A0004868009000BF00BF0099491E0091FBD105
:1030B00000BF45EAC675B9F1000F01D0C9F800504C
:1030C0009AE0D9F800501F241CE0E8B2FDF776FB27
:1030D000FDF729FB58494868009000BF00BF0099E0
:1030E000491E0091FBD100BFFDF718FB524948680B
:1030F000009000BF00BF0099491E0091FBD100BFA6
:103100006D08641E002CE0D14B48817DC07D081AFB
:10311000441E002C52D0E8B2FDF750FBFDF703FB34
:1031200045494868009000BF00BF0099491E0091C2
:10313000FBD100BFFDF7F2FA3F494868009000BF9D
:1031400000BF0099491E0091FBD100BF641E18E02A
:10315000FDF7E9FA38494868009000BF00BF0099C0
:10316000491E0091FBD100BFFDF7D8FA32494868EB
:10317000009000BF00BF0099491E0091FBD100BF25
:10318000641E002CE4D101202C490860FDF7CBFA25
:1031900029494868009000BF00BF0099491E00916E
:1031A000FBD100BFFDF7BAFA23494868009000BF81
:1031B00000BF0099491E0091FBD11DE001201F496D
:1031C0000860E8B2FDF7FAFAFDF7ADFA1A49486867
:1031D000009000BF00BF0099491E0091FBD100BFC5
:1031E000FDF79CFA14494868009000BF00BF0099A1
:1031F000491E0091FBD100BF00BFFDF794FA0E49B4
:103200004868009000BF00BF0099491E0091FBD1A3
:1032100000BFFDF783FA08494868009000BF00BF6F
:103220000099491E0091FBD100BF002003490860AE
:10323000FDF779FA004903E0800A00208801214265
:103240004868009000BF00BF0099491E0091FBD163
:1032500000BFFDF763FAFE494868009000BF00BF59
:103260000099491E0091FBD100BF0120FDF7A6FA8D
:10327000F748047A17E0FDF756FAF54948680090D8
:1032800000BF00BF0099491E0091FBD100BFFDF7B0
:1032900045FAEF494868009000BF00BF0099491EF9
:1032A0000091FBD100BF2000A4F10104E3D108F09C
:1032B000FF00BDE8F883F8B50120E6490860FDF796
:1032C00032FAE3494868009000BF00BF0099491EE8
:1032D0000091FBD100BFFDF721FADD49486800905D
:1032E00000BF00BF0099491E0091FBD100BF002024
:1032F000D8490860FDF717FAD5494868009000BF23
:1033000000BF0099491E0091FBD100BFFDF706FAEE
:10331000CF494868009000BF00BF0099491E009146
:10332000FBD100BFFDF7FFF9C9494868009000BF15
:1033300000BF0099491E0091FBD100BFFDF7EEF9D7
:10334000C3494868009000BF00BF0099491E009122
:10335000FBD100BFBE48C57D18E0FDF7E4F9BC49CC
:103360004868009000BF00BF0099491E0091FBD142
:1033700000BFFDF7D3F9B6494868009000BF00BF11
:103380000099491E0091FBD100BF6D1E002DE4D1B4
:1033900000241F251EE0FDF7C6F9AD4948680090DE
:1033A00000BF00BF0099491E0091FBD100BFFDF78F
:1033B00011FA0646FDF7B2F9A5494868009000BF2A
:1033C00000BF0099491E0091FBD100BF44EAC674BA
:1033D00064086D1E002DDED101209E490860FDF7B6
:1033E000A2F99B494868009000BF00BF0099491EA0
:1033F0000091FBD100BFFDF7EDF90646FDF78EF910
:1034000093494868009000BF00BF0099491E009191
:10341000FBD100BF44EAC674FDF785F98C494868C2
:10342000009000BF00BF0099491E0091FBD100BF72
:10343000FDF774F986494868009000BF00BF009905
:10344000491E0091FBD100BF002082490860FDF7B2
:103450006AF97F494868009000BF00BF0099491E83
:103460000091FBD100BFFDF759F9794948680090F8
:1034700000BF00BF0099491E0091FBD100BF20464C
:10348000F8BD38B50546012072490860FDF74BF9D3
:103490006F494868009000BF00BF0099491E009125
:1034A000FBD100BFFDF73AF969494868009000BFB9
:1034B00000BF0099491E0091FBD100BF0020654963
:1034C0000860FDF730F962494868009000BF00BF0E
:1034D0000099491E0091FBD100BFFDF71FF95C491F
:1034E0004868009000BF00BF0099491E0091FBD1C1
:1034F00000BFFDF718F956494868009000BF00BFAB
:103500000099491E0091FBD100BFFDF707F9504912
:103510004868009000BF00BF0099491E0091FBD190
:1035200000BF4B48C47D18E0FDF7FDF848494868E6
:10353000009000BF00BF0099491E0091FBD100BF61
:10354000FDF7ECF842494868009000BF00BF0099C1
:10355000491E0091FBD100BF641E002CE4D1002065
:10356000FDF72CF9FDF7DFF839494868009000BFF6
:1035700000BF0099491E0091FBD100BFFDF7CEF8B6
:1035800033494868009000BF00BF0099491E009170
:10359000FBD100BFFDF7C7F82D494868009000BF78
:1035A00000BF0099491E0091FBD100BFFDF7B6F89E
:1035B00027494868009000BF00BF0099491E00914C
:1035C000FBD100BFFDF7AFF821494868009000BF6C
:1035D00000BF0099491E0091FBD100BFFDF79EF886
:1035E0001B494868009000BF00BF0099491E009128
:1035F000FBD100BF1F241CE0E8B2FDF7DFF8FDF7A8
:1036000092F813494868009000BF00BF0099491E16
:103610000091FBD100BFFDF781F80D49486800908B
:1036200000BF00BF0099491E0091FBD100BF6D088B
:10363000641E002CE0D10648817DC07D081A441E1E
:10364000002C57D0E8B2FDF7B9F8FDF76CF803E0AD
:10365000800A0020880121425F494868009000BF2D
:1036600000BF0099491E0091FBD100BFFDF756F83D
:1036700059494868009000BF00BF0099491E009159
:10368000FBD100BF641E18E0FDF74DF852494868B1
:10369000009000BF00BF0099491E0091FBD100BF00
:1036A000FDF73CF84C494868009000BF00BF009906
:1036B000491E0091FBD100BF641E002CE4D1012003
:1036C00046490860FDF72FF843494868009000BF5D
:1036D00000BF0099491E0091FBD100BFFDF71EF805
:1036E0003D494868009000BF00BF0099491E009105
:1036F000FBD11DE0012039490860E8B2FDF75EF812
:10370000FDF711F834494868009000BF00BF0099E8
:10371000491E0091FBD100BFFDF700F82E49486813
:10372000009000BF00BF0099491E0091FBD100BF6F
:10373000FCF7F9FF28494868009000BF00BF0099D6
:10374000491E0091FBD100BFFCF7E8FF2249486801
:10375000009000BF00BF0099491E0091FBD100BF3F
:1037600000201E490860FCF7DEFF1B4948680090F6
:1037700000BF00BF0099491E0091FBD100BFFCF7BC
:10378000CDFF15494868009000BF00BF0099491E51
:103790000091FBD100BF0120FDF710F838BD10B536
:1037A00004460D48407818B12046FEF79AFF02E023
:1037B0002046FFF784F910BD70B504460D46064853
:1037C000407820B129462046FFF730F870BD2946E1
:1037D0002046FFF7D7FAF9E7800A00208801214246
:1037E00000B585B00121052002F086FF0121880384
:1037F00002F08FFF0121042002F07EFF012104204E
:1038000002F07AFF0220ADF8000010208DF80300CE
:1038100003208DF802006946874802F0B7FC1020AB
:10382000ADF800008DF8030003208DF80200694612
:10383000814802F0ABFC4FF40070ADF80000182096
:103840008DF8030003208DF8020069467A4802F0E3
:103850009DFC4FF48060ADF8000048208DF8030017
:103860006946754802F092FC744802F0ADFF4FF4CF
:10387000E13001900020ADF80800ADF80A00ADF885
:103880000C000C20ADF80E000020ADF8100001A9CE
:103890006A4802F0DCFF0121684803F064F805B0D3
:1038A00000BD70B54FF4FA7400250020644908602B
:1038B0006449C1F890014FF4FA6400BF2000A4F1FC
:1038C0000104FBD101205E4908605E49C1F8900106
:1038D0004FF4FA6400BF2000A4F10104FBD17F2162
:1038E000564803F0ADF800BF8021544803F016F9A4
:1038F0000128F9D111E042F2107400BF2000A4F1B8
:103900000104FBD17F214D4803F09AF800BF8021CC
:103910004A4803F003F90128F9D1484803F094F824
:10392000792805D028466D1C41F288318842E2D3BF
:103930002021424803F0F2F82021404803F0FBF830
:103940004FF4FA6400203E4908603E49C1F89001F6
:1039500000BF2000A4F10104FBD1394908604FF0F9
:1039600001003849C1F8900170BD70B54FF4FA7488
:1039700000250020324908603249C1F890014FF417
:10398000FA6400BF2000A4F10104FBD101202C49FE
:1039900008602C49C1F890014FF4C87400BF2000A2
:1039A000A4F10104FBD11CE04FF47A7400BF2000A5
:1039B000A4F10104FBD10021204803F041F800BF2D
:1039C00080211E4803F0AAF80128F9D1FF211B48E5
:1039D00003F036F800BF8021184803F09FF8012853
:1039E000F9D1164803F030F8792805D028466D1C27
:1039F00041F288318842D7D34FF4FA64002010494D
:103A000008601049C1F8900100BF2000A4F1010432
:103A1000FBD10B4908604FF001000A49C1F8900141
:103A200070BD704770477047704770477047704768
:103A300070477047704770470008014000380140E8
:103A4000840121420000214202465D48C0782128BD
:103A500004D0222824D0232833D130E058480079DC
:103A6000584B1B78984201D0002070475648007888
:103A700028B956480078012801D10020F5E75348BD
:103A8000007810B95248106001E052481060524B63
:103A90001B8810681844514B18600920086012E018
:103AA00047480079474B1B78984201D00020DCE75B
:103AB0004B484A4B18604B480088086003E00020E0
:103AC000D3E70020D1E700BF0120CEE710B53C4886
:103AD00000793C49097888425AD1394840780C2805
:103AE00055D2DFE800F054062E4154545454541D6E
:103AF000394C00F08CF890B13148C078012803D1DE
:103B000039483649086006E02D48C078032802D1BC
:103B100036483249086001F0DCFD012010BD36E076
:103B20002748C078022803D131482C49086006E0B4
:103B30002348C078032802D12C4828490860012076
:103B4000ECE700F09CF830B12A482449086001F005
:103B5000C0FD0120E2E71AE000F099F818B101F089
:103B6000EAFD0120DAE712E000F0A9F830B12148BF
:103B70001A49086001F0ADFD0120CFE707E000F031
:103B8000A5F818B101F0D7FD0120C7E700BF00BFBD
:103B90000020C3E710B50A4800790A49097888422D
:103BA0000CD107484078092807D100F04BF818B12C
:103BB00001F0C1FD012010BD00BF00BF0020FAE7E9
:103BC00010090020268E0008218E0008050900201B
:103BD0000C8F0008788F0008E48E00080809002088
:103BE000C08E0008E28E0008212D0020F20800207F
:103BF000622D0020E02C0020704710B50446002004
:103C000010BD10B5029C10BD00207047704710B564
:103C10000024FE48C078012804D0022804D00328DC
:103C200006D103E0FA4C03E0002010BDF94C00BFC0
:103C300000BFF64A9178D0780023224600F0F0FACF
:103C40000120F2E738B50024F048C078012804D0FC
:103C5000022804D0032806D103E0002038BDEE4C32
:103C600001E0EC4C00BF00BF0020E84A0090D38880
:103C70009178D078224600F019FB0120EEE7E34866
:103C80008078E649085CE649087001207047DF4803
:103C9000807830B1DD48C2788078401EDF4B1A54FE
:103CA0000BE0002105E0D948C078DC4A5054481C9C
:103CB000C1B2DC4800788142F5DB0120704710B5C5
:103CC000FFF7A2FFD6490870012010BD10B5CF49FB
:103CD0008878FFF79BFF012010BD70B50646D248DB
:103CE0000088D2490988884226DBD148006818BB81
:103CF0000020D0490860CC490880C548401E0178A2
:103D00000123421C184600F08BFAC8490880084677
:103D1000008888B1BE48401EC6490860C148007886
:103D2000012804DC08460068401C086004E0BF4825
:103D30000088401CBD490880BC48008800285FD12D
:103D4000BD48006818B10020BB49086058E0BB4876
:103D50000068002854D0B348007801281BDCB7481D
:103D6000006800284CD00020A949491E0870AE49BF
:103D700008800223A64A0021012000F051FAAB4935
:103D800008800846008810B1A148AA4908600020B0
:103D9000AA49086034E09E48401E047800BF202CE9
:103DA00000DB00240120A040A4490968084223D078
:103DB000601C9749491E087000209B490880601CC0
:103DC000C1B20223924A012000F02AFA97490880E2
:103DD0000846008840B18E48401E964908609348C6
:103DE0000088401C914908800120A040934909683F
:103DF00081439248016002E0601CC4B2CFE700BF7B
:103E00008A48008810B98A480068A0B387480088AB
:103E100085490988401A85B289488A49097830F865
:103E20001100A84204DA86488649097830F8115012
:103E30008549097841F080002A467E49096801F0E9
:103E4000D4FA7C48006828447A490860764800889B
:103E5000284475490880084600887C4909888842BA
:103E60000ADA77487749097830F81100A84203D177
:103E700001206F49086002E000206D49086070BDB4
:103E800038B505467248008830B96348401E71490C
:103E9000086000206E4908806E4801686E4800780E
:103EA00001F04DFA84B26B4800682044694908600B
:103EB0006748008820446649088064B10846008845
:103EC00066490988884206DA5D485E49097830F813
:103ED0001100A0421DDD6248007801280ADC0120A3
:103EE00000905B4803884C4A521E0021022000F0DB
:103EF000DDF90BE00120009055480088431E46483C
:103F0000401E0178421C022000F0D0F900205049E8
:103F1000088038BD00205349087047490860474968
:103F2000086044490860414908803F490880404989
:103F3000086048490860464908804B4908604B4979
:103F40000880704710B5044614F0080F02D02046D0
:103F5000FFF7C3FE14F0040F02D02046FFF790FFD6
:103F600010BD2DE9F0414248007800284CD00026D1
:103F7000404801780078401C3E4A10703148007873
:103F800000EB400204209040401E814203DB0020F1
:103F9000384908700126002537480088FF2804DAD0
:103FA00035480088401C3449088034482549097840
:103FB00030F8110030490988884200D101250024D9
:103FC000A1E04FF000089EB12D48005DFF2804DA03
:103FD0002B48005D401C2A4908552A48005D38B12D
:103FE0002748005D2749095D884201DB4FF0010841
:103FF0002448005D1349097801EB410202219140F8
:1040000088401E490F4A3FE08FE000001009002061
:10401000212D0020F2080020622D0020F008002051
:10402000E02C0020328E00085E0800205C08002092
:104030006008002058080020500800205408002084
:104040002E8E000805090020278E0008348E0008F7
:104050006808002064080020288E0008368E0008BA
:10406000338E00084D0800206C08002070080020E6
:10407000F70800204C080020EC0800202A8E0008D9
:10408000EE080020EF080020127831F81210884264
:1040900004DA4C48005D08B1012000E0002007462A
:1040A0003DB137B10120A04047490968084346495E
:1040B00008604448005D4549095D884213D0444882
:1040C000005D4249095D884209DB0120A0403E496C
:1040D000096808433C49086000203E4908703B4895
:1040E000005D38490855B8F1000F0AD037B90120F2
:1040F000A040354909680843334908600020344925
:104100000855601CC4B2344800788442FFF659AFA9
:1041100015B10020314908802B48006828B130488B
:10412000008810B90020FFF7D8FDBDE8F08170B518
:1041300004460E4615462B480088854201DD0020C6
:1041400070BD2948007800283AD00120274908602E
:104150000CE02548007848B900202449086024492B
:104160000860244908801E490880E9E71C48008847
:104170000028EED1204804702A463146401C04F045
:1041800075FA1D481A49086000201A490880144928
:104190000D8011480078012805DC15480068401C96
:1041A0001349086004E00E480088401C0C49088050
:1041B0000020FFF792FD0020054908550120BFE7C8
:1041C0000020BDE7EF08002054080020F008002080
:1041D000EE0800204C080020328E0008EC08002079
:1041E0005C080020348E0008F708002050080020EA
:1041F000580800205E080020202D00200020D14912
:104200000870D1490860D14908600120D049087080
:104210000020D0490870D0490860D0490860704734
:104220002DE9F04104460F4615461E46012C02D0EA
:10423000032C38D136E026B1012E04D0022E2FD126
:1042400000E000BF2CE0C5480068C3490968884207
:1042500002D1C0480078F8B1C148C04A126800EBEA
:1042600082114022284604F001FABC480068401C34
:10427000BA49086008460068402801D1002008605B
:10428000B6480068B4490968884202D10020B149A3
:1042900008704020BDE8F0810120AD49087000BFE2
:1042A00000BF00E000BF00BF0020F3E72DE9F041B0
:1042B0000646884614461D46069F022E02D0032E4F
:1042C00036D134E005B933E02078072807D1A54876
:1042D000006818B1A34909688868804728E09948B0
:1042E000007830B19848006898490968884200D140
:1042F0001EE09D49944A126801EB82102A4621462D
:1043000004F0B4F990480068401C8F4908600846E2
:104310000068402801D1002008608B4800688B4964
:104320000968884202D101208649087000E000BF78
:1043300000BFBDE8F0812DE9F04704460D464FF07F
:10434000FF0A2078D0286EDB2078D7286BDC207815
:1043500005F8010B14F8010BD038082872D2DFE8F9
:1043600000F004121518213356728048076805F8CA
:10437000017B380A05F8010B380C05F8010B380EE3
:1043800005F8010B74E002F042FC71E002F04BFC16
:104390006EE02768384602F07FFC042801D04FF019
:1043A000FF0A65E0D4F80080A68806E018F8011B33
:1043B000FF2902D04FF0FF0A04E03000A6F101010E
:1043C0008EB2F3D100BF53E02768A688382E02DDF5
:1043D0004FF0FF0A1AE0A41D12E014F8019B2EB161
:1043E00014F8011B49EA0129701E86B24946384675
:1043F00002F055FD042802D04FF0FF0A05E0BF1C73
:104400003000A6F101018EB2E7D100BF30E0D4F850
:104410000080A6883E2E02DD4FF0FF0A11E000204A
:1044200005F8010B08E027E016B998F800A003E0B2
:1044300018F8010B05F8010B3000A6F101018EB24E
:10444000F2D115E010E000BFBFF34F8F484800687D
:1044500000F4E06047490843001D45490860BFF388
:104460004F8F00BF00BFFEE76D1E4FF0FF0A00BF79
:1044700000BF85F800A017E03A48006890B1384BBB
:10448000DFF8D4C0DCF800C003EB8C11364BDFF84A
:10449000BCC0DCF800C003EB8C10324B1B685A68C0
:1044A000904701E0FF202870BDE8F08710B527484D
:1044B000006825490968884203D12248007800280D
:1044C0003DD0274A244B1B6802EB8311264A1F4B21
:1044D0001B6802EB8310FFF72EFF1C480068441C8A
:1044E000402C00D10024194804600068164909686E
:1044F000884202D10020134908701548007860B145
:104500000020134908701648134A126800EB821104
:1045100040220020FFF70BFE0FE00F480068441C0C
:10452000402C00D100240C48046000680B49096845
:10453000884202D1012007490870012010BD0020E7
:10454000FCE7000074080020780800207C080020A8
:1045500080080020810800208408002088080020AE
:10456000C01A002004080020C00A0020002004E037
:104570000CED00E00000FA0510B5534800795349EE
:104580000978884205D05048007951490978884215
:1045900066D14D484078042833D007DC78B1012833
:1045A00012D002281BD0032859D11DE0202832D078
:1045B000212835D022283ED0232850D145E0454837
:1045C00045490860012010BD00F078FA30B141483B
:1045D0004149086001F07DF80120F4E73FE03D48E3
:1045E0003D4908600120EEE73749488800F06BFA42
:1045F00030B138483849086001F06BF80120E2E733
:104600002DE03149488800F061FA18B101F093F8C3
:104610000120D8E723E02F482F4908600120D2E786
:1046200000F0B1FA30B12B482B49086001F051F885
:104630000120C8E713E02449488800F0C6FA18B101
:1046400001F079F80120BEE709E01F49488800F031
:1046500040FA18B101F06FF80120B4E700BF00BFC5
:104660000020B0E710B51848007918490978884249
:1046700005D01548007916490978884222D1124898
:10468000407820B102280AD020281AD111E000F089
:1046900013FA18B101F04FF8012010BD11E00A49DA
:1046A000488800F00DFA18B101F045F80120F4E750
:1046B00007E000F04AFA18B101F03DF80120ECE7FC
:1046C00000BF00BF0020E8E710090020428E00086C
:1046D000438E0008E02C00200809002070B5054634
:1046E000DE4CA879082801D0002070BD0020A080F1
:1046F000687920B1012809D002280BD102E00020FE
:10470000208109E04FF48060208105E04FF4C06013
:10471000208101E00020E8E700BF287920B10128CE
:1047200009D002280BD102E00020E08009E04FF41C
:104730000050E08005E04FF44050E08001E00020B0
:10474000D3E700BF2879C6490871A87988716879CC
:10475000487128680860286820600C20608100206B
:10476000A0812146BF4802F072F8012240F2255193
:10477000BC4802F004F90121BA4802F0F4F8012023
:10478000B3E710B5252000F01F0201219140B64A81
:10479000430942F8231000BF0020B4490860B4491F
:1047A0000860AF49087108208871002048714FF4F3
:1047B000E13008600846FFF791FF252000F01F0256
:1047C0000121914042094FF0E02303EB8202C2F83D
:1047D000001100BF012010BD10B50121084601F0F5
:1047E0008BFF0121880301F087FFFFF7CAFFA14972
:1047F000A14801F0CBFCA1499F4801F0C7FC012072
:1048000010BD10B500214FF4804001F075FF9C49A8
:10481000994801F0BBFC9B49974801F0B7FC012087
:1048200010BD10B5FFF7ADFF10BD01468C480079F3
:1048300008718B4880798871894840794871884827
:1048400000680860012070470146012070472DE98B
:10485000F04104460D4600261BE0681E85B28A48DA
:1048600080888949C988401A0FFA80F8B8F1FF0F8B
:104870000FDC8548078814F8011B0830C155781CE7
:10488000C7B2814807808088401C00B27E4988807A
:10489000761C002DE1D12EB1012240F22771714822
:1048A00002F06DF83046BDE8F08130B502460020D8
:1048B0001EE04B1E99B2754BB3F90430734CB4F93A
:1048C0000640A34214D0714C63885C1C6F4D6C8011
:1048D00005F10804E45C02F8014B2B465B88DBB26F
:1048E0002C4663802346DB885B1C1BB2E380401CA4
:1048F0000029DED130BD08B501216846FFF7D5FF9C
:10490000012802D19DF8000008BD4FF0FF30FBE701
:1049100001B501216846FFF79AFF012802D19DF8F1
:10492000000008BD4FF0FF30FBE75848B0F9040025
:104930005649B1F90610401A704700207047002010
:104940005349097811F0010F01D040F0020050499D
:10495000097811F0040F01D040F0040044490968BF
:1049600031B94B49097811F0020F01D040F0020033
:10497000704710B501203D4908603A4802F069F8D7
:10498000012010BD3A480068704770B5354800886E
:104990003F49086040F22551324802F0D5F850B343
:1049A0003A4880883949C988401A05B2FF2D22DC6F
:1049B0002C4802F049F8C4B234490888411C334AF3
:1049C000118002F108010C5444B90221254802F07B
:1049D000A5F818B101202649086002E0002024490A
:1049E00008602A480088C0B22849088008468088A4
:1049F000401C00B2888040F227711A4802F0A4F8E7
:104A000020B31A480068012803D1164802F021F8A3
:104A100023E01D48B0F904001B49B1F90610884293
:104A200015D019484688701C174A508002F10800BA
:104A3000815D0C4802F004F813484088C0B2124966
:104A400048800846C088401C00B2C88005E00022AB
:104A500040F22771034801F092FF70BDD02C002076
:104A6000980800200038014080E100E09008002014
:104A700094080020108E000800080140148E0008E1
:104A8000188E00081C8E0008C02A0020C82B0020A9
:104A90008C080020002070470020704700207047DD
:104AA0000146002070470146002070470146002063
:104AB0007047014600207047002070470020704773
:104AC0000146002070470146002070470146002043
:104AD000704701460020704710B5FFF77DFE10BDFE
:104AE00010B5FFF78EFE10BD10B50020FD4908601F
:104AF000FD490860FD490860FD490860FD490860FE
:104B0000FD48FE490860FE4908600020FD49087024
:104B1000FD490870FD490860FD490860FD48FE49EF
:104B20000860FE4908600020FD490880FFF779FE13
:104B30004FF41650FB4908600020087148710820A6
:104B400088710846FFF7CAFD10BD10B5F648007819
:104B5000F549497840EA0120F349897840EA014063
:104B6000F149C97840EA0160EE490860EE480079F1
:104B70000871ED4840794871EB48807988710846A2
:104B8000FFF7ACFD10BD10B5E648FFF74EFED0B103
:104B9000E4480078E4490870E2480088000A487058
:104BA000E0480068000C8870DE480068000EC8709D
:104BB000DC4800790871DB4840794871D948807930
:104BC0008871012010BD0020FCE710B50446D448D0
:104BD00004802046FFF738FE10BDC5480068C5496F
:104BE0000968401AD1490988081A70472DE9F04729
:104BF00007460C46B846BE480068BE490968A0EBA7
:104C00000109CA480088A0EB0906002E02DC00203A
:104C1000BDE8F087B44200DD34460025B74800689F
:104C2000B749096888421AD3B44800682044B24999
:104C3000BE4A12881144884211D9AF48BB4909883D
:104C40000844AE490968451A2A464146AB480068FF
:104C500003F00CFDA844641BA748A849086054B1A0
:104C600022464146A548006803F000FDA3480068BD
:104C70002044A24908602C449D48006820449C4977
:104C800008602046C4E701B501216846FFF7AEFF82
:104C9000012802D19DF8000008BD4FF0FF30FBE76E
:104CA00070B506460C469C4800689C4909688842D5
:104CB00013D99948006899490968451AAC4200DD42
:104CC0002C46224695480168304603F0CFFC9348B5
:104CD000006820449149086000E00024204670BD2F
:104CE00008B501216846FFF7DBFF012802D19DF8D6
:104CF000000008BD4FF0FF30FBE787480068874998
:104D00000968401A704710B5044689480078D0B148
:104D1000A120884908702020487000208870C87041
:104D200008714871022088710020C8710C7220122D
:104D300048728149097841F080000A227D4900F0DB
:104D400054FB012010BD0020FCE710B5FFF7CCFE9E
:104D500010BD10B56448006800B910BD6448006813
:104D600064490968441A34B96048006818B90020D9
:104D70005D490860F1E71CB95C480068002857D01D
:104D80005F4800685D490968884203D86748008821
:104D900084420FD15A48006820445749634A128818
:104DA0001144884206D95448604909880844544946
:104DB0000968441A61486249097830F81100A04234
:104DC00004DA5E485E49097830F811405D49097897
:104DD00041F0800022464A49096800F006FB484835
:104DE0000068204446490860424800682044414920
:104DF000086041484D49098808444149096888428A
:104E000002D13D483E49086039480068394909687F
:104E100088420AD149484A49097830F81100A0422D
:104E200003D101203149086002E000202F490860C9
:104E300000BF92E710B5384800683649401A424929
:104E40000988081A3D493E4A127831F81210884202
:104E500017DB314801683D48007800F070FA0446DD
:104E60002D48006820442C4908602848006898B103
:104E70002548007880B925480068401E234908600D
:104E80000AE00120224908601F48007820B11F482D
:104E90000068401C1D49086010BD10B51948007815
:104EA000B8B91D4800681D490968884211D11A48DF
:104EB0000068184988420CD0012012490870154832
:104EC00015490860154908600020114908600D491E
:104ED00008700E480068D8B30A480078C0BB0C4878
:104EE000006836E0A0080020A4080020A8080020E0
:104EF000AC080020B0080020A22D0020B40800203B
:104F0000B8080020BC080020BD080020C008002010
:104F1000C4080020E22D0020C8080020CC08002092
:104F2000D0080020D2080020E02C0020488E000885
:104F3000F7080020222E0020448E0008508E000822
:104F400005090020458E00084A8E0008468E00089C
:104F500015E0A0B9012038490870FFF76BFF002069
:104F6000354908703548006835490968884206D0D7
:104F700032490968324A1268881AFFF79AFD3148A7
:104F8000006890B93048006878B930480068304906
:104F90000968401A09D001202A4908602A49086096
:104FA000FFF7D7FE00202749086010BD704710B5F5
:104FB00004462148007828B126480068401C25494D
:104FC000086010BD01201C49087023490870FFF7D4
:104FD00031FF002020490870174908701748006801
:104FE00017490968884206D014490968144A1268AA
:104FF000881AFFF75EFD00BFE3E710B504461148CD
:10500000006800B110BD01200E490860FFF7A1FE45
:1050100000200C49086000BFF4E710B5044614F006
:10502000040F02D02046FFF7C2FF14F0080F02D091
:105030002046FFF7E2FF10BDBC080020C808002092
:10504000CC080020A0080020A4080020AC08002004
:10505000B0080020C0080020BD08002030B500F0D6
:105060000F01FC4B042404FB01331A6810F0800F7D
:1050700008D048F6CF731340F64C042505FB0144D5
:10508000236007E04CF68F731340F24C042505FBB8
:105090000144236030BD70B500F00F02ED4C0425D3
:1050A00005FB0244236810F0800F0BD001F03004A0
:1050B0005C4048F6BF752C40E64D042606FB0255C1
:1050C0002C600AE001F440545C404BF68F752C4094
:1050D000E04D042606FB02552C6070BD1420012112
:1050E000814042094FF0E02303EB8202C2F8001135
:1050F00000BF704700B5D848C06940F40000D649E9
:10510000C861FFF7EBFF00BD10B5044674B1012084
:10511000D0494031086000200860091D08604FF444
:10512000E050091F0860FBF7DDFA05E00320C949DC
:1051300040310860FBF7DCFA10BD0020C54944315E
:105140000860C648006808B1481400E0002040F438
:105150001C40C249096811B14FF4804100E00021B0
:105160000843BF49096811B14FF4007100E0002104
:105170000843BB49096811B14FF4807100E0002178
:105180000843B449403108607020B64908800020C7
:10519000B04950310860B3480088B34909680860D5
:1051A000B04800884030AF49088008460088AE49C2
:1051B00009688860AB4800884030AA49088048F2F6
:1051C000FF70A9490968C8604FF44850A1490860B8
:1051D0008020A0494C31086070479E4840300068EC
:1051E00040F008009B49403108600846006840F0E4
:1051F000040008607047704796484030006820F00F
:1052000008009449403108607047704701B1704709
:1052100040F080028F4B4C331A6000BFF7E730B983
:105220007021904A118011460988803111807047A1
:1052300010B50246937803F00F019088937813F02D
:10524000800F0AD0874B1B88874C246804EB01141D
:105250002360431C23F0010020E0824B1B88824C1A
:10526000246804EB0114A3603E280ED900F11F034B
:1052700023F01F000123C3EB401343F400437A4C97
:10528000246804EB0114E36008E0431C23F00100F0
:105290004302754C246804EB0114E360714B1B88D6
:1052A0000344704C2380D37813F0030306D0012B02
:1052B00007D0022B08D0032B0FD10BE04FF4007066
:1052C0000BE04FF4806008E0002000230BB140F4B5
:1052D000807002E04FF4C06000BF00BF08435D4B28
:1052E000042404FB0133186010BD704710B5044658
:1052F00043F220012046FFF7CEFE10BD10B5044654
:1053000000212046FFF7C7FE10BD10B50446204619
:10531000FFF7A4FE10BD10B5044641F2100120466F
:10532000FFF7B9FE10BD10B504462046FFF796FE04
:1053300043F230012046FFF7AEFE10BD70472DE965
:10534000F04305460C4605F00F064748006800EBA1
:10535000061080684549022202FB00194248006895
:1053600000EB06108089C0F309074FF0000805E044
:1053700039F8041B2180A41C08F10108781CB8EB43
:10538000500FF5D34FF440512846FFF784FE3846BE
:10539000BDE8F0832DE9F04305460C4605F00F0605
:1053A0003148006800EB061080683049022202FB99
:1053B00000192D48006800EB06108089C0F309072A
:1053C0004FF0000805E039F8041B2180A41C08F107
:1053D0000108781CB8EB500FF5D34FF44051284624
:1053E000FFF759FE3846BDE8F0832DE9F047074640
:1053F0000D46144607F00F061B48006800EB061028
:1054000000681A49022202FB001A4FF0000805E06A
:1054100028884AF8040BAD1C08F10108601CB8EBA1
:10542000500FF5D31048006800EB0610446009489F
:10543000042101FB060000681FFA80F909F0300022
:10544000102803D030213846FFF725FE2046BDE85E
:10545000F0870000005C0040001002406C8E0008E5
:10546000688E0008E0080020DC0800200060004092
:105470005F480068C0F30A00704770B55C48001FC1
:10548000046814F4806F0ED0FFF757FE00F001F9A6
:105490005848006810B15748006880476FF4806032
:1054A0005349091F086014F4006F0CD0FFF795FEF4
:1054B0005148006810B15048006880476FF40060A0
:1054C0004B49091F086014F4805F0CD0FFF794FE6D
:1054D0004A48006810B14948006880476FF480501E
:1054E0004349091F086014F4007F0AD0444800684B
:1054F00010B14348006880476FF400703C49091FB1
:10550000086014F4804F0BD03E48006818B10220A8
:105510003C49096888476FF480403549091F086095
:1055200014F4005F0BD03748006818B101203549EA
:10553000096888476FF400502D49091F086014F46A
:10554000807F04D06FF480702949091F08602848C3
:10555000001F0068044610F4004F43D06FF4004071
:105560002349091F086004F00F0521484838042129
:1055700001FB0500066816F4004F19D0224850F8C8
:10558000250050B116F4006F01D0022200E0042281
:1055900010461D4A52F82510884726F4004048F668
:1055A0008F71084012494839042202FB0511086036
:1055B00016F0800F16D0144850F8250028B1124874
:1055C00050F825100820884701E000BFFEE726F0CC
:1055D000800048F68F71084005494839042202FBD3
:1055E0000511086070BD10B5FFF747FF10BD000042
:1055F000485C0040588E00085C8E0008608E0008F1
:10560000688E00086C8E0008708E0008FEF782BC61
:10561000704700207047002070470020704700202E
:10562000704700207047002070470020704700201E
:10563000704700207047002070470020704700200E
:105640007047FFF782BB10B5FEF78BFCBDE810403A
:10565000FFF723BC7047002070470020704710B54B
:10566000FEF7CCFDBDE81040FFF736BA70470000EA
:1056700010B50020E3490870FFF7F1FFFFF7F6FFD0
:10568000FFF738FD10BD10B504462046FFF73CFD7E
:1056900010BDDD480078DD4908800020DC49087035
:1056A000DC4908704FF00110DB4908600020DB493D
:1056B0000860DB4908607047D648007808B10120CF
:1056C00070470020FCE710B5D6490020FFF737FEF1
:1056D00010BD10B5D4488088D4490978884202DDCD
:1056E000D248047801E0D048848814B90020D04919
:1056F0000870CD48224601688020FFF776FE0446F8
:10570000C94800682044C849086008468088001BD2
:10571000888010BD10B5C44801680020FFF70FFE57
:105720000446C14800682044BF4908600846808894
:10573000001B888010BD10B5002211468020FFF7A5
:1057400054FE10BD10B5BB490020FFF7F8FD10BD99
:1057500010B5044614F0020F70D0FFF7B4FFB14942
:105760000978C809FFF7C1FDAE48C088AE498880F6
:10577000AC480078C0F3411010B1012875D1A9E000
:10578000A84840780C2871D2DFE800F0060DA11B74
:10579000A129464D4E62719403F09EF800B9B5E020
:1057A000FFF797FF94E0002003F0F6F800B9ADE0B2
:1057B000FFF7C1FFA048006810B19F48006880470C
:1057C00086E0012003F0E8F800B99FE0FFF7B3FF9F
:1057D0009948006810B198480068804778E000BF99
:1057E0009048007810F01F0F06D18E48807840F066
:1057F00080008749087001E0002001E000BF01201F
:1058000000B983E08249097801F07F000121FFF7A8
:10581000FDFCFFF790FF5BE002F07CFF00B975E054
:10582000FFF757FF54E071E000BF7E48007810F0AA
:105830001F0F04D177487C49086002E079E000201E
:1058400001E000BF012000B960E0FFF742FF3FE048
:1058500003F01AF900B959E0FFF76DFF77480068C7
:1058600010B176480068804732E04EE02FE000BF7C
:105870006C48007800F01F00012812D165480078BC
:1058800060B1684800796E490978884206DA65484F
:1058900000796C4908446449086001E0002004E094
:1058A00001E0002001E000BF012000B92EE0FFF779
:1058B00010FF0DE003F0DAF900B927E0FFF73BFF36
:1058C0006148006810B160480068804700E01DE052
:1058D00000BF2DE05348007810F01F0004D00128CD
:1058E00003D002280FD10DE010E0FEF7EFF800B171
:1058F0000AE0FFF78EFE00B106E0FEF73DFE00B1C4
:1059000002E003E002E001E012E000BF4548007859
:10591000C00906D14348C08818B10020FFF7FBFC3E
:1059200002E08020FFF7F7FC00203F49888000BF9D
:1059300000BF14F0040F36D03A480078C00930D1C7
:105940003948808860B3FFF7E5FE3748808838BB68
:1059500034480078C0F3411010B1012818D100E09C
:1059600017E03048007810F01F0004D0012803D061
:1059700002280BD109E00CE0FEF70CF900B106E0BB
:10598000FEF770FE00B102E003E002E001E007E094
:1059900000BF8020FFF7BFFC00202349888000BFA4
:1059A00001E0FFF7CFFE14F0080F1ED01D4800786D
:1059B0000121B1EBD01F08D11B48808810B91C48C9
:1059C000007890B1FFF785FE0FE01148007810F0E5
:1059D000800F0AD00E48007800F07F000C49087054
:1059E00000210B480078FFF711FC14F0400F02D0A3
:1059F0000020FFF798FC14F0800F02D08020FFF702
:105A000092FC10BD05090020208E0008F40800203B
:105A1000F6080020F7080020F8080020FC08002005
:105A2000000900201009002008090020258E000828
:105A300006090020E02C0020B88E0008B08E000877
:105A400004090020E8080020B48E000870B5044660
:105A50000E462EB14FF48041FE4800F042FC04E0B7
:105A60004FF48041FB4800F03EFC4FF48051F94870
:105A700000F039FC00251BE04FF40051F54800F020
:105A800032FC14F0800F05D04FF40041F14800F0D3
:105A900028FC04E04FF40041EE4800F024FC4FF4F1
:105AA0000051EC4800F01DFC6006040E681CC5B2F5
:105AB000082DE1DB4FF48051E64800F012FC4FF472
:105AC0008041E44800F00DFC70BD70B504460D4601
:105AD00005F1B001C8B20021FFF7B8FF102141EA7B
