:020000040800F2
:1000000038320020E9860008F1860008E10B00087C
:10001000F5860008F7860008F98600080000000051
:10002000000000000000000000000000FB86000847
:10003000FD86000800000000FF8600080187000818
:100040000387000803870008038700080387000868
:100050000387000803870008038700080387000858
:100060000387000803870008038700080387000848
:100070000387000803870008038700080387000838
:100080000387000803870008038700080387000828
:100090003517000803870008038700080387000856
:1000A0000387000803870008038700080387000808
:1000B00003870008038700080387000803870008F8
:1000C00003870008038700080387000803870008E8
:1000D000038700087B1B00080387000803870008CC
:1000E00003870008038700080387000803870008C8
:1000F00003870008038700080387000803870008B8
:1001000003870008038700080387000803870008A7
:100110000387000803870008038700080387000897
:100120000387000803870008038700080387000887
:10013000DFF80CD008F0FCFA004800471F03000865
:100140003832002010B5002400F048FBFA4800685F
:1001500038B1F948F9490860084600680168F8486C
:10016000884707F047FC012007F04FFC322000F0E1
:10017000DBFB002400BF07F061FC28B92046641CAB
:1001800040F6FF718842F6D340F6FE70844203D3F6
:100190000020EC49087002E00120EA49087010BD17
:1001A00010B504F0ADFCE8A20021084604F04AFDB9
:1001B000E9A20221002004F045FDE9A2042100206B
:1001C00004F040FDE8A20621002004F03BFD10BD34
:1001D00010B5E74804F06CFEE64804F069FEE64816
:1001E00004F066FEE54804F063FEE54804F060FEB6
:1001F000E44804F05DFEE448806940F00D00E24907
:1002000088610121E14804F082FF00F09DFB00F0CD
:100210000CFC00F0BEFB04F0A0FD00F01BFE00F0A3
:1002200067FD00F0B4FA00F0D9FA00F0A1FA10BDB1
:1002300008B500BF01F01CF8FFF7CAFF00F0D4FAC0
:10024000FFF7AEFFFFF77EFF32224FF4FA614FF463
:10025000E15000F018FC00F03BFE5FE0002400F0ED
:10026000ACFD0446601C11D010200090C848B0F9C5
:1002700000200B230221282004F0A2FC10200323DD
:10028000224600210090682004F09AFC00F0D8FC7F
:10029000C04909680844BF490860BF480068096848
:1002A000884206D0BB480068BB4908600020BB49B3
:1002B0000860BA4801680068401CB84A10606429A8
:1002C0000BDD00201146086010200B230090B14880
:1002D00004210268282004F073FC00F0B9FCB04946
:1002E00009680844AE49086010200B2300900846B6
:1002F00006210268282004F063FCA6480068A9498A
:10030000884202DD0020A3490860A5480068A5498D
:10031000884202DD0020A249086000BF9EE7FFF787
:1003200087FF08B5002400F0A3FFFFF751FF00F09E
:100330005BFA9DA20221002004F084FC4FF47A7045
:1003400000F0F2FA00F04AFA00F01DFA7A4800686C
:1003500038B17948794908600846006801687848EA
:10036000884732224FF47A714FF4E15000F08BFB52
:1003700091A20221002004F065FC07F03BFB012064
:1003800007F043FB322000F0CFFA00208F490860CD
:10039000002407E01020034622460421009000209C
:1003A00004F00EFC07F04AFB28B92046641C40F616
:1003B000FF718842EED340F6FE70844207D30020DE
:1003C0006049087082A2022104F03CFC07E0012091
:1003D0005C49087083A20221002004F033FC4FF432
:1003E0007A7000F0A1FA00BF00F0AEFA00F0CBF98D
:1003F00000207649086080488049086056A20221A2
:10040000002004F01FFC10200B230022022100908A
:10041000282004F0D5FB52A20421002004F012FC95
:1004200051A20621002004F00DFC32224FF4FA61A3
:100430004FF4E15000F027FB00F04AFD3CE00025BE
:1004400000F0BBFC0546681C11D0102000905048FD
:10045000B0F900200B230221282004F0B1FB10206A
:1004600003232A4600210090682004F0A9FB3548A8
:10047000007801281FD100F0E3FB464909680844D1
:100480004449086010200B230090084604210268AC
:10049000282004F095FB00F0DBFB41490968084483
:1004A0003F49086010200B2300900846062102688F
:1004B000282004F085FB00BFC1E710B504F0A4FEBE
:1004C0004FF4803004F0C0FE04F0FDFE0446012C21
:1004D00024D1102005F082FA022005F06BFA0020EA
:1004E00004F037FF002004F046FFA00204F03AFFBA
:1004F0004FF4E011200404F00FFF012004F018FF76
:1005000000BF392004F0C3FE0028FAD0022004F016
:1005100012FF00BF04F018FF0828FBD110BD10B572
:1005200000F022F900F02FF9002007F06EFA07F032
:1005300072FA00F055FB10BD4C9A0008000800202C
:10054000848E000824080020434D5349532D444114
:10055000503A535744000000564241543A000000BC
:10056000484944203A000000554152543A000000E6
:1005700000080140000C014000100140001401403F
:1005800000180140001C0140001002400002300031
:100590003C080020080800200C080020100800205B
:1005A000040800203F420F0053544D33325F434450
:1005B00043204D6F64656C0055534220436F6E6E4F
:1005C00065637474696E672E2E2E00002808002063
:1005D00055534220556E636F6E6E65637420202004
:1005E0000000000055534220436F6E6E65637465D2
:1005F0006420202000000000400D03002C08002093
:1006000010B500F04DFC10F0010F05D04D4800680A
:10061000401C4C49086009E000204A4908604A48EB
:10062000007800F0FE0040B24749087000F038FC46
:1006300000F00200022805D144480068401C4349EC
:10064000086009E00020414908603F48007800F058
:10065000FD0040B23C4908703A480068B0F5206F90
:1006600012DB3948007810F0010F0DD1364890F9AF
:10067000000040F001003449087032224FF47A71D2
:100680004FF4E15000F0FFF930480068FF2818DD12
:100690002D48007800F00200022812D02A4890F974
:1006A000000040F00200284908705F2242F21071F9
:1006B0004FF4E15000F0E7F925A20221002004F0F8
:1006C000C1FA10BD08B52448007801281FD100F0F8
:1006D000B7FA2249096808442049086010200B2312
:1006E0000090084604210268282004F069FA00F00E
:1006F000AFFA1B49096808441949086010200B2308
:100700000090084606210268282004F059FA08BD26
:1007100038B5002400F051FB0446601C11D01020B5
:1007200000901048B0F900200B230221282004F08B
:1007300047FA10200323224600210090682004F08D
:100740003FFA38BD140800201C08002018080020BB
:1007500046554C4C3A0000002408002008080020B0
:10076000040800203C0800200020FA490860704777
:100770000120F84908607047F748006880F01000D1
:10078000F549086070470020F24908607047012071
:10079000F04908607047F048006880F01000EE49AA
:1007A0000860704700B5024612F0010F02D0FFF753
:1007B000DBFF01E0FFF7DCFF00BD00B5024612F0F1
:1007C000010F02D0FFF7DFFF01E0FFF7E0FF00BD00
:1007D0004FF40040E049091D086070474FF40040A5
:1007E000DD490831086070474FF48060DB490860DC
:1007F00070474FF48060D949091D08607047D6489A
:100800000068C0F3C00070470820D349091D086084
:1008100070470820D049083108607047CE48001F53
:100820000068C0F3800070470420CB49091D0860B0
:100830007047C948001F006810F0040F01D0012064
:1008400070470020FCE7C4480C38006820F4706052
:1008500040F44070C0490C3908607047BE480C38FD
:10086000006820F4706040F40060BB490C390860F7
:100870007047B9480C38006820F4704040F440508C
:10088000B5490C3908607047B3480C38006820F44B
:10089000704040F40040B0490C3908607047AF48E0
:1008A000001F00680020704710F0010F03D00021E6
:1008B000AA4A116003E00021A84A121D1160704786
:1008C000A64808380068002070470020704770472D
:1008D000A2480838006810F0010F01D001207047CD
:1008E0000020FCE710F0010F03D000219B4A1160AB
:1008F00003E00021994A121D116070479748103893
:10090000006820F00F00C01D94491039086070473E
:1009100092481038006820F00F00001D8F491039F0
:1009200008607047002070478D4909684FF47A725B
:10093000B1FBF2F1891C0622B1FBF2F1484300BF82
:10094000411E0800FCD170471CB586480068019024
:100950008448001D006800908348806940F00400CE
:10096000814988610121052004F0B8FD10207A49F1
:100970000831086001A978480C3804F0F9FA102011
:10098000754908310860694673480C3804F0F0FA7C
:100990001CBD1CB57348083000680090FFF71EFFAF
:1009A0007148806940F004006F49886169466A486F
:1009B0000C3804F0DDFAFFF711FF0121052004F0E7
:1009C0008DFD0121694804F0A2FB4FF40040ADF811
:1009D000040003208DF8060010208DF8070001A9FF
:1009E0005D480C3804F0C4FAFFF7F8FE1CBD1CB5D6
:1009F0005C480C30006801905A4810300068009044
:100A00000C205549091D086001205449091D086042
:100A1000FFF77EFF01A95148103804F0A9FA694692
:100A20004D480C3804F0A4FA1CBD08B54D481430EC
:100A3000006800900C204849091D086001204749C2
:100A4000091D0860694644480C3804F091FAFFF724
:100A5000EBFE002046490860FFF75AFF08BD1CB5B1
:100A600040481830006801903E481C3000680090F3
:100A700001A939480C3804F07BFA69463748103828
:100A800004F076FA1CBD70B588B006460C461546D3
:100A90000121052004F022FD0121084604F02BFD70
:100AA0000120ADF81C0003208DF81E0018208DF8E1
:100AB0001F0007A928480C3804F05AFA701E80B2AB
:100AC000ADF81000601E80B2ADF814000020ADF843
:100AD0001600ADF8120004A94FF0804005F01CFB91
:100AE0000121880705F074FF0121880705F070FED9
:100AF0000121880706F032F90121880705F068FE18
:100B00006020ADF800004FF08040808D6843642184
:100B100090FBF1F080B2ADF806000020ADF80800BF
:100B20000120ADF802006946800705F032FB012183
:100B3000880705F059FE0821C80605F079FF012154
:100B4000880705F045FF0121880705F041FE08B040
:100B500070BD0000900121420C080140100C0140C2
:100B6000500800208C8E0008001002400002300067
:100B70008C01214270B5002400F0D9FF054615F024
:100B8000040F01D044F0400415F0020F01D044F0EE
:100B9000400415F0010F01D044F0100400F0C5FF2F
:100BA000054615F0080F01D044F0080415F0040FB5
:100BB00001D044F0020415F0020F01D044F001040A
:100BC00000F0D8FF08B144F004041A4800686040FF
:100BD00005D0A0B206F063FD08B11648046070BDF0
:100BE000FFF7B2FE002312E0FFF7CDFDFA20FFF77A
:100BF0009BFEFFF7CCFDFFF7B7FDFA20FFF794FE51
:100C0000FFF7B6FD4FF47A70FFF78EFE5B1C052BE5
:100C1000EADB00BFBFF34F8F0748006800F4E060D5
:100C200006490843001D04490860BFF34F8F00BF09
:100C300000BFFEE7300800200CED00E00000FA05E0
:100C400010B501F077F908B1012010BD0020FCE7D4
:100C500010B50024FFF78EFF23480068401C03D125
:100C600006F00AFD204908601F480068401C0BD0B0
:100C700001241D49087800F043FF1B490968884298
:100C800002D1A01E1849086018480068401C0BD00B
:100C90001649087806F0C3FC14490968884203D154
:100CA0004FF0FF301149086010480068401C03D124
:100CB00000F019FF0D490860204610BD10B504462C
:100CC0000A2C02D10D20FFF7F9FF00BF204606F0E5
:100CD000A6FCA042FAD110BD70B504460D46E0B2A4
:100CE000FFF7ECFF204670BD3408002038080020D4
:100CF00000B591B00121082004F0F0FB0121480269
:100D000004F0ECFB0121084604F0DBFB4FF400404B
:100D100004F04BFB0220ADF8400000208DF84300AA
:100D200010A9464804F024F900200B9001208DF80A
:100D300030008DF831004FF460200D9000200E90AF
:100D400001208DF83C000BA93D4806F046F807232A
:100D5000012209213A4806F0D8F80121384806F066
:100D600073F80121364806F064F8364806F036FA82
:100D700033484C300090344801900020029001200C
:100D80000390002004908020059040000690800091
:100D90000790202008900002099000200A906946E0
:100DA000284806F0BDFA0121254806F082F8012105
:100DB000244806F0E0FA11B000BD24480088401C29
:100DC00000B2224908802249B1F900101E4AB2F946
:100DD0000020881800EBD071491009B21C4A11801C
:100DE0001A480088B0F57A7F25D100200021174AE3
:100DF00011801749B1F9001040F69802914200DCC9
:100E000018E01349B1F90010A1F69801642251438A
:100E1000C82291FBF2F1642901DD642109E00C494B
:100E2000B1F90010A1F6980164225143C82291FB48
:100E3000F2F108B270474FF0FF30FBE7000C0140C1
:100E40000024014008000240440800204C08002013
:100E50003C08002008B50121052004F03FFB0121DA
:100E6000184804F054F90220ADF8000048208DF82D
:100E700003000121042004F031FB6946124804F00C
:100E800077F80820ADF8000048208DF80300012114
:100E9000082004F023FB69460C4804F069F808BDFB
:100EA00010B500240221084804F0F3F800B9012429
:100EB0000821064804F0EDF808B944F00204204681
:100EC00010BD00000002300000080140000C01408D
:100ED00000B585B00121052004F000FB0121880345
:100EE00004F009FB0121042004F0F8FA0121042098
:100EF00004F0F4FA0220ADF8000010208DF8030091
:100F000003208DF802006946874804F031F810206C
:100F1000ADF800008DF8030003208DF8020069464B
:100F2000814804F025F84FF40070ADF80000182057
:100F30008DF8030003208DF8020069467A4804F01A
:100F400017F84FF48060ADF8000048208DF80300DA
:100F50006946754804F00CF8744804F027FB4FF418
:100F6000E13001900020ADF80800ADF80A00ADF8BE
:100F70000C000C20ADF80E000020ADF8100001A907
:100F80006A4804F056FB0121684804F0DEFB05B016
:100F900000BD70B54FF4FA74002500206449086064
:100FA0006449C1F890014FF4FA6400BF2000A4F135
:100FB0000104FBD101205E4908605E49C1F890013F
:100FC0004FF4FA6400BF2000A4F10104FBD17F219B
:100FD000564804F027FC00BF8021544804F090FCE0
:100FE0000128F9D111E042F2107400BF2000A4F1F1
:100FF0000104FBD17F214D4804F014FC00BF802187
:101000004A4804F07DFC0128F9D1484804F00EFC60
:10101000792805D028466D1C41F288318842E2D3F8
:101020002021424804F06CFC2021404804F075FC6B
:101030004FF4FA6400203E4908603E49C1F890012F
:1010400000BF2000A4F10104FBD1394908604FF032
:1010500001003849C1F8900170BD70B54FF4FA74C1
:1010600000250020324908603249C1F890014FF450
:10107000FA6400BF2000A4F10104FBD101202C4937
:1010800008602C49C1F890014FF4C87400BF2000DB
:10109000A4F10104FBD11CE04FF47A7400BF2000DE
:1010A000A4F10104FBD10021204804F0BBFB00BFE8
:1010B00080211E4804F024FC0128F9D1FF211B489F
:1010C00004F0B0FB00BF8021184804F019FC01288F
:1010D000F9D1164804F0AAFB792805D028466D1CE2
:1010E00041F288318842D7D34FF4FA640020104986
:1010F00008601049C1F8900100BF2000A4F101046C
:10110000FBD10B4908604FF001000A49C1F890017A
:1011100070BD7047704770477047704770477047A1
:101120007047704770477047000801400038014021
:10113000840121420000214208B50020009070483F
:10114000006840F480306E49086000BF6C48006859
:1011500010F4003F03D10098B0F5A06FF6D16848B5
:10116000006810F4003F08D16548006820F4803022
:10117000634908600120009001E000200090614870
:10118000006840F010005F4908600846006820F0E1
:10119000030008600846006840F0020008605848F4
:1011A00040685749486008464068486008464068BB
:1011B00040F4806048600846406820F47C10486035
:1011C000009828B10846406840F4D000486005E027
:1011D0004B48406840F4E810494948604848006876
:1011E00040F080704649086000BF4548006810F034
:1011F000007FFAD04248406820F003004049486030
:101200000846406840F00200486000BF3C48406823
:1012100000F00C000828F9D108BD10B5FFF78CFFCD
:1012200010BD10B53648006840F001003449086030
:10123000084640683449084031494860084600681B
:10124000324908402E4908600846006820F4802092
:1012500008600846406820F4FE0048604FF41F0014
:101260008860FFF7DAFF4FF000602949086010BD81
:1012700010B5002100200022214B5B6803F00C0117
:1012800021B1042906D0082928D107E0214B224C9E
:10129000236027E01F4B204C236023E0184B5B6842
:1012A00003F47010164B5B6803F48032022303EBE7
:1012B000904022B9194B4343174C23600DE0104B6B
:1012C0005B6813F4003F04D0144B4343124C23607B
:1012D00003E0104B4343104C236003E00D4B0E4CD6
:1012E000236000BF00BF064B5B68C3F303130C4CC5
:1012F000E15C094B1B68CB40074C236010BD00002C
:1013000000100240002002400000FFF8FFFFF6FE40
:1013100008ED00E000127A005008002000093D00AE
:101320005408002007F06CB8704700207047002078
:101330007047002070470020704700207047002051
:101340007047002070470020704700207047002041
:101350007047002070470020704706F0C2B910B5F2
:1013600007F075F8BDE8104006F063BA704700203A
:1013700070470020704710B500F084FCBDE81040B5
:1013800006F076B87047000030B500F00F01FE4B54
:10139000042404FB01331A6810F0800F08D048F6CB
:1013A000CF731340F84C042505FB0144236007E08C
:1013B0004CF68F731340F44C042505FB0144236065
:1013C00030BD70B500F00F02EF4C042505FB024460
:1013D000236810F0800F0BD001F030045C4048F619
:1013E000BF752C40E84D042606FB02552C600AE030
:1013F00001F440545C404BF68F752C40E24D0426BE
:1014000006FB02552C6070BD142001218140420969
:101410004FF0E02303EB8202C2F8001100BF7047D7
:1014200000B5DA48C06940F40000D849C861FFF748
:10143000EBFF00BD10B5044674B10120D249403124
:10144000086000200860091D08604FF4E050091F83
:101450000860FFF7BDF905E00320CB494031086083
:10146000FFF7BCF910BD0020C74944310860C848E7
:10147000006808B1481400E0002040F41C40C44952
:10148000096811B14FF4804100E000210843C149CF
:10149000096811B14FF4007100E000210843BD4913
:1014A000096811B14FF4807100E000210843B6498A
:1014B000403108604020B84908800020B2495031CE
:1014C0000860B5480088B54909680860B2480088D6
:1014D0004030B149088008460088B04909688860F2
:1014E000AD4800884030AC49088048F2FF70AB49F5
:1014F0000968C8604FF44850A34908608020A24999
:101500004C3108607047A0484030006840F0080047
:101510009D49403108600846006840F004000860BA
:101520007047704798484030006820F0080096499E
:10153000403108607047704701B1704740F0800249
:10154000914B4C331A6000BFF7E730B94021924A03
:1015500011801146098880311180704710B502460C
:10156000937803F00F019088937813F0800F0AD0DE
:10157000894B1B88894C246804EB01142360431CAD
:1015800023F0010020E0844B1B88844C246804EB8A
:101590000114A3603E280ED900F11F0323F01F00A1
:1015A0000123C3EB401343F400437C4C246804EB59
:1015B0000114E36008E0431C23F001004302774C70
:1015C000246804EB0114E360734B1B880344724CE2
:1015D0002380D37813F0030306D0012B07D0022B0E
:1015E00008D0032B0FD10BE04FF400700BE04FF449
:1015F000806008E0002000230BB140F4807002E01E
:101600004FF4C06000BF00BF08435F4B042404FBDD
:101610000133186010BD704710B5044643F2200135
:101620002046FFF7CEFE10BD10B50446002120462F
:10163000FFF7C7FE10BD10B504462046FFF7A4FE15
:1016400010BD10B5044641F210012046FFF7B9FE67
:1016500010BD10B504462046FFF796FE43F2300158
:101660002046FFF7AEFE10BD70472DE9F04305465A
:101670000C4605F00F064948006800EB061080682C
:101680004749022202FB00194448006800EB06109B
:101690008089C0F309074FF0000805E039F8041B02
:1016A0002180A41C08F10108781CB8EB500FF5D379
:1016B0004FF440512846FFF784FE3846BDE8F083DA
:1016C0002DE9F04707460D46144607F00F0633484C
:1016D000006800EB061000683149022202FB001A84
:1016E0004FF0000805E028884AF8040BAD1C08F10B
:1016F0000108601CB8EB500FF5D32848006800EBD8
:10170000061044602048042101FB060000681FFA0F
:1017100080F909F03000102803D030213846FFF757
:1017200050FE2046BDE8F087174848300068C0F3F7
:101730000A00704770B514484430046814F4806F90
:101740000ED0FFF790FE06F066F91648006810B15B
:101750001448006880476FF480600B49443108608A
:1017600014F4006F0CD0FFF7CEFE0F48006810B1E4
:101770000D48006880476FF40060034944310860F9
:1017800014F4805F1ED011E0005C004000100240A5
:10179000F88E0008F48E00087808002074080020F5
:1017A00000600040E48E0008E88E0008FFF7BAFEF3
:1017B0004148006810B14048006880476FF480508D
:1017C0003E49086014F4007F09D03D48006810B11C
:1017D0003B48006880476FF400703849086014F493
:1017E000804F0AD03748006818B10220354909688F
:1017F00088476FF480403149086014F4005F0AD0D4
:101800003048006818B101202E49096888476FF4F4
:1018100000502A49086014F4807F03D06FF4807070
:101820002649086025480068044610F4004F42D05D
:101830006FF400402149086004F00F051F48443848
:10184000042101FB0500066816F4004F19D026F4A8
:10185000004048F68F71084018494439042202FBC1
:1018600005110860184850F8250050B116F4006FB3
:1018700001D0022200E004221046134A52F825103B
:10188000884716F0800F16D026F0800048F68F713A
:1018900008400A494439042202FB051108600A483D
:1018A00050F8250028B1084850F82510082088472E
:1018B00001E000BFFEE770BDEC8E0008445C004014
:1018C000F48E0008F88E0008FC8E000870B50546FE
:1018D000DE4CA879082801D0002070BD0020A0802F
:1018E000687920B1012809D002280BD102E000203C
:1018F000208109E04FF48060208105E04FF4C06052
:10190000208101E00020E8E700BF287920B101280C
:1019100009D002280BD102E00020E08009E04FF45A
:101920000050E08005E04FF44050E08001E00020EE
:10193000D3E700BF2879C6490871A879887168790A
:10194000487128680860286820600C2060810020A9
:10195000A0812146BF4803F06CFE012240F22551D0
:10196000BC4803F0FEFE0121BA4803F0EEFE012060
:10197000B3E710B5252000F01F0201219140B64ABF
:10198000430942F8231000BF0020B4490860B4495D
:101990000860AF49087108208871002048714FF431
:1019A000E13008600846FFF791FF252000F01F0294
:1019B0000121914042094FF0E02303EB8202C2F87B
:1019C000001100BF012010BD10B50121084603F031
:1019D00085FD0121880303F081FDFFF7CAFFA149BE
:1019E000A14803F0C5FAA1499F4803F0C1FA0120BC
:1019F00010BD10B500214FF4804003F06FFD9C49ED
:101A0000994803F0B5FA9B49974803F0B1FA0120D1
:101A100010BD10B5FFF7ADFF10BD01468C48007931
:101A200008718B4880798871894840794871884865
:101A300000680860012070470146012070472DE9C9
:101A4000F04104460D4600261BE0681E85B28A4818
:101A500080888949C988401A0FFA80F8B8F1FF0FC9
:101A60000FDC8548078814F8011B0830C155781C25
:101A7000C7B2814807808088401C00B27E498880B8
:101A8000761C002DE1D12EB1012240F22771714860
:101A900003F067FE3046BDE8F08130B50246002015
:101AA0001EE04B1E99B2754BB3F90430734CB4F978
:101AB0000640A34214D0714C63885C1C6F4D6C804F
:101AC00005F10804E45C02F8014B2B465B88DBB2AD
:101AD0002C4663802346DB885B1C1BB2E380401CE2
:101AE0000029DED130BD08B501216846FFF7D5FFDA
:101AF000012802D19DF8000008BD4FF0FF30FBE740
:101B000001B501216846FFF79AFF012802D19DF82F
:101B1000000008BD4FF0FF30FBE75848B0F9040063
:101B20005649B1F90610401A70470020704700204E
:101B30005349097811F0010F01D040F002005049DB
:101B4000097811F0040F01D040F0040044490968FD
:101B500031B94B49097811F0020F01D040F0020071
:101B6000704710B501203D4908603A4803F063FE14
:101B7000012010BD3A480068704770B535480088AC
:101B80003F49086040F22551324803F0CFFE50B380
:101B90003A4880883949C988401A05B2FF2D22DCAD
:101BA0002C4803F043FEC4B234490888411C334A30
:101BB000118002F108010C5444B90221254803F0B8
:101BC0009FFE18B101202649086002E00020244948
:101BD00008602A480088C0B22849088008468088E2
:101BE000401C00B2888040F227711A4803F09EFE24
:101BF00020B31A480068012803D1164803F01BFEE1
:101C000023E01D48B0F904001B49B1F906108842D1
:101C100015D019484688701C174A508002F10800F8
:101C2000815D0C4803F0FEFD13484088C0B21249A4
:101C300048800846C088401C00B2C88005E00022E9
:101C400040F22771034803F08CFD70BDE80D0020C1
:101C5000880800200038014080E100E08008002072
:101C600084080020E091000800080140E491000889
:101C7000E8910008EC910008D80B0020E00C00204F
:101C80007C0800200020D1490870D1490860D14962
:101C900008600120D04908700020D0490870D04960
:101CA0000860D049086070472DE9F04104460F46AE
:101CB00015461E46012C02D0032C38D136E026B141
:101CC000012E04D0022E2FD100E000BF2CE0C54829
:101CD0000068C3490968884202D1C0480078F8B159
:101CE000C148C04A126800EB82114022284606F023
:101CF0000DFDBC480068401CBA49086008460068F1
:101D0000402801D100200860B6480068B44909683D
:101D1000884202D10020B14908704020BDE8F0811E
:101D20000120AD49087000BF00BF00E000BF00BF48
:101D30000020F3E72DE9F0410646884614461D468B
:101D4000069F022E02D0032E36D134E005B933E0CF
:101D50002078072807D1A548006818B1A349096869
:101D60008868804728E09948007830B19848006832
:101D700098490968884200D11EE09D49944A12683A
:101D800001EB82102A46214606F0C0FC904800680C
:101D9000401C8F49086008460068402801D1002097
:101DA00008608B4800688B490968884202D101208D
:101DB0008649087000E000BF00BFBDE8F0812DE952
:101DC000F04704460D464FF0FF0A2078D0286EDB1E
:101DD0002078D7286BDC207805F8010B14F8010B6C
:101DE000D038082872D2DFE800F004121518213329
:101DF00056728048076805F8017B380A05F8010B20
:101E0000380C05F8010B380E05F8010B74E003F0EF
:101E1000F0FD71E003F0F9FD6EE02768384603F04D
:101E20002DFE042801D04FF0FF0A65E0D4F80080B1
:101E3000A68806E018F8011BFF2902D04FF0FF0A20
:101E400004E03000A6F101018EB2F3D100BF53E0EF
:101E50002768A688382E02DD4FF0FF0A1AE0A41D7D
:101E600012E014F8019B2EB114F8011B49EA012974
:101E7000701E86B24946384603F003FF042802D09C
:101E80004FF0FF0A05E0BF1C3000A6F101018EB241
:101E9000E7D100BF30E0D4F80080A6883E2E02DDF6
:101EA0004FF0FF0A11E0002005F8010B08E027E0E1
:101EB00016B998F800A003E018F8010B05F8010B1B
:101EC0003000A6F101018EB2F2D115E010E000BFA2
:101ED000BFF34F8F4848006800F4E060474908436B
:101EE000001D45490860BFF34F8F00BF00BFFEE7EC
:101EF0006D1E4FF0FF0A00BF00BF85F800A017E07D
:101F00003A48006890B1384BDFF8D4C0DCF800C024
:101F100003EB8C11364BDFF8BCC0DCF800C003EBE0
:101F20008C10324B1B685A68904701E0FF202870E4
:101F3000BDE8F08710B52748006825490968884240
:101F400003D12248007800283DD0274A244B1B6843
:101F500002EB8311264A1F4B1B6802EB8310FFF72D
:101F60002EFF1C480068441C402C00D10024194856
:101F70000460006816490968884202D100201349AC
:101F800008701548007860B10020134908701648A1
:101F9000134A126800EB82114022002006F03DFB3C
:101FA0000FE00F480068441C402C00D100240C486E
:101FB000046000680B490968884202D10120074982
:101FC0000870012010BD0020FCE7000090080020F0
:101FD00094080020980800209C0800209D080020FC
:101FE000A0080020A4080020F81D00200008002000
:101FF000F80D0020002004E00CED00E00000FA05E0
:1020000010B504460448046001F089F810BD0120B1
:102010000249087070470000A8080020AC080020A2
:1020200002460020052A1AD008DC012A0FD0022A15
:102030000ED0032A0DD0042A21D10BE0062A0FD09E
:10204000F02A0ED0FE2A16D0FF2A18D10DE016E095
:1020500015E014E0F94B1B680B6004200FE00EE064
:102060000DE003230B70012009E040230B700023D7
:102070004B70022003E040230B70012000BF00BF23
:10208000704708B5EE4909684FF47A72B1FBF2F176
:10209000891C0322B1FBF2F148430146009100BFC5
:1020A00000BF009A521E0092FBD100BF08BD18B5B8
:1020B00002460B461078547840EA0421E048006854
:1020C000E04CB0FBF4F0801C0324B0FBF4F041437F
:1020D0000846009000BF00BF009C641E0094FBD126
:1020E00000BF00201870012018BD70B504460D46D1
:1020F000207810B1012810D107E0627802F00100C9
:10210000D14A1268116888470BE0627802F001003A
:10211000CD4A12685168884703E0FF2028700120EB
:1021200070BD00BF002028700120F9E770B5064699
:102130000D46307808B9012400E03478012C02D033
:10214000022C0CD105E00120C0490870FEF76DFC9F
:1021500009E00220BD490870FEF749FC03E00020B9
:102160002870012070BD00BF2C700120FAE710B567
:1021700004460020B5490870FEF771FC002020706D
:10218000012010BD10B50446FEF7CCFB60700020A6
:102190002070022010BD2DE9F04706468846002435
:1021A0000025002734787578B078F17840EA01206E
:1021B000317940EA0140717940EA016715F0010F79
:1021C00007D014F0010F02D0FEF71EFB01E0FEF76E
:1021D00020FB15F0020F08D014F0020F02D0FEF71A
:1021E00023FB02E000209A49086015F0040F02D09A
:1021F000A010FEF759FB15F0200F02D06011FEF77A
:1022000066FB15F0800F02D0E011FEF76BFB002F8C
:1022100052D09048874200D9074600BF00204FF0B7
:10222000E02188618648006878438649B0FBF1F078
:102230004FF0E02148610520086100BF00BF15F0A4
:10224000010F04D0FEF7DBFA604000D024E015F067
:10225000020F05D0FEF7E2FA90EA640000D01BE01E
:1022600015F0040F05D0FEF71AFB90EAA40000D089
:1022700012E015F0200F05D0FEF727FB90EA64105E
:1022800000D009E015F0800F05D0FEF721FB90EAA1
:10229000E41000D000E007E000BF4FF0E02000694C
:1022A000C0F300400028CAD000BF00BF00204FF09C
:1022B000E021086100BF00BFFEF7A1FA8146FEF7EA
:1022C000ADFA49EA4009FEF7EAFA49EA8009FEF761
:1022D000F7FA49EAC009FEF7F8FA49EA4019FEF7A9
:1022E000F7FA49EAC010C4B288F800400120BDE8FE
:1022F000F08730B502460C461078557840EA052044
:10230000957840EA0540D57840EA05631BB9FF207F
:102310002070012030BD4A480068B3EB900F04D311
:1023200001204A4D6870686014E00020474D6870D5
:10233000581E434D2D6800EB5500B0FBF3F1022908
:1023400005D9891E881C0325B0FBF5F100E00121A9
:102350003E484160002020700120DBE770B5044654
:102360000D4614F8016B0EB94FF4807621463046C5
:1023700000F0EEFE00202870012070BD10B502466E
:10238000137803F00300401C304C2075C3F3800425
:102390002E48447500200870012010BD38B5044651
:1023A0000D462A480078012803D0FF20287001201C
:1023B00038BD6078A17840EA0120E17840EA014028
:1023C000217940EA016000906946002000F0F4FEA7
:1023D000002028700120EBE72DE9F04704460D4668
:1023E000002005F8010B4FF0010814F8019B12E0E2
:1023F00014F8017B2A462146384601F03FFA07F0DF
:102400003F0606B94026F01DC608344417F0800F79
:1024100001D03544B0445FEA0900A9F10109E7D1D0
:102420004046BDE8F087F0B502460E4612F8013B83
:10243000064883750025002117E00000F091000890
:102440005008002040420F00A8080020F82D00206E
:1024500088012142C0C62D0012F8014BFE484454A9
:10246000083020F811502544491C9942F4D300212A
:1024700007E0F948405C2D1AF748183020F8115051
:10248000491C9942F5D3002030700120F0BD70B591
:1024900006460C46F04818380078022804D000BFE1
:1024A000FF202070012070BD3178EB481838C175CD
:1024B000C07DE9491839897D884200DBF0E70E20AC
:1024C00002F08BFA02F015F80546002020706570C6
:1024D000280AA070280CE070280E20710520E2E781
:1024E00070B504460D46DC4818380078022804D040
:1024F00000BFFF202870012070BD2178D648183811
:10250000C175C07DD4491839897D884200DBF0E768
:10251000082002F062FA6078A17840EA0120E178B0
:1025200040EA0140217940EA0166304602F0C7F8EE
:10253000002028700120DFE702461078C64B183BC8
:1025400018725078937840EA0323C34818384381BF
:10255000D078137940EA0323BF48183883810020DC
:102560000870012070472DE9F04F85B006460C46F3
:10257000002003900025A146A41CB849087082469B
:102580000290761C16F8010B04904FE116F8018BAF
:1025900018F0020F7ED0BAF1000F3DD0AE481838C7
:1025A000478908F01100012811D100BF6946404653
:1025B00000F002FE0546022D1CD13800A7F10101F2
:1025C0008FB217D0A54800780028EFD012E000BFE6
:1025D00069460E2000F0F0FD0546022D08D13800B6
:1025E000A7F101018FB203D09C4800780028EFD0FA
:1025F0004FF0000A012D00D01FE1009804F8010BF4
:102600000098000A04F8010B0098000C04F8010B74
:102610000098000E04F8010B18F0100F5FD030780E
:10262000717840EA0120B17840EA0140F17840EA4F
:10263000016B361D884818388089019018F0010F09
:1026400016D085481838478900BF0021404600F061
:10265000B3FD0546022D08D13800A7F101018FB264
:1026600003D07E4800780028EFD0012D00D0E4E0B0
:1026700000BF79481838478900BF6946404600F0D6
:102680009BFD0546022D0AD13800A7F101018FB24A
:1026900005D000E069E0714800780028EDD0012DF8
:1026A00000D00FE06C481838006900990840584580
:1026B00008D00198411E89B2019118B1674800788D
:1026C0000028D6D000BF6448183800690099084037
:1026D000584501D045F01005012D43D0ADE05E48CE
:1026E0001838478918F0010F19D0BAF1000F39D105
:1026F00000BF0021404600F05FFD0546022D08D1D5
:102700003800A7F101018FB203D0544800780028A7
:10271000EFD0012D00D090E04FF0010A22E000BF81
:102720006946404600F048FD0546022D08D13800B4
:10273000A7F101018FB203D0484800780028EFD0FC
:10274000012D00D079E0009804F8010B0098000AF0
:1027500004F8010B0098000C04F8010B0098000E1F
:1027600004F8010B0020029058E0BAF1000F27D0C6
:1027700039481838478900BF69460E2000F01CFD13
:102780000546022D08D13800A7F101018FB203D010
:10279000324800780028EFD0012D00D04DE000989D
:1027A00004F8010B0098000A04F8010B0098000CD3
:1027B00004F8010B0098000E04F8010B4FF0000A1A
:1027C0003078717840EA0120B17840EA0140F17830
:1027D00040EA01600090361D18F0200F05D01E4819
:1027E000183800990161012518E01B4818384789FD
:1027F00000BF6946404600F0DFFC0546022D08D1C7
:102800003800A7F101018FB203D0144800780028E6
:10281000EFD0012D00D010E0012002900398401C61
:10282000C0B203900D48007800B106E00498411E44
:10283000C9B2049100287FF4A9AE00BF012D43D195
:10284000BAF1000F2BD004481838478900BF6946F9
:102850000E2000F0B1FC03E0102E0020AC08002098
:102860000546022D08D13800A7F101018FB203D02F
:10287000F94800780028EAD0012D00D025E0009822
:1028800004F8010B0098000A04F8010B0098000CF2
:1028900004F8010B0098000E04F8010B14E00298F4
:1028A00090B1EE48478900BF00210E2000F084FC63
:1028B0000546022D08D13800A7F101018FB203D0DF
:1028C000E54800780028EFD000BF039889F80000A1
:1028D00089F80150A4EB090005B0BDE8F08F2DE99F
:1028E000F04F87B006460C46002005900025A34611
:1028F000A41CD94908708146049016F8011BD748DA
:10290000C175C07DD549897D884200DB99E116F803
:10291000010B069046E116F8017B17F0010F01D07C
:102920000B2000E00A20824617F0020F78D00498AE
:10293000002846D0C948B0F80A80D14514D117F014
:10294000100F11D100BFF8B201A902F053F80546EB
:10295000022D24D15FEA0800A8F101081FD0BE486B
:1029600000780028EFD01AE0B9F10A0F04D04FF038
:102970000A09484602F031F800BF01A90E2002F012
:1029800039F80546022D08D15FEA0800A8F10108D0
:1029900003D0B14800780028EFD000200490012D2A
:1029A00000D005E1019804F8010B0198000A04F831
:1029B000010B0198000C04F8010B0198000E04F8BB
:1029C000010B17F0100F60D03078717840EA0120C9
:1029D000B17840EA0140F17840EA01600390361D89
:1029E0009E4880890290D14503D0D146484601F0E7
:1029F000F4FF9A48B0F80A8000BFF8B2002101F055
:102A0000F9FF0546022D08D15FEA0800A8F1010888
:102A100003D0914800780028EFD0012D01D0C7E005
:102A200056E000BF8D48B0F80A8000BFF8B201A997
:102A300001F0E0FF0546022D08D15FEA0800A8F189
:102A4000010803D0844800780028EFD0012D00D081
:102A50000EE082480069019908400399884207D036
:102A60000298411E029118B17B4800780028D9D005
:102A700000BF7A480069019908400399884201D053
:102A800045F01005012D22D092E0049800281ED1B7
:102A9000D14503D0D146484601F09FFF6F48B0F8BA
:102AA0000A8000BFF8B2002101F0A4FF0546022D04
:102AB00008D15FEA0800A8F1010803D06648007851
:102AC0000028EFD0012D00D072E00120049062E0D8
:102AD000049878B3B9F10A0F04D04FF00A094846B8
:102AE00001F07BFF5D48B0F80A8000BF01A90E200D
:102AF00001F080FF0546022D08D15FEA0800A8F129
:102B0000010803D0544800780028EFD0012D00D0F0
:102B10004EE0019804F8010B0198000A04F8010B3B
:102B20000198000C04F8010B0198000E04F8010B49
:102B3000002004903078717840EA0120B17840EAB2
:102B40000140F17840EA01600190361D17F0200F36
:102B500004D042480199016101251CE0D14503D010
:102B6000D146484601F039FF3C48B0F80A8000BF22
:102B7000F8B201A901F03EFF0546022D08D15FEA37
:102B80000800A8F1010803D0334800780028EFD0EE
:102B9000012D00D00CE00598401C05902E480078CF
:102BA00000B105E00698411E069100287FF4B3AEFF
:102BB00000BF012D44D1B9F10A0F04D04FF00A092A
:102BC000484601F00AFF049830B32448B0F80A8060
:102BD00000BF01A90E2001F00DFF0546022D08D10E
:102BE0005FEA0800A8F1010803D01B48007800281C
:102BF000EFD0012D00D024E0019804F8010B0198DA
:102C0000000A04F8010B0198000C04F8010B01986C
:102C1000000E04F8010B13E01048B0F80A8000BF62
:102C200000210E2001F0E6FE0546022D08D15FEAE4
:102C30000800A8F1010803D0074800780028EFD069
:102C400000BF05988BF800008BF80150A4EB0B0037
:102C500007B0BDE8F08F0000AC080020F82D002080
:102C60002DE9F84F04460D464FF0000B0026A8460C
:102C7000ED1C0020F9490870641C2078617840EA56
:102C8000012AA41CBAF1000F00D194E014F8017BD2
:102C900017F0020F4FD017F0010F16D0F048B0F820
:102CA0000A9000BFF8B2002100F086FA0646022E14
:102CB00008D15FEA0900A9F1010903D0E7480078CB
:102CC0000028EFD0012E00D075E02EE0BAF1000F01
:102CD00003D117F0010F00D00E27E148B0F80A9099
:102CE00000BFF8B2694600F067FA0646022E08D126
:102CF0005FEA0900A9F1010903D0D848007800284B
:102D0000EFD0012E00D056E0009805F8010B009896
:102D1000000A05F8010B0098000C05F8010B00985B
:102D2000000E05F8010B0BF1010B5FEA0A00AAF196
:102D3000010ACBD13EE024E02078617840EA01200E
:102D4000A17840EA0140E17840EA01600090241D4A
:102D5000C348B0F80A9000BFF8B2694600F02CFAF8
:102D60000646022E08D15FEA0900A9F1010903D045
:102D7000BA4800780028EFD0012E00D01BE00BF1FC
:102D8000010B5FEA0A00AAF1010AD5D1B448B0F8F4
:102D90000A9000BF00210E2000F00EFA0646022E17
:102DA00008D15FEA0900A9F1010903D0AB48007816
:102DB0000028EFD000BF88F800B04FEA1B2088F849
:102DC000010088F80260A5EB0800BDE8F88F2DE946
:102DD000FC5F04460D464FF0000B0026A946ED1C93
:102DE00000209E49087014F8011B9D48C175C07DE4
:102DF0009B49897D884200DBADE02078617840EA1C
:102E00000128A41CB8F1000F00D1A4E014F8017B44
:102E100017F0010F01D00B2000E00A20009000986D
:102E200001F0DBFD17F0020F4FD08D48B0F80AA07B
:102E300000BFF8B2002101F0DDFD0646022E08D1E8
:102E40005FEA0A00AAF1010A03D08448007800284A
:102E5000EFD0012E00D07EE031E0B8F1000F06D1B6
:102E600000980A2802D00A2001F0B7FD0E277C48FE
:102E7000B0F80AA000BFF8B201A901F0BBFD0646F8
:102E8000022E08D15FEA0A00AAF1010A03D07348B2
:102E900000780028EFD0012E00D05CE0019805F802
:102EA000010B0198000A05F8010B0198000C05F8C8
:102EB000010B0198000E05F8010B0BF1010B5FEA05
:102EC0000800A8F10108C8D144E024E02078617826
:102ED00040EA0120A17840EA0140E17840EA01603F
:102EE0000190241D5E48B0F80AA000BFF8B201A905
:102EF00001F080FD0646022E08D15FEA0A00AAF121
:102F0000010A03D0554800780028EFD0012E00D0E8
:102F100021E00BF1010B5FEA0800A8F10108D5D10F
:102F200000980A2802D00A2001F057FD4C48B0F85A
:102F30000AA000BF00210E2001F05CFD0646022E13
:102F400008D15FEA0A00AAF1010A03D043480078D9
:102F50000028EFD000BF89F800B04FEA1B2089F8A5
:102F6000010089F80260A5EB0900BDE8FC9F02465C
:102F7000FF2008700120704770B506460D46307876
:102F8000802807DB30789F2804DC29463046FFF78D
:102F9000EEFF70BD307805F8010B16F8010B17280D
:102FA00073D2DFE800F00C141A202565802B9B2CCF
:102FB00032B4B4B4B4B4373D43494F555F003078B0
:102FC000691CFFF72DF804462C70A01CE1E7294688
:102FD0003046FFF78AF804469EE029463046FFF760
:102FE000A5F8044698E02846FFF7C1F8044693E0A8
:102FF00029463046FFF7A0FA04468DE08CE02946CA
:103000003046FFF754F8044686E02846FFF7BAF842
:10301000044681E029463046FFF7BDF804467BE0D0
:1030200029463046FFF765F9044675E029463046E3
:10303000FFF794F904466FE029463046FFF79EF902
:10304000044669E029463046FFF7C6F9044663E0C6
:1030500029463046FFF7E7F904465DE0AC0800205A
:10306000F82D002029463046FFF711FA044653E0B8
:1030700034480078012802D002280DD106E0294604
:103080003046FFF770FA04460BE040E02946304630
:10309000FFF725FC044604E0002028706870022435
:1030A00000BF00BF38E027480078012802D002287E
:1030B0000CD105E029463046FFF7D2FD04460BE06F
:1030C00029463046FFF783FE044605E000202870BD
:1030D0006870A870032400BF00BF1DE01948007885
:1030E000012802D002280CD105E029463046FFF71E
:1030F00055F9044609E029463046FFF7F1F9044640
:1031000003E0FF202870022043E700BF04E0FF2017
:1031100005F8010C01203CE700BF601C39E710B541
:103120000948006840080949B0FBF1F0801E0549D4
:103130004860642103484181012002490875FDF778
:103140008EFC10BDF82D00205008002040420F00DA
:10315000F8B504460D4600272BE0641E17B915F894
:10316000016B082716F0010F02D0FDF75DFB02E0AE
:103170000020FE4908604FF00000FD490860FD494D
:103180004868009000BF00BF0099491E0091FBD124
:1031900000BF0120F6490860F6494868009000BF6A
:1031A00000BF0099491E0091FBD100BF7610781E28
:1031B000C7B2002CD1D1F8BD2DE9F84F06468A469A
:1031C00000270120E94908604FF00000EA49C1F8F2
:1031D0008C01E8494868009000BF00BF0099491E73
:1031E0000091FBD100BF0120E1490860E149486836
:1031F000009000BF00BF0099491E0091FBD100BFA5
:103200003546DA4805604FF00000DB49C1F88C0113
:10321000D8494868009000BF00BF0099491E00913E
:10322000FBD100BF0120D2490860D2494868009014
:1032300000BF00BF0099491E0091FBD100BF781963
:10324000C7B27510C94805604FF00000CA49C1F8FF
:103250008C01C8494868009000BF00BF0099491E12
:103260000091FBD100BF0120C1490860C1494868F5
:10327000009000BF00BF0099491E0091FBD100BF24
:103280007819C7B2B510B94805604FF00000BA49C7
:10329000C1F88C01B7494868009000BF00BF009991
:1032A000491E0091FBD100BF0120B1490860B1491E
:1032B0004868009000BF00BF0099491E0091FBD1F3
:1032C00000BF7819C7B2F510A84805604FF000009C
:1032D000A949C1F88C01A7494868009000BF00BF08
:1032E0000099491E0091FBD100BF0120A049086050
:1032F000A0494868009000BF00BF0099491E009196
:10330000FBD100BF7819C7B2984807604FF00000A2
:103310009949C1F88C0197494868009000BF00BFE7
:103320000099491E0091FBD100BF0120904908601F
:1033300090494868009000BF00BF0099491E009165
:10334000FBD100BF0020894908608B49C1F88C017E
:1033500088494868009000BF00BF0099491E00914D
:10336000FBD100BF01208249086082494868009073
:1033700000BF00BF0099491E0091FBD100BF012092
:103380007A4908604FF000007B49C1F88C01794907
:103390004868009000BF00BF0099491E0091FBD112
:1033A00000BF01207249086072494868009000BF60
:1033B00000BF0099491E0091FBD100BFFDF74EFAF6
:1033C0006C48047D1BE00020694908606949486831
:1033D000009000BF00BF0099491E0091FBD100BFC3
:1033E00001206349086063494868009000BF00BF3E
:1033F0000099491E0091FBD100BF601EC4B2002C91
:10340000E1D100205A4908605A494868009000BF3D
:1034100000BF0099491E0091FBD100BF57480068CA
:10342000C5B24FF001005449C1F88C0151494868B8
:10343000009000BF00BF0099491E0091FBD100BF62
:10344000A94600204A4908604A494868009000BFE0
:1034500000BF0099491E0091FBD100BF474800689A
:10346000C5B24FF001004449C1F88C014149486898
:10347000009000BF00BF0099491E0091FBD100BF22
:1034800049EA450000F0FF09002039490860394940
:103490004868009000BF00BF0099491E0091FBD111
:1034A00000BF36480068C5B24FF001003249C1F88C
:1034B0008C0130494868009000BF00BF0099491E48
:1034C0000091FBD100BF49EA850000F0FF09B9F186
:1034D000010F7DD116F0020F7BD0884600272024F3
:1034E00026E000202249086022494868009000BF79
:1034F00000BF0099491E0091FBD100BF1F48006822
:10350000C5B24FF001001C49C1F88C011949486847
:10351000009000BF00BF0099491E0091FBD100BF81
:103520007819C7B24FEA580848EAC578601EC4B295
:10353000002CD6D100200E4908600E494868009042
:1035400000BF00BF0099491E0091FBD100BF0B488E
:103550000068C5B24FF001000749C1F88C01054968
:103560004868009000BF00BF009909E0880121422F
:103570008C012142F82D0020000021420801214247
:10358000491E0091F0D100BF87EA050010F0010F3D
:1035900001D04FF00809BAF1000F01D0CAF800803D
:1035A000B248047D1EE00020B1490860AF49486878
:1035B000009000BF00BF0099491E0091FBD100BFE1
:1035C0000120AB490860A9494868009000BF01E0AC
:1035D000A4E00CE000BF0099491E0091FBD100BFA0
:1035E000601EC4B2002CDED1FDF72DF96BE09F48C0
:1035F000047D1BE000209E4908609C4948680090BB
:1036000000BF00BF0099491E0091FBD100BF0120FF
:103610009749086095494868009000BF00BF00992D
:10362000491E0091FBD100BF601EC4B2002CE1D145
:10363000FDF709F9DAF800800027202423E08D48FF
:10364000C0F8888100208A4908608849486800904D
:1036500000BF00BF0099491E0091FBD100BF0120AF
:103660008349086081494868009000BF00BF009905
:10367000491E0091FBD100BF07EB0800C7B24FEA1B
:103680005808601EC4B2002CD9D17B4807604FF0A7
:1036900000007849C1F88C0174494868009000BF67
:1036A00000BF0099491E0091FBD100BF0120704965
:1036B00008606E494868009000BF00BF0099491E2D
:1036C0000091FBD100BF6948047A0CB300206A491D
:1036D00008601BE000206649086064494868009063
:1036E00000BF00BF0099491E0091FBD100BF01201F
:1036F0005F4908605D494868009000BF00BF0099BD
:10370000491E0091FBD100BF601EC4B2002CE1D164
:103710000120594908604846BDE8F88FB9F1020F09
:1037200002D0B9F1040F78D15048407D10B316F0A3
:10373000020F1FD021241BE000204D4908604B4997
:103740004868009000BF00BF0099491E0091FBD15E
:1037500000BF01204649086044494868009000BF06
:1037600000BF0099491E0091FBD100BF601EC4B28A
:10377000002CE1D13D48047D1BE000203C4908605D
:103780003A494868009000BF00BF0099491E009167
:10379000FBD100BF012036490860344948680090D9
:1037A00000BF00BF0099491E0091FBD100BF601E01
:1037B000C4B2002CE1D1FDF746F82C48407D30B36F
:1037C00016F0020F23D100202B4908604FF021048E
:1037D0001BE000202649086024494868009000BF8B
:1037E00000BF0099491E0091FBD100BF0120204974
:1037F00008601E494868009000BF00BF0099491E3C
:103800000091FBD100BF601EC4B2002CE1D10120A9
:103810001949086048467FE7FFE71448007D2130DA
:10382000C4B21BE0002012490860104948680090AB
:1038300000BF00BF0099491E0091FBD100BF0120CD
:103840000B49086009494868009000BF00BF009913
:10385000491E0091FBD100BF601EC4B2002CE1D113
:10386000012005490860484656E70000F82D002071
:103870008C01214200002142880121422DE9F84FAC
:1038800004460F46904604F03F0606B9402614F061
:10389000400F03D00120F849086002E00020F649FB
:1038A000086038E017F801AB00254FF0080926E062
:1038B0000AF0FF00FCF7F8FFFCF7ABFFEF494868A0
:1038C000009000BF00BF0099491E0091FBD100BFCE
:1038D000FCF7F6FF8346FCF797FFE849486800903D
:1038E00000BF00BF0099491E0091FBD100BF4FEA05
:1038F0005A0A6D0845EACB15A9F10109761EB9F1FE
:10390000000F01D0002ED3D125FA09F514F0800F55
:1039100001D008F8015B002EC4D1BDE8F88F70B566
:1039200005460120D4490860FCF773FF00BF00BFC3
:10393000FCF76AFF00BF00BFFCF76BFF00BF00BFD2
:10394000FCF762FF00BF00BF0020CD49C1F888012D
:10395000FCF75FFF00BF00BFFCF756FF00BF00BFD2
:10396000FCF757FF00BF00BFFCF74EFF00BF00BFD2
:103970000120FCF799FFC148C17D203030F811408B
:1039800008E0FCF746FF00BF00BFFCF73DFF00BFAB
:1039900000BF641E002CF4D1B848C17D1830405CD3
:1039A000441E0CE0E8B2FCF77FFFFCF732FF00BFDB
:1039B00000BFFCF729FF00BF00BF6D08641E002C8C
:1039C000F0D1AE48C17D303030F8114034B3E8B2A8
:1039D000FCF76AFFFCF71DFF00BF00BFFCF714FFF8
:1039E00000BF00BF0120FCF75FFF641E08E0FCF78A
:1039F00010FF00BF00BFFCF707FF00BF00BF641E41
:103A0000002CF4D101209C490860FCF702FF00BFA4
:103A100000BFFCF7F9FE00BF00BF0EE00120964991
:103A20000860E8B2FCF740FFFCF7F3FE00BF00BF00
:103A3000FCF7EAFE00BF00BF00BFFCF7EAFE00BFD4
:103A400000BFFCF7E1FE00BF00BF00208A4908600C
:103A5000FCF7DFFE00BF00BFFCF7D6FE00BF00BFD3
:103A60000120FCF721FF70BD2DE9F047064688468E
:103A7000012081490860FCF7CCFE00BF00BFFCF7C5
:103A8000C3FE00BF00BF00207D49C1F88801FCF7DC
:103A9000C0FE00BF00BFFCF7B7FE00BF00BFFCF7D1
:103AA000B8FE00BF00BFFCF7AFFE00BF00BF734809
:103AB000C47D08E0FCF7ADFE00BF00BFFCF7A4FE2C
:103AC00000BF00BF641E002CF4D1C6F34700FCF712
:103AD000EBFEFCF79EFE00BF00BFFCF7F1FE0746C1
:103AE000FCF792FE00BF00BF4FEA4709C6F387000C
:103AF000FCF7DAFEFCF78DFE00BF00BFFCF7E0FE2E
:103B00000746FCF781FE00BF00BF49EA0709C6F37C
:103B1000C700FCF7C9FEFCF77CFE00BF00BFFCF746
:103B2000CFFE0746FCF770FE00BF00BF49EA8709D9
:103B3000B9F1010F0BD001204F490860FCF769FE75
:103B400000BF00BFFCF760FE00BF00BFABE016F097
:103B5000020F54D000251F240EE0FCF75AFE00BFD0
:103B600000BFFCF7ADFE0746FCF74EFE00BF00BFEE
:103B700045EAC7756D08641E002CEED13F48817D73
:103B8000C07D081A441E1CB3FCF743FE00BF00BFF3
:103B9000FCF796FE0746FCF737FE00BF00BF641E29
:103BA00008E0FCF736FE00BF00BFFCF72DFE00BFAB
:103BB00000BF641E002CF4D101202F490860FCF7DF
:103BC00028FE00BF00BFFCF71FFE00BF00BF0EE0D5
:103BD000012029490860FCF71CFE00BF00BFFCF76C
:103BE0006FFE0746FCF710FE00BF00BF00BF45EAAE
:103BF000C775B8F1000F55D0C8F8005052E0D8F89A
:103C000000501F240CE0E8B2FCF74EFEFCF701FE6A
:103C100000BF00BFFCF7F8FD00BF00BF6D08641EC9
:103C2000002CF0D11548817DC07D081A441E4CB38C
:103C3000E8B2FCF739FEFCF7ECFD00BF00BFFCF773
:103C4000E3FD00BF00BF641E08E0FCF7E2FD00BF1B
:103C500000BFFCF7D9FD00BF00BF641E002CF4D1EB
:103C6000012005490860FCF7D4FD00BF00BFFCF748
:103C7000CBFD00BF00BF15E088012142F82D0020D8
:103C800000002142FFE70120F8490860E8B2FCF794
:103C90000BFEFCF7BEFD00BF00BFFCF7B5FD00BF8B
:103CA00000BF00BF00BFFCF7B4FD00BF00BFFCF7C2
:103CB000ABFD00BF00BF0020EC490860FCF7A9FD88
:103CC00000BF00BFFCF7A0FD00BF00BF0120FCF754
:103CD000EBFDE748047A08E0FCF79BFD00BF00BF5E
:103CE000FCF792FD00BF00BF00BF2000A4F101045B
:103CF000F2D109F0FF00BDE8F08738B50546012094
:103D0000DA490860FCF785FDD9494868009000BF92
:103D100000BF0099491E0091FBD100BFFCF774FD64
:103D2000D3494868009000BF00BF0099491E009128
:103D3000FBD100BFFCF76DFDCD494868009000BF86
:103D400000BF0099491E0091FBD100BFFCF75CFD4C
:103D5000C7494868009000BF00BF0099491E009104
:103D6000FBD100BF0020C1490860FCF752FDC049EB
:103D70004868009000BF00BF0099491E0091FBD128
:103D800000BFFCF741FDBA494868009000BF00BF82
:103D90000099491E0091FBD100BFFCF73AFDB449E0
:103DA0004868009000BF00BF0099491E0091FBD1F8
:103DB00000BFFCF729FDAE494868009000BF00BF76
:103DC0000099491E0091FBD100BF0120FCF76CFD5A
:103DD000A748C17D203030F8114018E0FCF719FDEC
:103DE000A3494868009000BF00BF0099491E009198
:103DF000FBD100BFFCF708FD9D494868009000BF5B
:103E000000BF0099491E0091FBD100BF641E002C29
:103E1000E4D19748C17D1830405C441E1CE0E8B2F4
:103E2000FCF742FDFCF7F5FC91494868009000BFA3
:103E300000BF0099491E0091FBD100BFFCF7E4FCD4
:103E40008B494868009000BF00BF0099491E00914F
:103E5000FBD100BF6D08641E002CE0D18448C17DF9
:103E6000303030F81140002C55D0E8B2FCF71CFD82
:103E7000FCF7CFFC7E494868009000BF00BF009966
:103E8000491E0091FBD100BFFCF7BEFC7849486891
:103E9000009000BF00BF0099491E0091FBD100BFF8
:103EA0000120FCF701FD641E18E0FCF7B2FC70492C
:103EB0004868009000BF00BF0099491E0091FBD1E7
:103EC00000BFFCF7A1FC6A494868009000BF00BF32
:103ED0000099491E0091FBD100BF641E002CE4D163
:103EE000012062490860FCF794FC61494868009031
:103EF00000BF00BF0099491E0091FBD100BFFCF735
:103F000083FC5B494868009000BF00BF0099491ED0
:103F10000091FBD11DE0012054490860E8B2FCF794
:103F2000C3FCFCF776FC52494868009000BF00BF14
:103F30000099491E0091FBD100BFFCF765FC4C497C
:103F40004868009000BF00BF0099491E0091FBD156
:103F500000BFFCF75EFC46494868009000BF00BF08
:103F60000099491E0091FBD100BFFCF74DFC404970
:103F70004868009000BF00BF0099491E0091FBD126
:103F800000BF002039490860FCF743FC3849486805
:103F9000009000BF00BF0099491E0091FBD100BFF7
:103FA000FCF732FC32494868009000BF00BF00991E
:103FB000491E0091FBD100BF0120FCF775FC38BD04
:103FC0002DE9F84307468946012028490860FCF797
:103FD00020FC27494868009000BF00BF0099491E97
:103FE0000091FBD100BFFCF70FFC2149486800900D
:103FF00000BF00BF0099491E0091FBD100BF002007
:104000001A490860FCF705FC19494868009000BF90
:1040100000BF0099491E0091FBD100BFFCF7F4FBE3
:1040200013494868009000BF00BF0099491E0091E5
:10403000FBD100BFFCF7EDFB0D494868009000BFC5
:1040400000BF0099491E0091FBD100BFFCF7DCFBCB
:1040500007494868009000BF00BF0099491E0091C1
:10406000FBD100BF0248C47D1DE000008801214251
:10407000F82D0020FCF7CDFBFE494868009000BFFA
:1040800000BF0099491E0091FBD100BFFCF7BCFBAB
:10409000F8494868009000BF00BF0099491E009190
:1040A000FBD100BF641E002CE4D1C7F34700FCF72E
:1040B000FBFBFCF7AEFBEF494868009000BF00BF78
:1040C0000099491E0091FBD100BFFCF7F9FB0646A1
:1040D000FCF79AFBE7494868009000BF00BF0099D1
:1040E000491E0091FBD100BF4FEA4608C7F3870085
:1040F000FCF7DAFBFCF78DFBDE494868009000BF57
:1041000000BF0099491E0091FBD100BFFCF7D8FB0E
:104110000646FCF779FBD7494868009000BF00BF0E
:104120000099491E0091FBD100BF48EA0608C7F379
:10413000C700FCF7B9FBFCF76CFBCE494868009060
:1041400000BF00BF0099491E0091FBD100BFFCF7E2
:10415000B7FB0646FCF758FBC6494868009000BF0D
:1041600000BF0099491E0091FBD100BF48EA8608B4
:10417000B8F1010F1BD00120BF490860FCF749FBD3
:10418000BC494868009000BF00BF0099491E0091DB
:10419000FBD100BFFCF738FBB6494868009000BF70
:1041A00000BF0099491E0091FBD100BF43E117F009
:1041B000020F7DD000251F241EE0FCF72AFBAD492D
:1041C0004868009000BF00BF0099491E0091FBD1D4
:1041D00000BFFCF775FB0646FCF716FBA5494868CF
:1041E000009000BF00BF0099491E0091FBD100BFA5
:1041F00045EAC6756D08641E002CDED19D48817DA0
:10420000C07D081A441E002C53D0FCF702FB9949CC
:104210004868009000BF00BF0099491E0091FBD183
:1042200000BFFCF74DFB0646FCF7EEFA91494868E3
:10423000009000BF00BF0099491E0091FBD100BF54
:10424000641E18E0FCF7E5FA8A494868009000BF50
:1042500000BF0099491E0091FBD100BFFCF7D4FAC2
:1042600084494868009000BF00BF0099491E009132
:10427000FBD100BF641E002CE4D101207E49086000
:10428000FCF7C7FA7B494868009000BF00BF00995F
:10429000491E0091FBD100BFFCF7B6FA754948688A
:1042A000009000BF00BF0099491E0091FBD11EE0A5
:1042B00025E0012070490860FCF7ABFA6D494868B9
:1042C000009000BF00BF0099491E0091FBD100BFC4
:1042D000FCF7F6FA0646FCF797FA6649486800903C
:1042E00000BF00BF0099491E0091FBD100BF45EA05
:1042F000C675B9F1000F01D0C9F800509AE0D9F89D
:1043000000501F241CE0E8B2FCF7CEFAFCF781FA5B
:1043100058494868009000BF00BF0099491E0091AD
:10432000FBD100BFFCF770FA52494868009000BF0B
:1043300000BF0099491E0091FBD100BF6D08641EAB
:10434000002CE0D14B48817DC07D081A441E002C12
:1043500052D0E8B2FCF7A8FAFCF75BFA4549486886
:10436000009000BF00BF0099491E0091FBD100BF23
:10437000FCF74AFA3F494868009000BF00BF009927
:10438000491E0091FBD100BF641E18E0FCF741FA02
:1043900038494868009000BF00BF0099491E00914D
:1043A000FBD100BFFCF730FA32494868009000BFEB
:1043B00000BF0099491E0091FBD100BF641E002C74
:1043C000E4D101202C490860FCF723FA2949486808
:1043D000009000BF00BF0099491E0091FBD100BFB3
:1043E000FCF712FA23494868009000BF00BF00990B
:1043F000491E0091FBD11DE001201F490860E8B271
:10440000FCF752FAFCF705FA1A494868009000BF19
:1044100000BF0099491E0091FBD100BFFCF7F4F9E1
:1044200014494868009000BF00BF0099491E0091E0
:10443000FBD100BF00BFFCF7ECF90E4948680090C3
:1044400000BF00BF0099491E0091FBD100BFFCF7DF
:10445000DBF908494868009000BF00BF0099491E79
:104460000091FBD100BF002003490860FCF7D1F99F
:10447000004903E0F82D002088012142486800909F
:1044800000BF00BF0099491E0091FBD100BFFCF79F
:10449000BBF9FE494868009000BF00BF0099491E63
:1044A0000091FBD100BF0120FCF7FEF9F748047A28
:1044B00017E0FCF7AEF9F5494868009000BF00BF6F
:1044C0000099491E0091FBD100BFFCF79DF9EF490F
:1044D0004868009000BF00BF0099491E0091FBD1C1
:1044E00000BF2000A4F10104E3D108F0FF00BDE803
:1044F000F883F8B50120E6490860FCF78AF9E3493A
:104500004868009000BF00BF0099491E0091FBD190
:1045100000BFFCF779F9DD494868009000BF00BF93
:104520000099491E0091FBD100BF0020D8490860C6
:10453000FCF76FF9D5494868009000BF00BF0099AB
:10454000491E0091FBD100BFFCF75EF9CF494868D6
:10455000009000BF00BF0099491E0091FBD100BF31
:10456000FCF757F9C9494868009000BF00BF00999F
:10457000491E0091FBD100BFFCF746F9C3494868CA
:10458000009000BF00BF0099491E0091FBD100BF01
:10459000BE48C57D18E0FCF73CF9BC49486800906E
:1045A00000BF00BF0099491E0091FBD100BFFCF77E
:1045B0002BF9B6494868009000BF00BF0099491E1A
:1045C0000091FBD100BF6D1E002DE4D100241F25FA
:1045D0001EE0FCF71EF9AD494868009000BF00BF1F
:1045E0000099491E0091FBD100BFFCF769F906460E
:1045F000FCF70AF9A5494868009000BF00BF009980
:10460000491E0091FBD100BF44EAC67464086D1EC8
:10461000002DDED101209E490860FCF7FAF89B4985
:104620004868009000BF00BF0099491E0091FBD16F
:1046300000BFFCF745F90646FCF7E6F893494868E1
:10464000009000BF00BF0099491E0091FBD100BF40
:1046500044EAC674FCF7DDF88C494868009000BF56
:1046600000BF0099491E0091FBD100BFFCF7CCF8B8
:1046700086494868009000BF00BF0099491E00911C
:10468000FBD100BF002082490860FCF7C2F87F49D7
:104690004868009000BF00BF0099491E0091FBD1FF
:1046A00000BFFCF7B1F879494868009000BF00BF2F
:1046B0000099491E0091FBD100BF2046F8BD38B5D6
:1046C0000546012072490860FCF7A3F86F49486865
:1046D000009000BF00BF0099491E0091FBD100BFB0
:1046E000FCF792F869494868009000BF00BF009944
:1046F000491E0091FBD100BF002065490860FCF70E
:1047000088F862494868009000BF00BF0099491EC0
:104710000091FBD100BFFCF777F85C494868009036
:1047200000BF00BF0099491E0091FBD100BFFCF7FC
:1047300070F856494868009000BF00BF0099491EB4
:104740000091FBD100BFFCF75FF85049486800902A
:1047500000BF00BF0099491E0091FBD100BF4B482C
:10476000C47D18E0FCF755F848494868009000BF40
:1047700000BF0099491E0091FBD100BFFCF744F82F
:1047800042494868009000BF00BF0099491E00914F
:10479000FBD100BF641E002CE4D10020FCF784F89C
:1047A000FCF737F839494868009000BF00BF00990E
:1047B000491E0091FBD100BFFCF726F83349486839
:1047C000009000BF00BF0099491E0091FBD100BFBF
:1047D000FCF71FF82D494868009000BF00BF009902
:1047E000491E0091FBD100BFFCF70EF8274948682D
:1047F000009000BF00BF0099491E0091FBD100BF8F
:10480000FCF707F821494868009000BF00BF0099F5
:10481000491E0091FBD100BFFBF7F6FF1B4948681A
:10482000009000BF00BF0099491E0091FBD100BF5E
:104830001F241CE0E8B2FCF737F8FBF7EAFF134946
:104840004868009000BF00BF0099491E0091FBD14D
:1048500000BFFBF7D9FF0D494868009000BF00BFBB
:104860000099491E0091FBD100BF6D08641E002C09
:10487000E0D10648817DC07D081A441E002C57D027
:10488000E8B2FCF711F8FBF7C4FF03E0F82D0020B5
:10489000880121425F494868009000BF00BF00992D
:1048A000491E0091FBD100BFFBF7AEFF5949486894
:1048B000009000BF00BF0099491E0091FBD100BFCE
:1048C000641E18E0FBF7A5FF52494868009000BF3E
:1048D00000BF0099491E0091FBD100BFFBF794FF78
:1048E0004C494868009000BF00BF0099491E0091E4
:1048F000FBD100BF641E002CE4D1012046490860B2
:10490000FBF787FF43494868009000BF00BF00994C
:10491000491E0091FBD100BFFBF776FF3D49486877
:10492000009000BF00BF0099491E0091FBD11DE01F
:10493000012039490860E8B2FBF7B6FFFBF769FFD1
:1049400034494868009000BF00BF0099491E00919B
:10495000FBD100BFFBF758FF2E494868009000BF0D
:1049600000BF0099491E0091FBD100BFFBF751FF2A
:1049700028494868009000BF00BF0099491E009177
:10498000FBD100BFFBF740FF22494868009000BF01
:1049900000BF0099491E0091FBD100BF00201E49B5
:1049A0000860FBF736FF1B494868009000BF00BF56
:1049B0000099491E0091FBD100BFFBF725FF154967
:1049C0004868009000BF00BF0099491E0091FBD1CC
:1049D00000BF0120FBF768FF38BD10B504460D4845
:1049E000407818B12046FEF79AFF02E02046FFF714
:1049F00084F910BD70B504460D460648407820B1D4
:104A000029462046FFF730F870BD29462046FFF7BB
:104A1000D7FAF9E7F82D00208801214270B5044645
:104A20000E462EB14FF48041FE4800F04CFB04E0EE
:104A30004FF48041FB4800F048FB4FF48051F948A7
:104A400000F043FB00251BE04FF40051F54800F057
:104A50003CFB14F0800F05D04FF40041F14800F00A
:104A600032FB04E04FF40041EE4800F02EFB4FF41F
:104A70000051EC4800F027FB6006040E681CC5B22C
:104A8000082DE1DB4FF48051E64800F01CFB4FF4A9
:104A90008041E44800F017FB70BD70B504460D4638
:104AA00005F1B001C8B20021FFF7B8FF102141EABB
:104AB00014100021FFF7B2FF04F00F0141F00100D4
:104AC0000021FFF7ABFF70BD10B500218D20FFF76F
:104AD000A5FF00211420FFF7A1FF0021AF20FFF761
:104AE0009DFF10BD10B500218D20FFF797FF00211D
:104AF0001020FFF793FF0021AE20FFF78FFF10BDBE
:104B000070B5002419E004F1B001C8B20021FFF72C
:104B100085FF00210846FFF781FF00211020FFF7E5
:104B20007DFF002505E001210020FFF777FF681CCD
:104B3000C5B2802DF7DB601CC4B2082CE3DB70BD6E
:104B40002DE9F04107460E46904600250024A8F1C5
:104B50002000C5B27F2F02DD0027B01CC6B231464F
:104B60003846FFF79AFF002408E004EB0511AE4A2F
:104B7000505C0121FFF752FF601CC4B2082CF4DB2B
:104B8000701CC1B23846FFF788FF002409E004EB2F
:104B900005110831A44A505C0121FFF73FFF601C5A
:104BA000C4B2082CF3DBBDE8F08110B50246012049
:104BB00000E050430B00A1F10104E1B2F9D110BDB6
:104BC0002DE9FF5F074691461D460E9E4FF0000AF5
:104BD000002433E0281B401EC1B20A20FFF7E5FF86
:104BE000B9FBF0F00A21B0FBF1F201FB1208BAF1B7
:104BF000000F13D1681EA04210DDB8F1000F0BD1D9
:104C0000B34606EBDB71491001FB0471C8B22022E8
:104C10000199FFF795FF0FE04FF0010AB34606EB4D
:104C2000DB71491001FB0471C8B208F13001CAB24E
:104C30000199FFF785FF00BF601CC4B2AC42C9DB1D
:104C4000BDE8FF9F2DE9F04104460F4615460026BA
:104C50000EE0AA5D39462046FFF772FF04F1080016
:104C6000C4B2782C02DD0024B81CC7B2701CC6B2D6
:104C7000A85D0028EDD1BDE8F0812DE9F041804626
:104C80000E461546002731464046FFF706FF002432
:104C90000AE0664A02EB8511085D0121FFF7BEFEBE
:104CA000781CC7B2601CC4B2102CF2DB701CC1B2FD
:104CB0004046FFF7F2FE00240CE06900491C5B4A05
:104CC00002EB4111085D0121FFF7A8FE781CC7B275
:104CD000601CC4B2102CF0DBBDE8F0812DE9F05F60
:104CE00006460F4690461C46DDF828A04FF0000B04
:104CF000E11704EB5171C910B4EBC10106D1204694
:104D0000E11704EB5171C1F3C70506E02046E11736
:104D100004EB5171C910491CCDB23D4615E029463E
:104D20003046FFF7BAFEB1460BE059460BF1010BD6
:104D30001AF801000121FFF771FE09F1010000F0EE
:104D4000FF09C145F1DB681CC5B2A542E7DBBDE840
:104D5000F09F10B5FFF7D4FE10BD08B50121082063
:104D600000F0BCFB4FF60140ADF8000010208DF8BC
:104D7000030003208DF8020069462A4800F0F8F885
:104D80004FF60141274800F09EF94FF40061254895
:104D900000F099F94FF40061224800F096F94FF4C1
:104DA0000061204800F08FF90021AE20FFF736FEA9
:104DB00000210846FFF732FE00211020FFF72EFEEB
:104DC00000214020FFF72AFE00218120FFF726FE68
:104DD0000021CF20FFF722FE0021A120FFF71EFEB9
:104DE0000021C820FFF71AFE0021A620FFF716FEBB
:104DF0000021A820FFF712FE00213F20FFF70EFE42
:104E00000021D320FFF70AFE00210846FFF706FE27
:104E10000021D520FFF702FE00218020FFF7FEFDD4
:104E2000002105E0000C01401C940008AD080020A2
:104E3000D920FFF7F3FD0021F120FFF7EFFD00215E
:104E4000DA20FFF7EBFD00211220FFF7E7FD00213C
:104E5000DB20FFF7E3FD00214020FFF7DFFD00210D
:104E60002020FFF7DBFD00210220FFF7D7FD002106
:104E70008D20FFF7D3FD00211420FFF7CFFD002187
:104E8000A420FFF7CBFD0021A620FFF7C7FD0021DE
:104E9000AF20FFF7C3FD0021AF20FFF7BFFDFFF7F5
:104EA0002FFE00210846FFF7F8FDFFF752FF08BD6F
:104EB00010B50446CA48844208D10121042000F0FC
:104EC00027FB0021042000F023FB46E0C548844274
:104ED00008D10121082000F01BFB0021082000F070
:104EE00017FB3AE0C048844208D10121102000F0AD
:104EF0000FFB0021102000F00BFB2EE0BB4884428A
:104F000008D10121202000F003FB0021202000F027
:104F1000FFFA22E0B648844208D10121402000F087
:104F2000F7FA0021402000F0F3FA16E0B14884427D
:104F300008D10121802000F0EBFA0021802000F050
:104F4000E7FA0AE0AC48844207D10121801500F05D
:104F5000DFFA0021A01500F0DBFA10BD10B5012129
:104F6000084600F0D5FA0021012000F0D1FA10BD6A
:104F70002DE9F041024600250026002000230024F0
:104F8000002791F803C00CF00F0591F803C01CF046
:104F9000100F03D091F802C04CEA050591F800C04B
:104FA000BCF1000F31D0146800202BE04FF0010C51
:104FB0000CFA00F3B1F800C00CEA03069E4220D1BF
:104FC00083004FF00F0C0CFA03F7BC4305FA03FC07
:104FD0004CEA040491F803C0BCF1280F06D14FF04D
:104FE000010C0CFA00FCC2F814C00AE091F803C0EE
:104FF000BCF1480F05D14FF0010C0CFA00FCC2F8CF
:1050000010C0401C0828D1D31460B1F800C0BCF116
:10501000FF0F34DD546800202EE000F1080C4FF043
:10502000010808FA0CF3B1F800C00CEA03069E422E
:1050300021D183004FF00F0C0CFA03F7BC4305FAA3
:1050400003FC4CEA040491F803C0BCF1280F05D11D
:1050500000F1080C08FA0CF8C2F8148091F803C0AB
:10506000BCF1480F07D100F1080C4FF0010808FA15
:105070000CF8C2F81080401C0828CED35460BDE85C
:10508000F0814FF6FF710180022181700421C1700F
:1050900070470246002093680B4201D0012000E0D7
:1050A000002070470146886880B2704702460020A1
:1050B000D3680B4201D0012000E000207047014678
:1050C000C86880B2704701617047416170470AB19A
:1050D000016100E041617047C16070474FF4803268
:1050E0000A438261816182618269826970470246F6
:1050F0000020424B18684FF68073184040EA0210B7
:1051000008433E4B186070473D49C8617047F0B591
:105110000A46002300240021002500F00046B6F1D5
:10512000004F02D1354EF16901E0344E7168C0F391
:10513000034583B200F44016B6F5401F08D121F0B4
:1051400070612E4E766826F070662C4F7E6012E0FD
:1051500000F48016B6F5801F06D1032606FA05F482
:10516000A14341F0706106E0460D360103FA06F6F0
:10517000B14341F0706122B1460D360103FA06F6E3
:10518000314300F00046B6F1004F02D11B4EF161F1
:1051900001E01A4E7160F0BD30B500228B071C0F84
:1051A0000F2303FA04F2154B08338C1053F8243004
:1051B0009343124C08348D1044F8253023468C104C
:1051C00053F824308C07240F00FA04F423430B4CCB
:1051D00008348D1044F8253030BD0A490860704706
:1051E00000080140000C0140001001400014014083
:1051F00000180140001C0140002001400000014057
:1052000000002042DC002042DD48006840F0010040
:10521000DB49086008464068DA490840D8494860D8
:1052200008460068D8490840D54908600846006823
:1052300020F4802008600846406820F4FE004860A2
:105240004FF41F0088607047CD49096821F4803110
:10525000CB4A11601146096821F480211160B0F534
:10526000803F03D0B0F5802F0ED106E0C449096815
:1052700041F48031C24A116007E0C149096841F434
:10528000A021BF4A116000E000BF00BF704710B509
:1052900001460022002300204A11012A02D1B84C05
:1052A000236806E0022A02D1B54C236A01E0B44C1F
:1052B000636A01F01F02012494401C4201D00120C6
:1052C00000E0002010BD38B500200090002400252B
:1052D00000BF3120FFF7DBFF05460098401C00901F
:1052E0000098B0F5A06F01D0002DF2D03120FFF76B
:1052F000CEFF08B1012400E00024204638BD01465D
:1053000000209F4A106820F0F80040EAC1001060B9
:1053100070479E490860704702460020984B5868C5
:1053200020F47C1042EA01031843954B5860704703
:1053300096490866704701460020914A506820F05F
:1053400003000843506070478D48406800F00C002F
:105350007047014600208A4A506820F0F000084358
:105360005060704701460020854A506820F4E06094
:1053700008435060704701460020814A506820F47D
:10538000605040EAC1005060704729B17C4A527AAF
:1053900002437B4B5A7204E0794A527A8243784B3B
:1053A0005A7270477A490860704701460020744A73
:1053B000506820F440400843506070470021754A0F
:1053C00011706F4A82F82010012802D0042808D1F9
:1053D00003E001216F4A117004E005216D4A11704C
:1053E00000E000BF00BF70476B4908607047644928
:1053F000096A0143624A116270476749443908608B
:10540000704730B500210022002400235C4D6D68F8
:1054100005F00C0121B1042905D0082923D105E0AC
:105420005E4D056022E05D4D05601FE0544D6D68E6
:1054300005F47012524D6D6805F48034022505EBB9
:1054400092421CB9564D554305600BE04C4D6D68BA
:1054500015F4003F03D0524D5543056002E04F4D17
:105460005543056002E04D4D056000BF00BF444D4F
:105470006D6805F0F00109094A4D6B5C0568DD4077
:1054800045603F4D6D6805F4E061090A454D6B5C70
:105490004568DD4085603A4D6D6805F46051C90A84
:1054A000404D6B5C4568DD40C560354D6D6805F469
:1054B0004041890B3C4D6B5CC568B5FBF3F505615C
:1054C00030BD29B12E4A526902432D4B5A6104E086
:1054D0002B4A526982432A4B5A61704729B1284AA4
:1054E00092690243264B9A6104E0254A92698243FD
:1054F000234B9A61704729B1214AD2690243204B5C
:10550000DA6104E01E4AD26982431D4BDA617047BA
:1055100029B11B4AD2680243194BDA6004E0184AE9
:10552000D2688243164BDA60704729B1144A126977
:105530000243134B1A6104E0114A12698243104B73
:105540001A61704714494039086070470F49C864B0
:1055500070470B49C87170470948406A40F0807035
:1055600007494862704701460020054A92680A428E
:1055700001D0012000E00020704701498872704787
:10558000001002400000FFF8FFFFF6FE000042425C
:10559000D8004242201002408004424200127A00A9
:1055A00000093D00ED090020FD09002010B504466A
:1055B000FB48844209D101218803FFF7A9FF00219C
:1055C0004FF48040FFF7A4FF32E0F648844209D14F
:1055D00001214804FFF7A9FF00214FF40030FFF735
:1055E000A4FF25E0F048844209D101218804FFF797
:1055F0009CFF00214FF48020FFF797FF18E0EB4855
:10560000844209D10121C804FFF78FFF00214FF424
:105610000020FFF78AFF0BE0E548844208D1012112
:105620000805FFF782FF00214FF48010FFF77DFF90
:1056300010BD2DE9F04786B005460E460024A2466F
:1056400000BFA1460027B08900B100BF2F462C8AB9
:105650004CF6FF700440F08804432C82AC894EF66F
:10566000F3100440B088318908437189084304432A
:10567000AC81AC8A4FF6FF400440B0890443AC8251
:1056800001A8FFF7BEFEC648874202D1DDF810A090
:1056900001E0DDF80CA0A88910F4004F08D00AEB57
:1056A000CA0000EB0A1031684900B0FBF1F807E0CE
:1056B0000AEBCA0000EB0A1031688900B0FBF1F870
:1056C0006420B8FBF0F004012009642101FB10897B
:1056D000A88910F4004F08D0322000EBC900B0FBBD
:1056E000F1F000F00700044308E0322000EB09105D
:1056F0006421B0FBF1F000F00F0004432C8106B0F0
:10570000BDE8F0874FF41651016000218180C1800F
:1057100001810C21418100218181704710B5024631
:105720000020108A4FF2FF0318400B884C88234357
:105730008C882343CC8823431843108210BD00215A
:10574000018041808180C180704721B1828942F40B
:105750000052828104E082894DF6FF731A408281F3
:105760007047F0B503460024002600250020A1F56F
:1057700010676A3F00D100BF1846C1F3421401F020
:105780001F06012707FA06F5012C01D10C3004E0B1
:10579000022C01D1103000E014301AB107682F43F9
:1057A000076002E00768AF430760F0BD1AB1838A63
:1057B0000B43838202E0838A8B4383827047028A91
:1057C0004FF6F0731A400282028A0A43028270473F
:1057D00082894FF2FF731A40828182890A43828153
:1057E000704721B1828942F00202828104E08289FD
:1057F0004FF6FD731A4082817047028A4FF6DF73BD
:105800001A400282028A0A430282704721B1028A48
:1058100042F48042028204E0028A4BF6FF731A408F
:1058200002827047C1F3080282807047014688886F
:10583000C0F308007047818941F001018181704700
:10584000028BD2B20283028B42EA012202837047AA
:10585000028B02F47F420283028B0A430283704769
:1058600021B1828A42F02002828204E0828A4FF6CD
:10587000DF731A408282704721B1828A42F010029F
:10588000828204E0828A4FF6EF731A408282704768
:1058900021B1828A42F00802828204E0828A4FF6B5
:1058A000F7731A408282704721B1828942F4004224
:1058B000828103E08289C2F30E028281704721B1A6
:1058C000828A42F40062828204E0828A4FF2FF738D
:1058D0001A4082827047828A4FF6FB731A40828296
:1058E000828A0A438282704721B1828A42F0020290
:1058F000828204E0828A4FF6FD731A4082827047EA
:1059000002460020B1F5007F00D100BF13880B4292
:1059100001D0012000E00020704701F40072B2F5D0
:10592000007F00D100BFCA430280704770B50246B5
:105930000024002300250020A1F510666A3E00D156
:1059400000BFC1F3421501F01F03012606FA03F35D
:10595000012D02D19689334006E0022D02D1168A2C
:10596000334001E0968A33400C12012606FA04F413
:105970001688344013B10CB1012000E0002070BD46
:1059800010B500220023A1F510646A3C00D100BFCD
:105990000A1201249440A3B2DC43048010BD00002D
:1059A000003801400044004000480040004C0040E6
:1059B0000050004001460020FE4A106800F0380008
:1059C000084310607047FB49096821F00801F94A53
:1059D000116011460968014311607047F549096873
:1059E00021F01001F34A116011460968014311606A
:1059F0007047F148EF494860F04848607047EE480A
:105A0000EC494860ED4848607047EA48006940F05A
:105A10008000E84908617047E648006940F080006E
:105A2000E449086170470420E249C96811F0010F98
:105A300001D001200EE0DF49C96811F0040F01D048
:105A4000022007E0DB49C96811F0100F01D00320E4
:105A500000E00420704700B502460423FFF7E3FF8F
:105A6000034603E0FFF7DFFF0346521E012B01D17F
:105A7000002AF7D102B90523184600BD30B5044607
:105A800004254FF43020FFF7E6FF0546042D17D11B
:105A9000C848006940F00200C649086108464461F0
:105AA000006940F0400008614FF43020FFF7D3FF59
:105AB0000546C048006941F6FD710840BD490861CE
:105AC000284630BD10B504244FF43020FFF7C3FF43
:105AD0000446042C16D1B748006940F00400B549CB
