:020000040800F2
:10000000C0320020DD8A0008E58A0008590900088E
:10001000E98A0008EB8A0008ED8A00080000000069
:10002000000000000000000000000000EF8A00084F
:10003000F18A000800000000F38A0008F58A000831
:10004000F78A0008F78A0008F78A0008F78A00088C
:10005000F78A0008F78A0008F78A0008F78A00087C
:10006000F78A0008F78A0008F78A0008F78A00086C
:10007000F78A0008F78A0008F78A0008F78A00085C
:10008000F78A0008F78A0008F78A0008F78A00084C
:1000900023610008F78A0008F78A0008F78A000839
:1000A000F78A0008F78A0008F78A0008F78A00082C
:1000B000F78A0008F78A0008F78A0008F78A00081C
:1000C000F78A0008F78A0008F78A0008F78A00080C
:1000D000F78A0008F78A000897460008F78A0008A0
:1000E000F78A0008F78A0008F78A0008F78A0008EC
:1000F000F78A0008F78A0008F78A0008F78A0008DC
:10010000F78A0008F78A0008F78A0008F78A0008CB
:10011000F78A0008F78A0008F78A0008F78A0008BB
:10012000F78A0008F78A0008F78A0008F78A0008AB
:10013000DFF80CD008F0F6FC00480047F502000894
:10014000C032002010B504460448046001F051FD9F
:1001500010BD012002490870704700000000002017
:100160003808002010B500F0ABFC10F0010F05D0EE
:10017000B2480068401CB149086002E00020AF4965
:100180000860AE480068AE49884202DD0020AB49F5
:10019000086010BD704710B5AA4806F031FDAA48A6
:1001A00006F02EFDA94806F02BFDA94806F028FD13
:1001B000A84806F025FDA84806F022FDA74880695A
:1001C00040F01D00A54988610121A54806F047FEC1
:1001D00000F073FA00F0E3FA00F095FA06F06FFB16
:1001E00000F046FC00F089F900F0ADF900F076F976
:1001F00010BD08B5002406F0A9FCFFF7CCFF00F005
:10020000A8F998A20221002006F0CEFA4FF47A70E5
:1002100000F043FA00F097F900F06BF99548006898
:1002200038B19448944908600846006801689348CA
:10023000884732224FF47A714FF4E15000F0DDFA32
:100240008FA20221002006F0AFFA05F0ABFF0120DB
:1002500005F0B3FF322000F020FA00208D4908603D
:10026000002400BF05F0C2FF28B92046641C40F6F8
:10027000FF718842F6D300BF00F01FFA00F039F991
:1002800000208449086084488449086084A20221CF
:10029000002006F089FA10200B2300220221009092
:1002A000282006F03FFA80A20421002006F07CFA04
:1002B0007FA20621002006F077FA32224FF4FA617D
:1002C0004FF4E15000F099FA03F012F911E000F058
:1002D00073FB7949096808447749086000F074FBAA
:1002E00076490968084475490860FFF753FFFFF72E
:1002F00039FFECE7FFF77DFF10B500F05DFB6E49BD
:10030000096808446C49086000F05EFB6B490968A5
:1003100008446A49086010BD10B5002400F013F9C4
:100320005448006838B1534853490860084600688B
:1003300001685248884705F035FF012005F03DFF70
:10034000322000F0AAF9002400BF05F04FFF28B9C1
:100350002046641C40F6FF718842F6D340F6FE70DA
:10036000844203D300205649087002E0012054491A
:10037000087010BD10B506F075F952A200210846AC
:1003800006F012FA10BD00BF06F0E0FBFFF703FF16
:1003900000F0DFF8FFF7EEFFFFF7BEFF32224FF469
:1003A000FA614FF4E15000F028FA03F0A1F805E0FB
:1003B000FFF7F0FEFFF7D6FEFFF79EFFF8E710B558
:1003C00006F0CAFD4FF4803006F0E6FD06F023FE8D
:1003D0000446012C24D1102007F0A8F9022007F0D0
:1003E00091F9002006F05DFE002006F06CFEA002F0
:1003F00006F060FE4FF4E011200406F035FE012007
:1004000006F03EFE00BF392006F0E9FD0028FAD0D4
:10041000022006F038FE00BF06F03EFE0828FBD1A1
:1004200010BD10B500F056F800F063F8002005F09C
:10043000C4FE05F0C8FE00F08FFA10BD1C080020B5
:10044000A086010000080140000C0140001001409E
:100450000014014000180140001C0140001002403F
:10046000000230005553425F54455354204D6F6491
:10047000656C0000AC9E000804080020789200081B
:1004800055534220436F6E6E65637474696E672EB8
:100490002E2E000024080020400D03002808002014
:1004A000564241543A000000484944203A000000B6
:1004B000554152543A0000000C0800200808002062
:1004C00020080020426F61726420756E6465666961
:1004D0006E6564000020FC49086070470120FA49FD
:1004E00008607047F948006880F48060F749086048
:1004F00070470020F649086070470120F449086001
:100500007047F248006880F00100F04908607047C9
:1005100000B5024612F0010F02D0FFF7DBFF01E049
:10052000FFF7DCFF00BD00B5024612F0010F02D05C
:10053000FFF7DFFF01E0FFF7E0FF00BD4FF40040F1
:10054000E449086070474FF40040E249091F086021
:10055000704770477047DF4808380068C0F34010A4
:1005600070472020DB49091F086070472020D949C7
:1005700008607047D7480C380068C0F38010704797
:100580004020D449091F08607047D2480C380068E1
:1005900010F0400F01D0012070470020FCE7CD484B
:1005A0001438006820F0706040F04070C949143978
:1005B00008607047C7481438006820F0706040F049
:1005C0000060C449143908607047C2481438006894
:1005D00020F4700040F44010BE49143908607047A0
:1005E000BC481438006820F4700040F40000B94999
:1005F000143908607047B548006810F0070F01D043
:10060000012070470020FCE710F0010F04D0072103
:10061000AE4A121D116003E00721AC4A0832116096
:100620007047AC480C38006810F0070F01D001206B
:1006300070470020FCE7002070477047A348001F68
:10064000006810F0800F01D0012070470020FCE707
:1006500010F0010F04D007219C4A121D116003E025
:1006600007219A4A08321160704798480C38006890
:1006700020F0704040F0E04094490C390860704729
:1006800092480C38006820F0704040F080408F495C
:100690000C3908607047002070478F4909684FF493
:1006A0007A72B1FBF2F1891C0622B1FBF2F14843E8
:1006B00000BF411E0800FCD170471CB58748006888
:1006C00001908648001D006800908548806940F0D0
:1006D0000800834988610121052006F0A7FD4FF439
:1006E00080607A490831086001A978480C3806F022
:1006F000E7FA0120754908310860694673480C38EB
:1007000006F0DEFA1CBD1CB5744808300068009085
:10071000FFF719FF7248806940F004007049886152
:1007200069466C48143806F0CBFAFFF70CFF01213C
:10073000052006F07BFD01216A4806F090FB4FF48E
:100740000040ADF8040003208DF8060010208DF85D
:10075000070001A95F48143806F0B2FAFFF7F3FE6C
:100760001CBD1CB55D480C30006801905B48103022
:100770000068009067205749091F0860802053498E
:1007800008310860FFF77CFF01A95248143806F0D1
:1007900097FA69464F48143806F092FA1CBD08B51E
:1007A0004E4814300068009060204A49091F0860D4
:1007B000802046490831086069464648143806F0EA
:1007C0007FFAFFF7DDFE002047490860FFF758FF7A
:1007D00008BD1CB541481830006801903F481C30E6
:1007E0000068009001A93B48143806F069FA694690
:1007F00036480C3806F064FA1CBD70B588B0064661
:100800000C4615460121052006F010FD0121084681
:1008100006F019FD0120ADF81C0003208DF81E0024
:1008200018208DF81F0007A92A48143806F048FA46
:10083000701E80B2ADF81000601E80B2ADF81400DA
:100840000020ADF81600ADF8120004A94FF080406A
:1008500007F00AFB0121880707F062FF01218807E2
:1008600007F05EFE0121880708F020F901218807C2
:1008700007F056FE6020ADF800004FF08040808DFC
:100880006843642190FBF1F080B2ADF806000020CF
:10089000ADF808000120ADF802006946800707F0B6
:1008A00020FB0121880707F047FE0821C80607F052
:1008B00067FF0121880707F033FF0121880707F050
:1008C0002FFE08B070BD0000A88121420C0C014031
:1008D0008081214214080140800A00208092000893
:1008E00000100240000230009401214270B5002443
:1008F00003F0ABFE054615F0040F01D044F04004B0
:1009000015F0020F01D044F0400415F0010F01D0A2
:1009100044F0100403F097FE054615F0080F01D0CF
:1009200044F0080415F0040F01D044F0020415F05F
:10093000020F01D044F0010403F0AAFE08B144F014
:1009400004041A480068604005D0A0B204F061F8C1
:1009500008B11648046070BDFFF7AFFE002312E037
:10096000FFF7C7FDFA20FFF798FEFFF7C6FDFFF778
:10097000B1FDFA20FFF791FEFFF7B0FD4FF47A705A
:10098000FFF78BFE5B1C052BEADB00BFBFF34F8F2D
:100990000748006800F4E06006490843001D044968
:1009A0000860BFF34F8F00BF00BFFEE72C08002098
:1009B0000CED00E00000FA0510B503F0FDFB08B1F6
:1009C000012010BD0020FCE710B50024FFF78EFFCA
:1009D00025480068401C07D104F008F82249086047
:1009E00008460068214908601F480068401C0BD079
:1009F00001241D49087803F011FE1B49096888424B
:100A000002D1A01E1849086018480068401C0BD08D
:100A10001649087803F0BDFF14490968884203D1DC
:100A20004FF0FF301149086010480068401C03D1A6
:100A300003F0E7FD0D490860204610BD10B50446DF
:100A40000A2C02D10D20FFF7F9FF00BF204603F06A
:100A5000A0FFA042FAD110BD70B504460D46E0B229
:100A6000FFF7ECFF204670BD30080020340800205E
:100A700008B50121052006F0D9FB01211A4806F02E
:100A8000EEF94FF48070ADF8000048208DF80300B7
:100A90000121042006F0CAFB6946144806F010F94B
:100AA0004FF40060ADF8000048208DF803000121EC
:100AB000082006F0BBFB69460D4806F001F908BDA9
:100AC00010B500244FF48071084806F08AF900B987
:100AD00001244FF40061064806F083F908B944F098
:100AE0000204204610BD0000000230000008014052
:100AF000000C014002460020052A1AD008DC012A19
:100B00000FD0022A0ED0032A0DD0042A21D10BE0E7
:100B1000062A0FD0F02A0ED0FE2A16D0FF2A18D1AE
:100B20000DE016E015E014E0F94B1B680B600420A3
:100B30000FE00EE00DE003230B70012009E04023DD
:100B40000B7000234B70022003E040230B70012048
:100B500000BF00BF704708B5EE4909684FF47A72CC
:100B6000B1FBF2F1891C0322B1FBF2F148430146CB
:100B7000009100BF00BF009A521E0092FBD100BF3F
:100B800008BD18B502460B461078547840EA042197
:100B9000E0480068E04CB0FBF4F0801C0324B0FB9C
:100BA000F4F041430846009000BF00BF009C641E63
:100BB0000094FBD100BF00201870012018BD70B553
:100BC00004460D46207810B1012810D107E0627864
:100BD00002F00100D14A1268116888470BE0627880
:100BE00002F00100CD4A12685168884703E0FF20F7
:100BF0002870012070BD00BF002028700120F9E797
:100C000070B506460D46307808B9012400E0347806
:100C1000012C02D0022C0CD105E00120C049087043
:100C2000FFF7BDFD09E00220BD490870FFF799FDFF
:100C300003E000202870012070BD00BF2C7001204F
:100C4000FAE710B504460020B5490870FFF7C1FD6A
:100C500000202070012010BD10B50446FFF71BFDD9
:100C6000607000202070022010BD2DE9F04706467C
:100C7000884600240025002734787578B078F1780C
:100C800040EA0120317940EA0140717940EA016788
:100C900015F0010F07D014F0010F02D0FFF761FC2F
:100CA00001E0FFF763FC15F0020F08D014F0020F0B
:100CB00002D0FFF765FC02E000209A49086015F0B9
:100CC000040F02D0A010FFF79FFC15F0200F02D0F8
:100CD0006011FFF7B2FC15F0800F02D0E011FFF7B2
:100CE000B7FC002F52D09048874200D9074600BF7A
:100CF00000204FF0E02188618648006878438649EB
:100D0000B0FBF1F04FF0E02148610520086100BF21
:100D100000BF15F0010F04D0FFF71DFC604000D0AC
:100D200024E015F0020F05D0FFF724FC90EA6400E0
:100D300000D01BE015F0040F05D0FFF75CFC90EA33
:100D4000A40000D012E015F0200F05D0FFF773FCCF
:100D500090EA641000D009E015F0800F05D0FFF78D
:100D60006DFC90EAE41000D000E007E000BF4FF017
:100D7000E0200069C0F300400028CAD000BF00BFD7
:100D800000204FF0E021086100BF00BFFFF7E3FB48
:100D90008146FFF7EFFB49EA4009FFF72CFC49EADF
:100DA0008009FFF73EFC49EAC009FFF744FC49EA25
:100DB0004019FFF743FC49EAC010C4B288F800406C
:100DC0000120BDE8F08730B502460C461078557812
:100DD00040EA0520957840EA0540D57840EA056369
:100DE0001BB9FF202070012030BD4A480068B3EBDA
:100DF000900F04D301204A4D6870686014E0002011
:100E0000474D6870581E434D2D6800EB5500B0FBF0
:100E1000F3F1022905D9891E881C0325B0FBF5F1E1
:100E200000E001213E484160002020700120DBE706
:100E300070B504460D4614F8016B0EB94FF4807678
:100E40002146304600F0EEFE00202870012070BDE3
:100E500010B50246137803F00300401C304C207597
:100E6000C3F380042E48447500200870012010BD93
:100E700038B504460D462A480078012803D0FF20E3
:100E80002870012038BD6078A17840EA0120E1781F
:100E900040EA0140217940EA016000906946002063
:100EA00000F0F4FE002028700120EBE72DE9F04768
:100EB00004460D46002005F8010B4FF0010814F818
:100EC000019B12E014F8017B2A462146384601F0C6
:100ED0003FFA07F03F0606B94026F01DC608344425
:100EE00017F0800F01D03544B0445FEA0900A9F142
:100EF0000109E7D14046BDE8F087F0B502460E464D
:100F000012F8013B064883750025002117E0000018
:100F1000A0920008800A002040420F00000000203C
:100F2000A80A002098012142C0C62D0012F8014BEA
:100F3000FE484454083020F811502544491C994279
:100F4000F4D3002107E0F948405C2D1AF748183027
:100F500020F81150491C9942F5D30020307001202F
:100F6000F0BD70B506460C46F048183800780228E7
:100F700004D000BFFF202070012070BD3178EB4805
:100F80001838C175C07DE9491839897D884200DB70
:100F9000F0E70E2002F08BFA02F015F8054600206B
:100FA00020706570280AA070280CE070280E20714F
:100FB0000520E2E770B504460D46DC481838007895
:100FC000022804D000BFFF202870012070BD2178C6
:100FD000D6481838C175C07DD4491839897D8842F2
:100FE00000DBF0E7082002F062FA6078A17840EABE
:100FF0000120E17840EA0140217940EA016630466B
:1010000002F0C7F8002028700120DFE702461078C0
:10101000C64B183B18725078937840EA0323C348B4
:1010200018384381D078137940EA0323BF48183831
:10103000838100200870012070472DE9F04F85B0B2
:1010400006460C46002003900025A146A41CB84982
:10105000087082460290761C16F8010B04904FE14E
:1010600016F8018B18F0020F7ED0BAF1000F3DD0B8
:10107000AE481838478908F01100012811D100BF87
:101080006946404600F002FE0546022D1CD138009C
:10109000A7F101018FB217D0A54800780028EFD042
:1010A00012E000BF69460E2000F0F0FD0546022D5B
:1010B00008D13800A7F101018FB203D09C48007815
:1010C0000028EFD04FF0000A012D00D01FE100985A
:1010D00004F8010B0098000A04F8010B0098000CBA
:1010E00004F8010B0098000E04F8010B18F0100F23
:1010F0005FD03078717840EA0120B17840EA014051
:10110000F17840EA016B361D8848183880890190D3
:1011100018F0010F16D085481838478900BF002104
:10112000404600F0B3FD0546022D08D13800A7F176
:1011300001018FB203D07E4800780028EFD0012D46
:1011400000D0E4E000BF79481838478900BF6946FD
:10115000404600F09BFD0546022D0AD13800A7F15C
:1011600001018FB205D000E069E0714800780028E5
:10117000EDD0012D00D00FE06C48183800690099BF
:101180000840584508D00198411E89B2019118B114
:10119000674800780028D6D000BF64481838006936
:1011A00000990840584501D045F01005012D43D065
:1011B000ADE05E481838478918F0010F19D0BAF130
:1011C000000F39D100BF0021404600F05FFD054609
:1011D000022D08D13800A7F101018FB203D0544885
:1011E00000780028EFD0012D00D090E04FF0010AE8
:1011F00022E000BF6946404600F048FD0546022D4A
:1012000008D13800A7F101018FB203D04848007817
:101210000028EFD0012D00D079E0009804F8010BF0
:101220000098000A04F8010B0098000C04F8010B68
:101230000098000E04F8010B0020029058E0BAF16B
:10124000000F27D039481838478900BF69460E205B
:1012500000F01CFD0546022D08D13800A7F1010160
:101260008FB203D0324800780028EFD0012D00D093
:101270004DE0009804F8010B0098000A04F8010BF7
:101280000098000C04F8010B0098000E04F8010B04
:101290004FF0000A3078717840EA0120B17840EAD6
:1012A0000140F17840EA01600090361D18F0200FEF
:1012B00005D01E48183800990161012518E01B4827
:1012C0001838478900BF6946404600F0DFFC0546F4
:1012D000022D08D13800A7F101018FB203D01448C4
:1012E00000780028EFD0012D00D010E001200290FE
:1012F0000398401CC0B203900D48007800B106E08E
:101300000498411EC9B2049100287FF4A9AE00BF21
:10131000012D43D1BAF1000F2BD00448183847896A
:1013200000BF69460E2000F0B1FC03E0C00A0020B7
:10133000380800200546022D08D13800A7F1010128
:101340008FB203D0F94800780028EAD0012D00D0F0
:1013500025E0009804F8010B0098000A04F8010B3E
:101360000098000C04F8010B0098000E04F8010B23
:1013700014E0029890B1EE48478900BF00210E208A
:1013800000F084FC0546022D08D13800A7F10101C8
:101390008FB203D0E54800780028EFD000BF039853
:1013A00089F8000089F80150A4EB090005B0BDE8F8
:1013B000F08F2DE9F04F87B006460C4600200590CF
:1013C0000025A346A41CD94908708146049016F84C
:1013D000011BD748C175C07DD549897D884200DB96
:1013E00099E116F8010B069046E116F8017B17F01B
:1013F000010F01D00B2000E00A20824617F0020FF7
:1014000078D00498002846D0C948B0F80A80D14561
:1014100014D117F0100F11D100BFF8B201A902F0DA
:1014200053F80546022D24D15FEA0800A8F101080F
:101430001FD0BE4800780028EFD01AE0B9F10A0F9B
:1014400004D04FF00A09484602F031F800BF01A964
:101450000E2002F039F80546022D08D15FEA080097
:10146000A8F1010803D0B14800780028EFD000208F
:101470000490012D00D005E1019804F8010B0198BA
:10148000000A04F8010B0198000C04F8010B019804
:10149000000E04F8010B17F0100F60D0307871784F
:1014A00040EA0120B17840EA0140F17840EA016069
:1014B0000390361D9E4880890290D14503D0D146C5
:1014C000484601F0F4FF9A48B0F80A8000BFF8B22D
:1014D000002101F0F9FF0546022D08D15FEA08005E
:1014E000A8F1010803D0914800780028EFD0012D21
:1014F00001D0C7E056E000BF8D48B0F80A8000BFB9
:10150000F8B201A901F0E0FF0546022D08D15FEA1B
:101510000800A8F1010803D0844800780028EFD023
:10152000012D00D00EE0824800690199084003991E
:10153000884207D00298411E029118B17B4800787A
:101540000028D9D000BF7A48006901990840039962
:10155000884201D045F01005012D22D092E0049878
:1015600000281ED1D14503D0D146484601F09FFF47
:101570006F48B0F80A8000BFF8B2002101F0A4FF64
:101580000546022D08D15FEA0800A8F1010803D042
:10159000664800780028EFD0012D00D072E00120CD
:1015A000049062E0049878B3B9F10A0F04D04FF0C8
:1015B0000A09484601F07BFF5D48B0F80A8000BF89
:1015C00001A90E2001F080FF0546022D08D15FEA37
:1015D0000800A8F1010803D0544800780028EFD093
:1015E000012D00D04EE0019804F8010B0198000A8B
:1015F00004F8010B0198000C04F8010B0198000E8F
:1016000004F8010B002004903078717840EA012042
:10161000B17840EA0140F17840EA01600190361D5E
:1016200017F0200F04D042480199016101251CE008
:10163000D14503D0D146484601F039FF3C48B0F8C7
:101640000A8000BFF8B201A901F03EFF0546022D55
:1016500008D15FEA0800A8F1010803D033480078F8
:101660000028EFD0012D00D00CE00598401C05901B
:101670002E48007800B105E00698411E069100282A
:101680007FF4B3AE00BF012D44D1B9F10A0F04D0ED
:101690004FF00A09484601F00AFF049830B3244885
:1016A000B0F80A8000BF01A90E2001F00DFF054629
:1016B000022D08D15FEA0800A8F1010803D01B48F9
:1016C00000780028EFD0012D00D024E0019804F824
:1016D000010B0198000A04F8010B0198000C04F8B2
:1016E000010B0198000E04F8010B13E01048B0F84C
:1016F0000A8000BF00210E2001F0E6FE0546022D03
:1017000008D15FEA0800A8F1010803D00748007873
:101710000028EFD000BF05988BF800008BF801502F
:10172000A4EB0B0007B0BDE8F08F000038080020E4
:10173000A80A00202DE9F84F04460D464FF0000B93
:101740000026A846ED1C0020F9490870641C20788A
:10175000617840EA012AA41CBAF1000F00D194E09C
:1017600014F8017B17F0020F4FD017F0010F16D0BD
:10177000F048B0F80A9000BFF8B2002100F086FAF5
:101780000646022E08D15FEA0900A9F1010903D03B
:10179000E74800780028EFD0012E00D075E02EE059
:1017A000BAF1000F03D117F0010F00D00E27E14866
:1017B000B0F80A9000BFF8B2694600F067FA064632
:1017C000022E08D15FEA0900A9F1010903D0D84827
:1017D00000780028EFD0012E00D056E0009805F8E0
:1017E000010B0098000A05F8010B0098000C05F8A1
:1017F000010B0098000E05F8010B0BF1010B5FEADD
:101800000A00AAF1010ACBD13EE024E020786178F9
:1018100040EA0120A17840EA0140E17840EA016015
:101820000090241DC348B0F80A9000BFF8B2694682
:1018300000F02CFA0646022E08D15FEA0900A9F151
:10184000010903D0BA4800780028EFD0012E00D05B
:101850001BE00BF1010B5FEA0A00AAF1010AD5D1E6
:10186000B448B0F80A9000BF00210E2000F00EFA34
:101870000646022E08D15FEA0900A9F1010903D04A
:10188000AB4800780028EFD000BF88F800B04FEADE
:101890001B2088F8010088F80260A5EB0800BDE86D
:1018A000F88F2DE9FC5F04460D464FF0000B002633
:1018B000A946ED1C00209E49087014F8011B9D48A4
:1018C000C175C07D9B49897D884200DBADE02078F1
:1018D000617840EA0128A41CB8F1000F00D1A4E00F
:1018E00014F8017B17F0010F01D00B2000E00A2053
:1018F0000090009801F0DBFD17F0020F4FD08D48EB
:10190000B0F80AA000BFF8B2002101F0DDFD0646E4
:10191000022E08D15FEA0A00AAF1010A03D0844826
:1019200000780028EFD0012E00D07EE031E0B8F141
:10193000000F06D100980A2802D00A2001F0B7FD56
:101940000E277C48B0F80AA000BFF8B201A901F048
:10195000BBFD0646022E08D15FEA0A00AAF1010A81
:1019600003D0734800780028EFD0012E00D05CE04F
:10197000019805F8010B0198000A05F8010B019880
:10198000000C05F8010B0198000E05F8010B0BF196
:10199000010B5FEA0800A8F10108C8D144E024E087
:1019A0002078617840EA0120A17840EA0140E1789E
:1019B00040EA01600190241D5E48B0F80AA000BF13
:1019C000F8B201A901F080FD0646022E08D15FEAB7
:1019D0000A00AAF1010A03D0554800780028EFD088
:1019E000012E00D021E00BF1010B5FEA0800A8F105
:1019F0000108D5D100980A2802D00A2001F057FD2D
:101A00004C48B0F80AA000BF00210E2001F05CFD98
:101A10000646022E08D15FEA0A00AAF1010A03D0A5
:101A2000434800780028EFD000BF89F800B04FEAA3
:101A30001B2089F8010089F80260A5EB0900BDE8C8
:101A4000FC9F0246FF2008700120704770B50646D3
:101A50000D463078802807DB30789F2804DC294643
:101A60003046FFF7EEFF70BD307805F8010B16F831
:101A7000010B172873D2DFE800F00C141A2025653B
:101A8000802B9B2C32B4B4B4B4B4373D43494F558A
:101A90005F003078691CFFF72DF804462C70A01CFD
:101AA000E1E729463046FFF78AF804469EE02946DA
:101AB0003046FFF7A5F8044698E02846FFF7C1F83E
:101AC000044693E029463046FFF7A0FA04468DE02D
:101AD0008CE029463046FFF754F8044686E0284655
:101AE000FFF7BAF8044681E029463046FFF7BDF813
:101AF00004467BE029463046FFF765F9044675E069
:101B000029463046FFF794F904466FE029463046EF
:101B1000FFF79EF9044669E029463046FFF7C6F90B
:101B2000044663E029463046FFF7E7F904465DE0E6
:101B300038080020A80A002029463046FFF711FA8D
:101B4000044653E034480078012802D002280DD121
:101B500006E029463046FFF770FA04460BE040E005
:101B600029463046FFF725FC044604E00020287093
:101B70006870022400BF00BF38E0274800780128C1
:101B800002D002280CD105E029463046FFF7D2FDED
:101B900004460BE029463046FFF783FE044605E085
:101BA000002028706870A870032400BF00BF1DE0EB
:101BB00019480078012802D002280CD105E02946F6
:101BC0003046FFF755F9044609E029463046FFF74D
:101BD000F1F9044603E0FF202870022043E700BF2C
:101BE00004E0FF2005F8010C01203CE700BF601C69
:101BF00039E710B50948006840080949B0FBF1F021
:101C0000801E054948606421034841810120024942
:101C10000875FEF7DEFD10BDA80A0020800A00202E
:101C200040420F00F8B504460D4600272BE0641E25
:101C300017B915F8016B082716F0010F02D0FEF74F
:101C40009FFC02E00020FE4908604FF00000FD49C3
:101C50000860FD494868009000BF00BF0099491E18
:101C60000091FBD100BF0120F6490860F6494868A1
:101C7000009000BF00BF0099491E0091FBD100BF3A
:101C80007610781EC7B2002CD1D1F8BD2DE9F84FDF
:101C900006468A4600270120E94908604FF0000007
:101CA000EA49C1F89401E8494868009000BF00BFC4
:101CB0000099491E0091FBD100BF0120E149086055
:101CC000E1494868009000BF00BF0099491E00919B
:101CD000FBD100BF3546DA4805604FF00000DB4914
:101CE000C1F89401D8494868009000BF00BF00992E
:101CF000491E0091FBD100BF0120D2490860D249A2
:101D00004868009000BF00BF0099491E0091FBD1B8
:101D100000BF7819C7B27510C94805604FF00000C0
:101D2000CA49C1F89401C8494868009000BF00BF83
:101D30000099491E0091FBD100BF0120C1490860F4
:101D4000C1494868009000BF00BF0099491E00913A
:101D5000FBD100BF7819C7B2B510B94805604FF084
:101D60000000BA49C1F89401B7494868009000BF23
:101D700000BF0099491E0091FBD100BF0120B1496D
:101D80000860B1494868009000BF00BF0099491E33
:101D90000091FBD100BF7819C7B2F510A8480560C3
:101DA0004FF00000A949C1F89401A7494868009084
:101DB00000BF00BF0099491E0091FBD100BF012068
:101DC000A0490860A0494868009000BF00BF009982
:101DD000491E0091FBD100BF7819C7B2984807602F
:101DE0004FF000009949C1F8940197494868009064
:101DF00000BF00BF0099491E0091FBD100BF012028
:101E00009049086090494868009000BF00BF009961
:101E1000491E0091FBD100BF0020894908608B4911
:101E2000C1F8940188494868009000BF00BF00993C
:101E3000491E0091FBD100BF012082490860824900
:101E40004868009000BF00BF0099491E0091FBD177
:101E500000BF01207A4908604FF000007B49C1F8BB
:101E6000940179494868009000BF00BF0099491E5D
:101E70000091FBD100BF0120724908607249486897
:101E8000009000BF00BF0099491E0091FBD100BF28
:101E9000FEF790FB6C48047D1BE000206949086058
:101EA00069494868009000BF00BF0099491E009131
:101EB000FBD100BF01206349086063494868009076
:101EC00000BF00BF0099491E0091FBD100BF601EFA
:101ED000C4B2002CE1D100205A4908605A49486830
:101EE000009000BF00BF0099491E0091FBD100BFC8
:101EF00057480068C5B24FF001005449C1F8940139
:101F000051494868009000BF00BF0099491E0091E8
:101F1000FBD100BFA94600204A4908604A494868E9
:101F2000009000BF00BF0099491E0091FBD100BF87
:101F300047480068C5B24FF001004449C1F8940118
:101F400041494868009000BF00BF0099491E0091B8
:101F5000FBD100BF49EA450000F0FF0900203949E4
:101F6000086039494868009000BF00BF0099491EC9
:101F70000091FBD100BF36480068C5B24FF00100A8
:101F80003249C1F8940130494868009000BF00BF51
:101F90000099491E0091FBD100BF49EA850000F07D
:101FA000FF09B9F1010F7DD116F0020F7BD08846F1
:101FB0000027202426E000202249086022494868A2
:101FC000009000BF00BF0099491E0091FBD100BFE7
:101FD0001F480068C5B24FF001001C49C1F89401C8
:101FE00019494868009000BF00BF0099491E009140
:101FF000FBD100BF7819C7B24FEA580848EAC57844
:10200000601EC4B2002CD6D100200E4908600E49D3
:102010004868009000BF00BF0099491E0091FBD1A5
:1020200000BF0B480068C5B24FF001000749C1F876
:10203000940105494868009000BF00BF009909E07D
:102040009801214294012142A80A00200000214267
:1020500018012142491E0091F0D100BF87EA050016
:1020600010F0010F01D04FF00809BAF1000F01D0B4
:10207000CAF80080B248047D1EE00020B149086023
:10208000AF494868009000BF00BF0099491E009109
:10209000FBD100BF0120AB490860A9494868009006
:1020A00000BF01E0A4E00CE000BF0099491E0091D0
:1020B000FBD100BF601EC4B2002CDED1FEF76FFA68
:1020C0006BE09F48047D1BE000209E4908609C490E
:1020D0004868009000BF00BF0099491E0091FBD1E5
:1020E00000BF01209749086095494868009000BFEB
:1020F00000BF0099491E0091FBD100BF601EC4B211
:10210000002CE1D1FEF74BFADAF8008000272024FA
:1021100023E08D48C0F8988100208A4908608849EA
:102120004868009000BF00BF0099491E0091FBD194
:1021300000BF01208349086081494868009000BFC2
:1021400000BF0099491E0091FBD100BF07EB0800BA
:10215000C7B24FEA5808601EC4B2002CD9D17B48E0
:1021600007604FF000007849C1F89401744948684D
:10217000009000BF00BF0099491E0091FBD100BF35
:102180000120704908606E494868009000BF00BF98
:102190000099491E0091FBD100BF6948047A0CB335
:1021A00000206A4908601BE0002066490860644915
:1021B0004868009000BF00BF0099491E0091FBD104
:1021C00000BF01205F4908605D494868009000BF7A
:1021D00000BF0099491E0091FBD100BF601EC4B230
:1021E000002CE1D10120594908604846BDE8F88F2C
:1021F000B9F1020F02D0B9F1040F78D15048407DF7
:1022000010B316F0020F1FD021241BE000204D490F
:1022100008604B494868009000BF00BF0099491E04
:102220000091FBD100BF012046490860444948683D
:10223000009000BF00BF0099491E0091FBD100BF74
:10224000601EC4B2002CE1D13D48047D1BE000209B
:102250003C4908603A494868009000BF00BF0099B7
:10226000491E0091FBD100BF012036490860344966
:102270004868009000BF00BF0099491E0091FBD143
:1022800000BF601EC4B2002CE1D1FEF788F92C48D3
:10229000407D30B316F0020F23D100202B49086097
:1022A0004FF021041BE000202649086024494868BB
:1022B000009000BF00BF0099491E0091FBD100BFF4
:1022C0000120204908601E494868009000BF00BFF7
:1022D0000099491E0091FBD100BF601EC4B2002CC2
:1022E000E1D101201949086048467FE7FFE714481B
:1022F000007D2130C4B21BE0002012490860104963
:102300004868009000BF00BF0099491E0091FBD1B2
:1023100000BF01200B49086009494868009000BFD0
:1023200000BF0099491E0091FBD100BF601EC4B2DE
:10233000002CE1D1012005490860484656E700001D
:10234000A80A002094012142000021429801214264
:102350002DE9F84F04460F46904604F03F0606B9B3
:10236000402614F0400F03D00120F849086002E035
:102370000020F649086038E017F801AB00254FF05F
:10238000080926E00AF0FF00FEF73EF9FEF7EEF836
:10239000EF494868009000BF00BF0099491E0091B6
:1023A000FBD100BFFEF73DF98346FEF7DAF8E849B6
:1023B0004868009000BF00BF0099491E0091FBD102
:1023C00000BF4FEA5A0A6D0845EACB15A9F1010989
:1023D000761EB9F1000F01D0002ED3D125FA09F5F0
:1023E00014F0800F01D008F8015B002EC4D1BDE8C5
:1023F000F88F70B505460120D4490860FEF7B6F89D
:1024000000BF00BFFEF7ADF800BF00BFFEF7AEF89B
:1024100000BF00BFFEF7A5F800BF00BF0020CD49F8
:10242000C1F89801FEF7A2F800BF00BFFEF799F8C7
:1024300000BF00BFFEF79AF800BF00BFFEF791F89B
:1024400000BF00BF0120FEF7DFF8C148C17D20308A
:1024500030F8114008E0FEF789F800BF00BFFEF732
:1024600080F800BF00BF641E002CF4D1B848C17DC5
:102470001830405C441E0CE0E8B2FEF7C5F8FEF7E9
:1024800075F800BF00BFFEF76CF800BF00BF6D0815
:10249000641E002CF0D1AE48C17D303030F81140C0
:1024A00034B3E8B2FEF7B0F8FEF760F800BF00BF43
:1024B000FEF757F800BF00BF0120FEF7A5F8641E25
:1024C00008E0FEF753F800BF00BFFEF74AF800BF70
:1024D00000BF641E002CF4D101209C490860FEF767
:1024E00045F800BF00BFFEF73CF800BF00BF0EE09C
:1024F000012096490860E8B2FEF786F8FEF736F844
:1025000000BF00BFFEF72DF800BF00BF00BFFEF701
:102510002DF800BF00BFFEF724F800BF00BF002069
:102520008A490860FEF722F800BF00BFFEF719F8DD
:1025300000BF00BF0120FEF767F870BD2DE9F0472E
:1025400006468846012081490860FEF70FF800BF63
:1025500000BFFEF706F800BF00BF00207D49C1F8AC
:102560009801FEF703F800BF00BFFDF7FAFF00BFB8
:1025700000BFFDF7FBFF00BF00BFFDF7F2FF00BF8C
:1025800000BF7348C47D08E0FDF7F0FF00BF00BF47
:10259000FDF7E7FF00BF00BF641E002CF4D1C6F3B7
:1025A0004700FEF731F8FDF7E1FF00BF00BFFEF77F
:1025B00038F80746FDF7D5FF00BF00BF4FEA4709CF
:1025C000C6F38700FEF720F8FDF7D0FF00BF00BF7D
:1025D000FEF727F80746FDF7C4FF00BF00BF49EA32
:1025E0000709C6F3C700FEF70FF8FDF7BFFF00BFEE
:1025F00000BFFEF716F80746FDF7B3FF00BF00BFA8
:1026000049EA8709B9F1010F0BD001204F49086051
:10261000FDF7ACFF00BF00BFFDF7A3FF00BF00BF89
:10262000ABE016F0020F54D000251F240EE0FDF79A
:102630009DFF00BF00BFFDF7F4FF0746FDF791FFC8
:1026400000BF00BF45EAC7756D08641E002CEED1BF
:102650003F48817DC07D081A441E1CB3FDF786FFEC
:1026600000BF00BFFDF7DDFF0746FDF77AFF00BFA3
:1026700000BF641E08E0FDF779FF00BF00BFFDF753
:1026800070FF00BF00BF641E002CF4D101202F4951
:102690000860FDF76BFF00BF00BFFDF762FF00BFE2
:1026A00000BF0EE0012029490860FDF75FFF00BF71
:1026B00000BFFDF7B6FF0746FDF753FF00BF00BFA1
:1026C00000BF45EAC775B8F1000F55D0C8F80050F3
:1026D00052E0D8F800501F240CE0E8B2FDF794FF58
:1026E000FDF744FF00BF00BFFDF73BFF00BF00BF89
:1026F0006D08641E002CF0D11548817DC07D081A3C
:10270000441E4CB3E8B2FDF77FFFFDF72FFF00BF7B
:1027100000BFFDF726FF00BF00BF641E08E0FDF705
:1027200025FF00BF00BFFDF71CFF00BF00BF641EF8
:10273000002CF4D1012005490860FDF717FF00BF08
:1027400000BFFDF70EFF00BF00BF15E0980121425A
:10275000A80A002000002142FFE70120F849086094
:10276000E8B2FDF751FFFDF701FF00BF00BFFDF725
:10277000F8FE00BF00BF00BF00BFFDF7F7FE00BFBF
:1027800000BFFDF7EEFE00BF00BF0020EC4908606F
:10279000FDF7ECFE00BF00BFFDF7E3FE00BF00BF8A
:1027A0000120FDF731FFE748047A08E0FDF7DEFE7F
:1027B00000BF00BFFDF7D5FE00BF00BF00BF200077
:1027C000A4F10104F2D109F0FF00BDE8F08738B5AB
:1027D00005460120DA490860FDF7C8FED949486876
:1027E000009000BF00BF0099491E0091FBD100BFBF
:1027F000FDF7B7FED3494868009000BF00BF0099BD
:10280000491E0091FBD100BFFDF7B0FECD494868DD
:10281000009000BF00BF0099491E0091FBD100BF8E
:10282000FDF79FFEC7494868009000BF00BF0099B0
:10283000491E0091FBD100BF0020C1490860FDF78F
:1028400095FEC0494868009000BF00BF0099491E2E
:102850000091FBD100BFFDF784FEBA4948680090A3
:1028600000BF00BF0099491E0091FBD100BFFDF7DA
:102870007DFEB4494868009000BF00BF0099491E22
:102880000091FBD100BFFDF76CFEAE494868009097
:1028900000BF00BF0099491E0091FBD100BF01207D
:1028A000FDF7B2FEA748C17D203030F8114018E096
:1028B000FDF75CFEA3494868009000BF00BF009987
:1028C000491E0091FBD100BFFDF74BFE9D494868B2
:1028D000009000BF00BF0099491E0091FBD100BFCE
:1028E000641E002CE4D19748C17D1830405C441E22
:1028F0001CE0E8B2FDF788FEFDF738FE9149486814
:10290000009000BF00BF0099491E0091FBD100BF9D
:10291000FDF727FE8B494868009000BF00BF009973
:10292000491E0091FBD100BF6D08641E002CE0D150
:102930008448C17D303030F81140002C55D0E8B2C9
:10294000FDF762FEFDF712FE7E494868009000BF69
:1029500000BF0099491E0091FBD100BFFDF701FEA9
:1029600078494868009000BF00BF0099491E009157
:10297000FBD100BF0120FDF747FE641E18E0FDF704
:10298000F5FD70494868009000BF00BF0099491EDE
:102990000091FBD100BFFDF7E4FD6A494868009053
:1029A00000BF00BF0099491E0091FBD100BF641E0B
:1029B000002CE4D1012062490860FDF7D7FD614990
:1029C0004868009000BF00BF0099491E0091FBD1EC
:1029D00000BFFDF7C6FD5B494868009000BF00BF1F
:1029E0000099491E0091FBD11DE001205449086067
:1029F000E8B2FDF709FEFDF7B9FD524948680090BD
:102A000000BF00BF0099491E0091FBD100BFFDF738
:102A1000A8FD4C494868009000BF00BF0099491EBE
:102A20000091FBD100BFFDF7A1FD46494868009029
:102A300000BF00BF0099491E0091FBD100BFFDF708
:102A400090FD40494868009000BF00BF0099491EB2
:102A50000091FBD100BF002039490860FDF786FDD9
:102A600038494868009000BF00BF0099491E009196
:102A7000FBD100BFFDF775FD32494868009000BFEB
:102A800000BF0099491E0091FBD100BF0120FDF756
:102A9000BBFD38BD2DE9F84307468946012028498A
:102AA0000860FDF763FD27494868009000BF00BF3C
:102AB0000099491E0091FBD100BFFDF752FD21494D
:102AC0004868009000BF00BF0099491E0091FBD1EB
:102AD00000BF00201A490860FDF748FD1949486801
:102AE000009000BF00BF0099491E0091FBD100BFBC
:102AF000FDF737FD13494868009000BF00BF0099FB
:102B0000491E0091FBD100BFFDF730FD0D4948681B
:102B1000009000BF00BF0099491E0091FBD100BF8B
:102B2000FDF71FFD07494868009000BF00BF0099EE
:102B3000491E0091FBD100BF0248C47D1DE000008A
:102B400098012142A80A0020FDF710FDFE494868BF
:102B5000009000BF00BF0099491E0091FBD100BF4B
:102B6000FDF7FFFCF8494868009000BF00BF0099DE
:102B7000491E0091FBD100BF641E002CE4D1C7F3B5
:102B80004700FDF741FDFDF7F1FCEF494868009073
:102B900000BF00BF0099491E0091FBD100BFFDF7A7
:102BA00040FD0646FDF7DDFCE7494868009000BFA0
:102BB00000BF0099491E0091FBD100BF4FEA4608B3
:102BC000C7F38700FDF720FDFDF7D0FCDE4948681C
:102BD000009000BF00BF0099491E0091FBD100BFCB
:102BE000FDF71FFD0646FDF7BCFCD749486800907D
:102BF00000BF00BF0099491E0091FBD100BF48EA09
:102C00000608C7F3C700FDF7FFFCFDF7AFFCCE4990
:102C10004868009000BF00BF0099491E0091FBD199
:102C200000BFFDF7FEFC0646FDF79BFCC649486861
:102C3000009000BF00BF0099491E0091FBD100BF6A
:102C400048EA8608B8F1010F1BD00120BF4908608F
:102C5000FDF78CFCBC494868009000BF00BF00999C
:102C6000491E0091FBD100BFFDF77BFCB6494868C7
:102C7000009000BF00BF0099491E0091FBD100BF2A
:102C800043E117F0020F7DD000251F241EE0FDF761
:102C90006DFCAD494868009000BF00BF0099491E17
:102CA0000091FBD100BFFDF7BCFC0646FDF759FCC7
:102CB000A5494868009000BF00BF0099491E0091D7
:102CC000FBD100BF45EAC6756D08641E002CDED13D
:102CD0009D48817DC07D081A441E002C53D0FDF70D
:102CE00045FC99494868009000BF00BF0099491E03
:102CF0000091FBD100BFFDF794FC0646FDF731FCC7
:102D000091494868009000BF00BF0099491E00919A
:102D1000FBD100BF641E18E0FDF728FC8A49486813
:102D2000009000BF00BF0099491E0091FBD100BF79
:102D3000FDF717FC84494868009000BF00BF009968
:102D4000491E0091FBD100BF641E002CE4D101207C
:102D50007E490860FDF70AFC7B494868009000BF87
:102D600000BF0099491E0091FBD100BFFDF7F9FBA0
:102D700075494868009000BF00BF0099491E009146
:102D8000FBD11EE025E0012070490860FDF7EEFB55
:102D90006D494868009000BF00BF0099491E00912E
:102DA000FBD100BFFDF73DFC0646FDF7DAFB6649A7
:102DB0004868009000BF00BF0099491E0091FBD1F8
:102DC00000BF45EAC675B9F1000F01D0C9F800503F
:102DD0009AE0D9F800501F241CE0E8B2FDF714FC7B
:102DE000FDF7C4FB58494868009000BF00BF009938
:102DF000491E0091FBD100BFFDF7B3FB5249486863
:102E0000009000BF00BF0099491E0091FBD100BF98
:102E10006D08641E002CE0D14B48817DC07D081AEE
:102E2000441E002C52D0E8B2FDF7EEFBFDF79EFBEE
:102E300045494868009000BF00BF0099491E0091B5
:102E4000FBD100BFFDF78DFB3F494868009000BFF4
:102E500000BF0099491E0091FBD100BF641E18E01D
:102E6000FDF784FB38494868009000BF00BF009917
:102E7000491E0091FBD100BFFDF773FB3249486842
:102E8000009000BF00BF0099491E0091FBD100BF18
:102E9000641E002CE4D101202C490860FDF766FB7C
:102EA00029494868009000BF00BF0099491E009161
:102EB000FBD100BFFDF755FB23494868009000BFD8
:102EC00000BF0099491E0091FBD11DE001201F4960
:102ED0000860E8B2FDF798FBFDF748FB1A4948681F
:102EE000009000BF00BF0099491E0091FBD100BFB8
:102EF000FDF737FB14494868009000BF00BF0099F8
:102F0000491E0091FBD100BF00BFFDF72FFB0E490A
:102F10004868009000BF00BF0099491E0091FBD196
:102F200000BFFDF71EFB08494868009000BF00BFC6
:102F30000099491E0091FBD100BF002003490860A1
:102F4000FDF714FB004903E0A80A00209801214284
:102F50004868009000BF00BF0099491E0091FBD156
:102F600000BFFDF7FEFAFE494868009000BF00BFB1
:102F70000099491E0091FBD100BF0120FDF744FBE1
:102F8000F748047A17E0FDF7F1FAF5494868009030
:102F900000BF00BF0099491E0091FBD100BFFDF7A3
:102FA000E0FAEF494868009000BF00BF0099491E51
:102FB0000091FBD100BF2000A4F10104E3D108F08F
:102FC000FF00BDE8F883F8B50120E6490860FDF789
:102FD000CDFAE3494868009000BF00BF0099491E40
:102FE0000091FBD100BFFDF7BCFADD4948680090B5
:102FF00000BF00BF0099491E0091FBD100BF002017
:10300000D8490860FDF7B2FAD5494868009000BF7A
:1030100000BF0099491E0091FBD100BFFDF7A1FA46
:10302000CF494868009000BF00BF0099491E009139
:10303000FBD100BFFDF79AFAC9494868009000BF6C
:1030400000BF0099491E0091FBD100BFFDF789FA2E
:10305000C3494868009000BF00BF0099491E009115
:10306000FBD100BFBE48C57D18E0FDF77FFABC4923
:103070004868009000BF00BF0099491E0091FBD135
:1030800000BFFDF76EFAB6494868009000BF00BF68
:103090000099491E0091FBD100BF6D1E002DE4D1A7
:1030A00000241F251EE0FDF761FAAD494868009035
:1030B00000BF00BF0099491E0091FBD100BFFDF782
:1030C000B0FA0646FDF74DFAA5494868009000BFE2
:1030D00000BF0099491E0091FBD100BF44EAC674AD
:1030E00064086D1E002DDED101209E490860FDF7A9
:1030F0003DFA9B494868009000BF00BF0099491EF7
:103100000091FBD100BFFDF78CFA0646FDF729FAC6
:1031100093494868009000BF00BF0099491E009184
:10312000FBD100BF44EAC674FDF720FA8C49486819
:10313000009000BF00BF0099491E0091FBD100BF65
:10314000FDF70FFA86494868009000BF00BF00995C
:10315000491E0091FBD100BF002082490860FDF7A5
:1031600005FA7F494868009000BF00BF0099491EDA
:103170000091FBD100BFFDF7F4F979494868009050
:1031800000BF00BF0099491E0091FBD100BF20463F
:10319000F8BD38B50546012072490860FDF7E6F92B
:1031A0006F494868009000BF00BF0099491E009118
:1031B000FBD100BFFDF7D5F969494868009000BF11
:1031C00000BF0099491E0091FBD100BF0020654956
:1031D0000860FDF7CBF962494868009000BF00BF66
:1031E0000099491E0091FBD100BFFDF7BAF95C4977
:1031F0004868009000BF00BF0099491E0091FBD1B4
:1032000000BFFDF7B3F956494868009000BF00BF02
:103210000099491E0091FBD100BFFDF7A2F950496A
:103220004868009000BF00BF0099491E0091FBD183
:1032300000BF4B48C47D18E0FDF798F9484948683D
:10324000009000BF00BF0099491E0091FBD100BF54
:10325000FDF787F942494868009000BF00BF009918
:10326000491E0091FBD100BF641E002CE4D1002058
:10327000FDF7CAF9FDF77AF939494868009000BFAF
:1032800000BF0099491E0091FBD100BFFDF769F90D
:1032900033494868009000BF00BF0099491E009163
:1032A000FBD100BFFDF762F92D494868009000BFCF
:1032B00000BF0099491E0091FBD100BFFDF751F9F5
:1032C00027494868009000BF00BF0099491E00913F
:1032D000FBD100BFFDF74AF921494868009000BFC3
:1032E00000BF0099491E0091FBD100BFFDF739F9DD
:1032F0001B494868009000BF00BF0099491E00911B
:10330000FBD100BF1F241CE0E8B2FDF77DF9FDF7FB
:103310002DF913494868009000BF00BF0099491E6D
:103320000091FBD100BFFDF71CF90D4948680090E2
:1033300000BF00BF0099491E0091FBD100BF6D087E
:10334000641E002CE0D10648817DC07D081A441E11
:10335000002C57D0E8B2FDF757F9FDF707F903E065
:10336000A80A0020980121425F494868009000BFE8
:1033700000BF0099491E0091FBD100BFFDF7F1F895
:1033800059494868009000BF00BF0099491E00914C
:10339000FBD100BF641E18E0FDF7E8F85249486809
:1033A000009000BF00BF0099491E0091FBD100BFF3
:1033B000FDF7D7F84C494868009000BF00BF00995E
:1033C000491E0091FBD100BF641E002CE4D10120F6
:1033D00046490860FDF7CAF843494868009000BFB5
:1033E00000BF0099491E0091FBD100BFFDF7B9F85D
:1033F0003D494868009000BF00BF0099491E0091F8
:10340000FBD11DE0012039490860E8B2FDF7FCF866
:10341000FDF7ACF834494868009000BF00BF009940
:10342000491E0091FBD100BFFDF79BF82E4948686B
:10343000009000BF00BF0099491E0091FBD100BF62
:10344000FDF794F828494868009000BF00BF009934
:10345000491E0091FBD100BFFDF783F8224948685F
:10346000009000BF00BF0099491E0091FBD100BF32
:1034700000201E490860FDF779F81B494868009054
:1034800000BF00BF0099491E0091FBD100BFFDF7AE
:1034900068F815494868009000BF00BF0099491EB0
:1034A0000091FBD100BF0120FDF7AEF838BD10B58B
:1034B00004460D48407818B12046FEF79AFF02E016
:1034C0002046FFF784F910BD70B504460D46064846
:1034D000407820B129462046FFF730F870BD2946D4
:1034E0002046FFF7D7FAF9E7A80A00209801214201
:1034F00000B585B00121052003F098FE01214804A4
:1035000003F0A1FE0121042003F090FE012104201C
:1035100003F08CFE0220ADF8000010208DF80300AF
:1035200003208DF802006946864803F0C9FB10208D
:10353000ADF800008DF8030003208DF80200694605
:10354000804803F0BDFB0420ADF8000018208DF882
:10355000030003208DF8020069467A4803F0B0FBAF
:103560000820ADF8000048208DF803006946754832
:1035700003F0A6FB744803F0C1FE4FF4E130019064
:103580000020ADF80800ADF80A00ADF80C000C20E2
:10359000ADF80E000020ADF8100001A96A4803F054
:1035A000F0FE0121684803F078FF05B000BD70B55A
:1035B0004FF4FA7400250020644908606449C1F89A
:1035C00090014FF4FA6400BF2000A4F10104FBD184
:1035D00001205E4908605E49C1F890014FF4FA6429
:1035E00000BF2000A4F10104FBD17F21564803F065
:1035F000C1FF00BF8021544804F02AF80128F9D106
:1036000011E042F2107400BF2000A4F10104FBD1CC
:103610007F214D4803F0AEFF00BF80214A4804F0EF
:1036200017F80128F9D1484803F0A8FF792805D0F8
:1036300028466D1C41F288318842E2D3202142485D
:1036400004F006F82021404804F00FF84FF4FA6423
:1036500000203E4908603E49C1F8900100BF2000AB
:10366000A4F10104FBD1394908604FF00100384949
:10367000C1F8900170BD70B54FF4FA7400250020B8
:10368000324908603249C1F890014FF4FA6400BF32
:103690002000A4F10104FBD101202C4908602C4931
:1036A000C1F890014FF4C87400BF2000A4F10104D8
:1036B000FBD11CE04FF47A7400BF2000A4F1010498
:1036C000FBD10021204803F055FF00BF80211E4898
:1036D00003F0BEFF0128F9D1FF211B4803F04AFF88
:1036E00000BF8021184803F0B3FF0128F9D1164824
:1036F00003F044FF792805D028466D1C41F288313B
:103700008842D7D34FF4FA6400201049086010496A
:10371000C1F8900100BF2000A4F10104FBD10B49C6
:1037200008604FF001000A49C1F8900170BD704770
:1037300070477047704770477047704770477047D1
:103740007047704700080140004400408401214256
:103750000000214202465D48C078212804D022287A
:1037600024D0232833D130E058480079584B1B78B7
:10377000984201D0002070475648007828B9564832
:103780000078012801D10020F5E75348007810B9EE
:103790005248106001E052481060524B1B8810687C
:1037A0001844514B18600920086012E0474800791E
:1037B000474B1B78984201D00020DCE74B484A4B2E
:1037C00018604B480088086003E00020D3E7002021
:1037D000D1E700BF0120CEE710B53C4800793C4955
:1037E000097888425AD1394840780C2855D2DFE808
:1037F00000F054062E4154545454541D394C00F0DA
:103800008CF890B13148C078012803D13948364945
:10381000086006E02D48C078032802D136483249B6
:10382000086002F0F0FC012010BD36E02748C078A7
:10383000022803D131482C49086006E02348C078AB
:10384000032802D12C48284908600120ECE700F049
:103850009CF830B12A482449086002F0D4FC0120C9
:10386000E2E71AE000F099F818B102F0FEFC01203E
:10387000DAE712E000F0A9F830B121481A490860EF
:1038800002F0C1FC0120CFE707E000F0A5F818B175
:1038900002F0EBFC0120C7E700BF00BF0020C3E738
:1038A00010B50A4800790A49097888420CD10748BE
:1038B0004078092807D100F04BF818B102F0D5FC88
:1038C000012010BD00BF00BF0020FAE7380900202A
:1038D000BA920008B59200082D090020A0930008B4
:1038E00023940008789300083009002054930008BE
:1038F00076930008752D00201A090020B62D0020AF
:10390000342D0020704710B50446002010BD10B5BE
:10391000029C10BD00207047704710B50024FE487F
:10392000C078012804D0022804D0032806D103E07F
:10393000FA4C03E0002010BDF94C00BF00BFF64A6E
:103940009178D0780023224600F0F0FA0120F2E7C7
:1039500038B50024F048C078012804D0022804D0EB
:10396000032806D103E0002038BDEE4C01E0EC4C0A
:1039700000BF00BF0020E84A0090D3889178D0783B
:10398000224600F019FB0120EEE7E3488078E64983
:10399000085CE649087001207047DF48807830B144
:1039A000DD48C2788078401EDF4B1A540BE00021BE
:1039B00005E0D948C078DC4A5054481CC1B2DC4804
:1039C00000788142F5DB0120704710B5FFF7A2FFB8
:1039D000D6490870012010BD10B5CF498878FFF78F
:1039E0009BFF012010BD70B50646D2480088D24921
:1039F0000988884226DBD148006818BB0020D049DE
:103A00000860CC490880C548401E01780123421C4B
:103A1000184600F08BFAC84908800846008888B12B
:103A2000BE48401EC6490860C1480078012804DC31
:103A300008460068401C086004E0BF480088401C3D
:103A4000BD490880BC48008800285FD1BD48006897
:103A500018B10020BB49086058E0BB480068002846
:103A600054D0B348007801281BDCB7480068002810
:103A70004CD00020A949491E0870AE490880022395
:103A8000A64A0021012000F051FAAB4908800846FF
:103A9000008810B1A148AA4908600020AA4908601E
:103AA00034E09E48401E047800BF202C00DB002438
:103AB0000120A040A4490968084223D0601C97490E
:103AC000491E087000209B490880601CC1B2022377
:103AD000924A012000F02AFA974908800846008897
:103AE00040B18E48401E9649086093480088401CAB
:103AF000914908800120A040934909688143924878
:103B0000016002E0601CC4B2CFE700BF8A480088B1
:103B100010B98A480068A0B3874800888549098899
:103B2000401A85B289488A49097830F81100A842BC
:103B300004DA86488649097830F8115085490978B1
:103B400041F080002A467E49096802F0ECF97C4881
:103B5000006828447A4908607648008828447549F6
:103B60000880084600887C49098888420ADA774834
:103B70007749097830F81100A84203D101206F4934
:103B8000086002E000206D49086070BD38B5054648
:103B90007248008830B96348401E714908600020AF
:103BA0006E4908806E4801686E48007802F065F939
:103BB00084B26B48006820446949086067480088FF
:103BC00020446649088064B108460088664909882F
:103BD000884206DA5D485E49097830F81100A04253
:103BE0001DDD6248007801280ADC012000905B4856
:103BF00003884C4A521E0021022000F0DDF90BE040
:103C00000120009055480088431E4648401E017818
:103C1000421C022000F0D0F900205049088038BD35
:103C200000205349087047490860474908604449E3
:103C30000860414908803F49088040490860484978
:103C40000860464908804B4908604B490880704726
:103C500010B5044614F0080F02D02046FFF7C3FE4B
:103C600014F0040F02D02046FFF790FF10BD2DE99D
:103C7000F0414248007800284CD0002640480178A6
:103C80000078401C3E4A10703148007800EB40023A
:103C900004209040401E814203DB00203849087018
:103CA0000126002537480088FF2804DA35480088B7
:103CB000401C3449088034482549097830F81100FF
:103CC00030490988884200D101250024A1E04FF045
:103CD00000089EB12D48005DFF2804DA2B48005DE6
:103CE000401C2A4908552A48005D38B12748005D24
:103CF0002749095D884201DB4FF001082448005D37
:103D00001349097801EB41020221914088401E4984
:103D10000F4A3FE08FE0000038090020752D002099
:103D20001A090020B62D002018090020342D00208B
:103D3000C69200084E0800204C08002050080020C1
:103D4000480800204008002044080020C2920008D3
:103D50002D090020BB920008C892000858080020D6
:103D600054080020BC920008CA920008C7920008BC
:103D70003D0800205C080020600800201F0900208A
:103D80003C08002014090020BE92000816090020FB
:103D900017090020127831F81210884204DA4C48D2
:103DA000005D08B1012000E0002007463DB137B1B9
:103DB0000120A04047490968084346490860444833
:103DC000005D4549095D884213D04448005D424981
:103DD000095D884209DB0120A0403E49096808438B
:103DE0003C49086000203E4908703B48005D384966
:103DF0000855B8F1000F0AD037B90120A040354965
:103E00000968084333490860002034490855601C9C
:103E1000C4B2344800788442FFF659AF15B100208F
:103E2000314908802B48006828B13048008810B913
:103E30000020FFF7D8FDBDE8F08170B504460E46BE
:103E400015462B480088854201DD002070BD2948B9
:103E5000007800283AD00120274908600CE0254866
:103E6000007848B9002024490860244908602449A2
:103E700008801E490880E9E71C4800880028EED128
:103E8000204804702A463146401C04F039FE1D4883
:103E90001A49086000201A49088014490D80114809
:103EA0000078012805DC15480068401C13490860AB
:103EB00004E00E480088401C0C4908800020FFF7F1
:103EC00092FD0020054908550120BFE70020BDE70D
:103ED00017090020440800201809002016090020B6
:103EE0003C080020C6920008140900204C0800205D
:103EF000C89200081F090020400800204808002040
:103F00004E080020742D00200020D1490870D149AE
:103F10000860D14908600120D04908700020D049CC
:103F20000870D0490860D049086070472DE9F04119
:103F300004460F4615461E46012C02D0032C38D1EC
:103F400036E026B1012E04D0022E2FD100E000BFB2
:103F50002CE0C5480068C3490968884202D1C048BE
:103F60000078F8B1C148C04A126800EB82114022C3
:103F7000284604F0C5FDBC480068401CBA490860EA
:103F800008460068402801D100200860B648006853
:103F9000B4490968884202D10020B1490870402024
:103FA000BDE8F0810120AD49087000BF00BF00E00E
:103FB00000BF00BF0020F3E72DE9F0410646884628
:103FC00014461D46069F022E02D0032E36D134E041
:103FD00005B933E02078072807D1A548006818B153
:103FE000A34909688868804728E09948007830B17B
:103FF0009848006898490968884200D11EE09D49A8
:10400000944A126801EB82102A46214604F078FD9A
:1040100090480068401C8F490860084600684028A6
:1040200001D1002008608B4800688B4909688842EC
:1040300002D101208649087000E000BF00BFBDE842
:10404000F0812DE9F04704460D464FF0FF0A207835
:10405000D0286EDB2078D7286BDC207805F8010BA0
:1040600014F8010BD038082872D2DFE800F00412EF
:104070001518213356728048076805F8017B380A05
:1040800005F8010B380C05F8010B380E05F8010B8B
:1040900074E003F056FB71E003F05FFB6EE027680D
:1040A000384603F093FB042801D04FF0FF0A65E087
:1040B000D4F80080A68806E018F8011BFF2902D07A
:1040C0004FF0FF0A04E03000A6F101018EB2F3D1F7
:1040D00000BF53E02768A688382E02DD4FF0FF0AA4
:1040E0001AE0A41D12E014F8019B2EB114F8011B74
:1040F00049EA0129701E86B24946384603F069FC38
:10410000042802D04FF0FF0A05E0BF1C3000A6F1E2
:1041100001018EB2E7D100BF30E0D4F80080A6885C
:104120003E2E02DD4FF0FF0A11E0002005F8010BE2
:1041300008E027E016B998F800A003E018F8010B92
:1041400005F8010B3000A6F101018EB2F2D115E0A5
:1041500010E000BFBFF34F8F4848006800F4E060F4
:1041600047490843001D45490860BFF34F8F00BF12
:1041700000BFFEE76D1E4FF0FF0A00BF00BF85F8CD
:1041800000A017E03A48006890B1384BDFF8D4C07F
:10419000DCF800C003EB8C11364BDFF8BCC0DCF858
:1041A00000C003EB8C10324B1B685A68904701E04B
:1041B000FF202870BDE8F08710B527480068254922
:1041C0000968884203D12248007800283DD0274A58
:1041D000244B1B6802EB8311264A1F4B1B6802EB22
:1041E0008310FFF72EFF1C480068441C402C00D1B0
:1041F000002419480460006816490968884202D101
:104200000020134908701548007860B10020134958
:1042100008701648134A126800EB821140220020F1
:10422000FFF70BFE0FE00F480068441C402C00D144
:1042300000240C48046000680B490968884202D1D8
:10424000012007490870012010BD0020FCE7000094
:1042500064080020680800206C0800207008002016
:10426000710800207408002078080020E81A002057
:1042700004080020E80A0020002004E00CED00E023
:104280000000FA0510B5534800795349097888426F
:1042900005D05048007951490978884266D14D4887
:1042A0004078042833D007DC78B1012812D00228E6
:1042B0001BD0032859D11DE0202832D0212835D029
:1042C00022283ED0232850D145E045484549086082
:1042D000012010BD00F078FA30B141484149086032
:1042E00001F091FF0120F4E73FE03D483D490860BF
:1042F0000120EEE73749488800F06BFA30B13848C2
:104300003849086001F07FFF0120E2E72DE03149E4
:10431000488800F061FA18B101F0A7FF0120D8E742
:1043200023E02F482F4908600120D2E700F0B1FABE
:1043300030B12B482B49086001F065FF0120C8E728
:1043400013E02449488800F0C6FA18B101F08DFF47
:104350000120BEE709E01F49488800F040FA18B183
:1043600001F083FF0120B4E700BF00BF0020B0E7E9
:1043700010B51848007918490978884205D01548C1
:10438000007916490978884222D11248407820B134
:1043900002280AD020281AD111E000F013FA18B12F
:1043A00001F063FF012010BD11E00A49488800F0C8
:1043B0000DFA18B101F059FF0120F4E707E000F011
:1043C0004AFA18B101F051FF0120ECE700BF00BF2D
:1043D0000020E8E738090020D6920008D7920008AC
:1043E000342D00203009002070B50546DE4CA87938
:1043F000082801D0002070BD0020A080687920B17D
:10440000012809D002280BD102E00020208109E018
:104410004FF48060208105E04FF4C060208101E00E
:104420000020E8E700BF287920B1012809D0022840
:104430000BD102E00020E08009E04FF40050E08062
:1044400005E04FF44050E08001E00020D3E700BFDA
:104450002879C6490871A8798871687948712868EF
:104460000860286820600C2060810020A08121461F
:10447000BF4802F086FF012240F22551BC4803F0FC
:1044800018F80121BA4803F008F80120B3E710B585
:10449000262000F01F0201219140B64A430942F84C
:1044A000231000BF0020B4490860B4490860AF4938
:1044B000087108208871002048714FF4E1300860CD
:1044C0000846FFF791FF262000F01F0201219140CE
:1044D00042094FF0E02303EB8202C2F8001100BF53
:1044E000012010BD10B50121084602F09FFE0121F8
:1044F000480402F0A8FEFFF7CAFFA149A14802F054
:10450000DFFBA1499F4802F0DBFB012010BD10B585
:1045100000214FF4003002F096FE9C49994802F0C9
:10452000CFFB9B49974802F0CBFB012010BD10B593
:10453000FFF7ADFF10BD01468C48007908718B482C
:104540008079887189484079487188480068086096
:10455000012070470146012070472DE9F0410446D3
:104560000D4600261BE0681E85B28A48808889496E
:10457000C988401A0FFA80F8B8F1FF0F0FDC8548A0
:10458000078814F8011B0830C155781CC7B2814850
:1045900007808088401C00B27E498880761C002DF0
:1045A000E1D12EB1012240F22771714802F081FF62
:1045B0003046BDE8F08130B5024600201EE04B1EBB
:1045C00099B2754BB3F90430734CB4F90640A34269
:1045D00014D0714C63885C1C6F4D6C8005F108042D
:1045E000E45C02F8014B2B465B88DBB22C4663800F
:1045F0002346DB885B1C1BB2E380401C0029DED114
:1046000030BD08B501216846FFF7D5FF012802D16A
:104610009DF8000008BD4FF0FF30FBE701B5012118
:104620006846FFF79AFF012802D19DF8000008BDF7
:104630004FF0FF30FBE75848B0F904005649B1F994
:104640000610401A7047002070470020534909782F
:1046500011F0010F01D040F002005049097811F02B
:10466000040F01D040F004004449096831B94B49B6
:10467000097811F0020F01D040F00200704710B528
:1046800001203D4908603A4802F07DFF012010BD3D
:104690003A480068704770B5354800883F4908605F
:1046A00040F22551324802F0E9FF50B33A48808881
:1046B0003949C988401A05B2FF2D22DC2C4802F086
:1046C0005DFFC4B234490888411C334A118002F1AD
:1046D00008010C5444B90221254802F0B9FF18B171
:1046E00001202649086002E00020244908602A4889
:1046F0000088C0B22849088008468088401C00B263
:10470000888040F227711A4802F0B8FF20B31A4897
:104710000068012803D1164802F035FF23E01D4848
:10472000B0F904001B49B1F90610884215D01948A8
:104730004688701C174A508002F10800815D0C48C1
:1047400002F018FF13484088C0B21249488008465A
:10475000C088401C00B2C88005E0002240F22771EA
:10476000034802F0A6FE70BDF82C00208808002047
:104770000044004080E100E0800800208408002020
:10478000A492000800080140A8920008AC9200081A
:10479000B0920008E82A0020F02B00207C080020BE
:1047A000002070470020704700207047014600201D
:1047B00070470146002070470146002070470146BF
:1047C00000207047002070470020704701460020FD
:1047D000704701460020704701460020704701469F
:1047E0000020704710B5FFF77DFE10BD10B5FFF734
:1047F0008EFE10BD10B50020FD490860FD4908601F
:10480000FD490860FD490860FD490860FD48FE4912
:104810000860FE4908600020FD490870FD490870E5
:10482000FD490860FD490860FD48FE490860FE49F1
:1048300008600020FD490880FFF779FE4FF416500C
:10484000FB490860002008714871082088710846FB
:10485000FFF7CAFD10BD10B5F6480078F549497854
:1048600040EA0120F349897840EA0140F149C978DA
:1048700040EA0160EE490860EE4800790871ED48B1
:1048800040794871EB48807988710846FFF7ACFDA4
:1048900010BD10B5E648FFF74EFED0B1E4480078F1
:1048A000E4490870E2480088000A4870E04800685F
:1048B000000C8870DE480068000EC870DC48007983
:1048C0000871DB4840794871D948807988710120A6
:1048D00010BD0020FCE710B50446D44804802046F3
:1048E000FFF738FE10BDC5480068C5490968401A81
:1048F000D1490988081A70472DE9F04707460C4648
:10490000B846BE480068BE490968A0EB0109CA481C
:104910000088A0EB0906002E02DC0020BDE8F0872D
:10492000B44200DD34460025B7480068B74909683D
:1049300088421AD3B44800682044B249BE4A12885B
:104940001144884211D9AF48BB4909880844AE498F
:104950000968451A2A464146AB48006804F0D0F879
:10496000A844641BA748A849086054B122464146A0
:10497000A548006804F0C4F8A34800682044A24990
:1049800008602C449D48006820449C4908602046EB
:10499000C4E701B501216846FFF7AEFF012802D147
:1049A0009DF8000008BD4FF0FF30FBE770B50646EC
:1049B0000C469C4800689C490968884213D999486C
:1049C000006899490968451AAC4200DD2C46224628
:1049D00095480168304604F093F8934800682044F5
:1049E0009149086000E00024204670BD08B501210F
:1049F0006846FFF7DBFF012802D19DF8000008BDE3
:104A00004FF0FF30FBE78748006887490968401A84
:104A1000704710B5044689480078D0B1A120884974
:104A200008702020487000208870C8700871487194
:104A3000022088710020C8710C72201248728149CE
:104A4000097841F080000A227D4901F06CFA0120CA
:104A500010BD0020FCE710B5FFF7CCFE10BD10B56F
:104A60006448006800B910BD64480068644909687A
:104A7000441A34B96048006818B900205D490860DC
:104A8000F1E71CB95C480068002857D05F4800680F
:104A90005D490968884203D86748008884420FD17D
:104AA0005A48006820445749634A12881144884292
:104AB00006D9544860490988084454490968441A89
:104AC00061486249097830F81100A04204DA5E4872
:104AD0005E49097830F811405D49097841F080005D
:104AE00022464A49096801F01EFA484800682044F5
:104AF00046490860424800682044414908604148EE
:104B00004D490988084441490968884202D13D4815
:104B10003E490860394800683949096888420AD125
:104B200049484A49097830F81100A04203D10120D0
:104B30003149086002E000202F49086000BF92E779
:104B400010B5384800683649401A42490988081AA1
:104B50003D493E4A127831F81210884217DB31483D
:104B600001683D48007801F088F904462D48006846
:104B700020442C4908602848006898B125480078EE
:104B800080B925480068401E234908600AE00120DA
:104B9000224908601F48007820B11F480068401C67
:104BA0001D49086010BD10B519480078B8B91D48F6
:104BB00000681D490968884211D11A4800681849DF
:104BC00088420CD001201249087015481549086028
:104BD000154908600020114908600D4908700E4809
:104BE0000068D8B30A480078C0BB0C48006836E0BB
:104BF0009008002094080020980800209C080020BD
:104C0000A0080020362E0020A4080020A8080020BC
:104C1000AC080020AD080020B0080020B408002037
:104C2000762E0020B8080020BC080020C008002014
:104C3000C2080020342D0020DC9200081F0900204B
:104C4000B62E0020D8920008E49200082D0900201A
:104C5000D9920008DE920008DA92000815E0A0B9A7
:104C6000012038490870FFF76BFF002035490870B4
:104C70003548006835490968884206D032490968D4
:104C8000324A1268881AFFF79AFD3148006890B9D5
:104C90003048006878B93048006830490968401ADF
:104CA00009D001202A4908602A490860FFF7D7FE89
:104CB00000202749086010BD704710B50446214800
:104CC000007828B126480068401C2549086010BDBE
:104CD00001201C49087023490870FFF731FF0020AC
:104CE0002049087017490870174800681749096873
:104CF000884206D014490968144A1268881AFFF7D6
:104D00005EFD00BFE3E710B504461148006800B13E
:104D100010BD01200E490860FFF7A1FE00200C49DC
:104D2000086000BFF4E710B5044614F0040F02D089
:104D30002046FFF7C2FF14F0080F02D02046FFF70D
:104D4000E2FF10BDAC080020B8080020BC0800201D
:104D500090080020940800209C080020A008002053
:104D6000B0080020AD08002010B50446204600F031
:104D700053F810BD10B517480079174909788842D3
:104D800026D114484078FE280FD0FF281FD11148A3
:104D9000408848B90F48C08830B900F067F818B1AA
:104DA00001F063FA012010BD11E00A48408868B99B
:104DB0000848C088012809D100F061F830B10748DF
:104DC0000749086001F01FFA0120ECE700BF00BFAF
:104DD0000020E8E738090020CE920008342D00209A
:104DE00030090020704770477047704710B504467F
:104DF000204601F02EF814F0800F05D004F00F01CA
:104E00004FF48030884001E00120A040FE4909684D
:104E10000843FD49086010BD70B50646FB4800799F
:104E200000F08F0414F0800F05D004F00F014FF450
:104E30008030884001E00120A0400546F448007819
:104E400040F08000A04210D1EF48006828420CD00A
:104E5000F0480068F049884207D1ED49097841F0EF
:104E600080000D22EB4901F05EF870BD0020EB4997
:104E70000860E8490860EA4908700120704700208E
:104E8000E84908700120704710B5E348E14908601F
:104E9000DF49097841F080000D22DE4901F043F836
:104EA0000520DF49087010BD10B5DF480068DF49F4
:104EB0000860DD480068C8B9DD48806878B1DC4822
:104EC000007B10F0800F06D0D149097841F08000B6
:104ED000FFF78CFF03E0D7480078FFF787FF01203A
:104EE000CC490873FFF7D0FF002010BD0120FCE77C
:104EF00070B5D1480068D149096888420CD30024B4
:104F0000C349097841F08000FFF770FF0020C149D4
:104F10000873FFF7B9FF10E0C948CA49097830F8AB
:104F20001100C9490968884205D2C548C5490978B0
:104F300030F8114001E0C4480468FFF7B5FF00B93C
:104F40000024C2480068B8B9B4B1C1480068401E26
:104F5000BD4909680844BE490968B0FBF1F5BD4880
:104F60000068854201D9BB4805682A46BA480168ED
:104F7000B1480068FFF737FFACB1B74A1268B34BCE
:104F80001B68D118A24A127842F08000224600F035
:104F9000CAFFAE4800682044AC490860AA480068CF
:104FA000001BA9490860AB480068A9490968484343
:104FB000A6490968884209D10020A44908609E4892
:104FC0000068A449096808449B49086091488068C2
:104FD000001B9049886004B970BD9B48006810B9F7
:104FE00003208F4908708E480078022802D00020E4
:104FF0008849087300BFEFE710B58F4800688F49F4
:10500000096888420BD300209449086089480078D9
:10501000FFF7ECFE00207F490873FFF735FFFFF72D
:1050200043FF10B900208D490860002408E08C4837
:10503000005D864909682144874A12685054641CFF
:10504000864800688442F2D3804800688349096832
:1050500008447E4908607C48006880490968401A15
:10506000794908607D480068002840D008460068FB
:1050700010BB76480068F8B175480068401E734957
:105080000968084472490968B0FBF1F47148006886
:10509000844201D96F48046822466F480168664817
:1050A0000068FFF7A1FE00206849086062480068B8
:1050B0002044614908601AE066480068644909684C
:1050C000484362490968884211D1624802686248CF
:1050D000016859480068FFF787FE00205B490860B7
:1050E000554800685B4909680844534908604948C5
:1050F00080685A490968401A4649886057480068DC
:1051000000B910BD5048006818B14548007805281E
:1051100004D100203F490873FFF7B6FE00BFF0E757
:1051200010B5454800684549096888420BD30020FE
:105130004A4908603F480078FFF758FE002035498B
:105140000873FFF7A1FEFFF7AFFE10B90020434937
:10515000086042480068002832D03C480068C8B95E
:105160003E480068B0B13A480068401E36490968B8
:10517000084437490968B0FBF1F4364800688442B6
:1051800001D9344804682246334801682A48006837
:10519000FFF729FE00240EE02C48006820442E4929
:1051A0000968085C2E49095D884203D000202D491A
:1051B000086004E0641C294800688442ECD300BF06
:1051C00022480068254909680844204908601E48AB
:1051D000006822490968401A1B4908601D48006898
:1051E0001B490968484319490968884209D10020C8
:1051F00016490860104800681649096808440E49B5
:105200000860044880682FE0240900203809002045
:10521000CF920008272D0020555342532809002023
:10522000D8080020342D0020CC080020D40800200D
:10523000082D0020D0920008F4080020E808002083
:10524000D29200082D090020FC080020F808002058
:10525000E0080020E4080020EC08002000090020FD
:10526000F62D0020F0080020FC490968401AFC498E
:105270008860FA48006800B910BDFA48006818B1A3
:10528000F9480078052809D1F848006808B90120D4
:1052900000E00020F2490873FFF7F6FD00BFEBE7DE
:1052A00010B5F348407C0106F148807C41EA00419A
:1052B000EF48C07C41EA0020ED49097D40EA010445
:1052C000EC4804600020EC490860E948C07B2F28C6
:1052D0000BD004DC28280ED02A2828D104E0A828E6
:1052E00015D0AA2823D10CE000BFFFF7DDFD08B9D7
:1052F000002010BD00BFDE48C17D807D41EA002452
:1053000015E0FFF7D1FD08B90020F2E700BFD8484B
:10531000407D0106D648807D41EA0041D448C07DE9
:1053200041EA0020D249097E40EA010400BF00BFE3
:10533000D24800686043CB490860CD48806830B9E6
:105340000120C7490873FFF79FFD0020D1E7C84837
:105350008068C4490968884216D0C548007B10F0AF
:10536000800F06D0C649097841F08000FFF73EFD66
:1053700003E0C4480078FFF739FD0120B8490873FD
:10538000FFF782FD0020B4E70120B2E710B5B8486E
:10539000806830B90220B2490873FFF775FD00201C
:1053A00010BDB348007B10F0800F0AD1B5480078DB
:1053B000FFF71CFD0220AA490873FFF765FD0020D6
:1053C000EEE70120ECE710B5A9488068A349096819
:1053D000884207D8A6488068A04908600320A249EF
:1053E000087002E00420A0490870A549097841F03E
:1053F00080009A490A68A44900F095FD98488068A1
:1054000096490968401A964988600020087310BDC3
:1054100010B597488068A8B19548007B10F0800FC0
:1054200006D09749097841F08000FFF7DFFC03E0E0
:1054300094480078FFF7DAFC012089490873FFF7E8
:1054400023FD10BDFFF730FD00B9FAE700208449C5
:105450000873FFF719FD00BFF3E710B5FFF796FFDC
:1054600000B910BD70208849087000204870874836
:1054700000688749096848408549096808420BD097
:1054800006208149887028200873002048738048CE
:1054900000687E4908601AE07D48006838B902203B
:1054A000794988703A200873002048730FE06C48EF
:1054B000007B28B90020744988700873487306E09F
:1054C000052071498870202008730020487300204F
:1054D0006D49C8700871487188710A20C871002030
:1054E000087248728872C8728873C87308744874E6
:1054F00012205A490860FFF766FF00BFB1E770B598
:10550000FFF744FF00B970BD00205F49087080209C
:10551000487002208870C8702020087100204871EF
:105520008871C8715B48056808240BE0287820B1B1
:1055300015F8010B5449085502E02020524908553E
:10554000601CC4B2242CF1DB242044490860FFF71E
:105550003AFF00BFD7E710B54548807C78B944488A
:10556000C07C00F001004A49086008460068FFF767
:105570003CFC00203A490873FFF786FC10BD01206F
:1055800037490873FFF780FC00BFF7E710B53848CC
:10559000C07C10F0010F03D001203149087302E0F4
:1055A00000202F490873FFF76FFC10BD10B5FFF7FF
:1055B000EDFE00B910BDFFF777FC00B9FAE7032054
:1055C000314908700020487033480078C007000E49
:1055D00088700020C8700420204908602048806836
:1055E0000968884207D91D480068214988601B481E
:1055F00000681B498860FFF7E6FE00BFDAE710B5D8
:10560000FFF7C4FE00B910BDFFF74EFC00B9FAE782
:1056100000201D49087006204870002088701E4830
:105620000078C007000EC8700020087148718871AA
:10563000C8710820094908600948806809688842DB
:1056400007D9064800680A49886004480068044988
:105650008860FFF7B8FE00BFD5E700000009002012
:10566000272D0020FC080020D8080020F00800208A
:10567000082D0020F4080020F8080020E008002091
:10568000CF920008D0920008F62D0020D408002008
:10569000CC0800200C090020D008002010B5FFF72E
:1056A00075FE00B910BDFFF7FFFB00B9FAE7F84837
:1056B0000068401E000EF7490870F5480068401E5B
:1056C000000C4870F2480088401E000A8870F048BC
:1056D0000078401EC870F0480068000E0871EE485F
:1056E0000068000C4871EC480088000A8871EA489C
:1056F0000078C8710820E9490860FFF764FE00BF20
:10570000D0E710B5FFF742FE00B910BDFFF7CCFBA4
:1057100000B9FAE70020DF49087048708870082057
:10572000C870DB480068000E0871D9480068000C9A
:105730004871D7480088000A8871D5480078C87138
:1057400002200872D4480068000C4872D2480088D1
:10575000000A8872D0480078C8720C20CF490860CF
:10576000CF4880680968884207D9CC480068CD498D
:105770008860CA480068CA498860FFF724FE00BFF5
:10578000C3E710B50020C6490873FFF77DFB10BDC5
:1057900010B5FFF7FBFD00B910BD0220BD49087030
:1057A0004870BE4908600320BF490870BC48806843
:1057B000BA490968884207D9B8480068B949886079
:1057C000B6480068B6498860B849097841F0800059
:1057D000B2490A68AF4900F0A6FBB1488068AF49FA
:1057E0000968401AAE4988600120087300BFD3E7FA
:1057F00010B5FFF7CBFD00B910BD2020A5490870FA
:1058000000204870C8772020A44908600320A649DA
:105810000870A649097841F08000A0490A689D49AE
:1058200000F081FB9E4880689C490968401A9C49A9
:1058300088600120087300BFDEE710B5002404E093
:105840009448005D97490855641C94480068844258
:10585000F6D3944800689649884220D18F48006862
:105860001F286ED18F4800688842FAD18D48406861
:105870008B4948608B48806888608A48407B002854
:1058800007DC8848807B012803DB8648807B102862
:1058900006DD00BF012082490873FFF7F5FADCE05E
:1058A0008048C07B282856D017DC1A283FD00BDC54
:1058B000042831D003DC48B3032872D129E0122830
:1058C0002BD01528F9D131E01B2829D01E282AD049
:1058D000232833D02528F0D134E0912879D00CDC6E
:1058E000352877D004DC2A284ED02F28E5D165E072
:1058F00055281FD05A28E0D11DE09E2828D0A12885
:1059000023D0A82828D0AA28D7D13EE0FFF780FDD1
:1059100080E0FFF7A2FD7DE0BCE7FFF7F0FD79E056
:10592000FFF719FE76E0FFF731FE73E0B2E7FFF70D
:105930003DFE6FE0AEE7FFF762FE6BE0FFF7E1FED2
:1059400068E068E0FFF7AAFE64E0FFF721FF61E08E
:10595000FFF74EFF5EE000BFFFF7A2FC98B1514891
:10596000007B10F0800F05D002204F490870FFF730
:10597000BFFA08E04F480078FFF738FA022048499C
:105980000873FFF781FA45E000BFFFF789FCA0B17B
:105990004448007B10F0800F04D101204249087078
:1059A0000BE036E04149097841F08000FFF71EFA2C
:1059B00002203B490873FFF767FA2BE03948007C67
:1059C00010F0020F07D1002035490873FFF75CFA89
:1059D00020E01BE019E0FFF763FCA8B13148007B31
:1059E00010F0800F05D101202F490870324908605E
:1059F0000AE02E49097841F08000FFF7F7F902200C
:105A000027490873FFF740FA04E000BFFFF7B9FE2B
:105A100000E03FE721E02549097841F08000FFF7E9
:105A2000E5F92248007800F00F014FF480308840FB
:105A3000224909680843214908601E480078FFF799
:105A4000D5F91C480178012088401C4909680843A1
:105A50001A49086006201449087010BD10B5124894
:105A60000078022806D003282AD004282BD0052845
:105A700036D131E00B48C07B282802D0A82804D1B9
:105A800000E000BFFFF734FA00BF00BF28E00000CD
:105A9000E8080020F62D0020E00800200009002082
:105AA000272D0020082D0020D8080020CF920008C4
:105AB00055534243D0920008F008002028090020E6
:105AC000FFF7E2F90CE02D49097841F08000FFF77B
:105AD0008DF9FFF7D9F903E000202949087000BFCC
