:020000040800F2
:10000000C0320020658A00086D8A0008390900089E
:10001000718A0008738A0008758A000800000000D1
:10002000000000000000000000000000778A0008C7
:10003000798A0008000000007B8A00087D8A000899
:100040007F8A00087F8A00087F8A00087F8A00086C
:100050007F8A00087F8A00087F8A00087F8A00085C
:100060007F8A00087F8A00087F8A00087F8A00084C
:100070007F8A00087F8A00087F8A00087F8A00083C
:100080007F8A00087F8A00087F8A00087F8A00082C
:100090002D1300087F8A00087F8A00087F8A0008E5
:1000A0007F8A00087F8A00087F8A00087F8A00080C
:1000B0007F8A00087F8A00087F8A00087F8A0008FC
:1000C0007F8A00087F8A00087F8A00087F8A0008EC
:1000D0007F8A00087F8A0008731700087F8A00085B
:1000E0007F8A00087F8A00087F8A00087F8A0008CC
:1000F0007F8A00087F8A00087F8A00087F8A0008BC
:100100007F8A00087F8A00087F8A00087F8A0008AB
:100110007F8A00087F8A00087F8A00087F8A00089B
:100120007F8A00087F8A00087F8A00087F8A00088B
:10013000DFF80CD008F0BAFC00480047D5020008F0
:10014000C032002010B500F0ABFC10F0010F05D05C
:10015000B2480068401CB149086002E00020AF4985
:100160000860AE480068AE49884202DD0020AB4915
:10017000086010BD704710B5AA4804F095FCAA4865
:1001800004F092FCA94804F08FFCA94804F08CFC10
:10019000A84804F089FCA84804F086FCA7488069B8
:1001A00040F01D00A54988610121A54804F0ABFD80
:1001B00000F073FA00F0E3FA00F095FA04F0C9FBDE
:1001C00000F046FC00F089F900F0ADF900F076F996
:1001D00010BD08B5002400F04BFEFFF7CCFF00F087
:1001E000A8F998A20221002004F028FB4FF47A70AD
:1001F00000F043FA00F097F900F06BF995480068B9
:1002000038B19448944908600846006801689348EA
:10021000884732224FF47A714FF4E15000F0DDFA52
:100220008FA20221002004F009FB06F08FFE0120BE
:1002300006F097FE322000F020FA00208D49086079
:10024000002400BF06F0A6FE28B92046641C40F634
:10025000FF718842F6D300BF00F01FFA00F039F9B1
:1002600000208449086084488449086084A20221EF
:10027000002004F0E3FA10200B230022022100905A
:10028000282004F099FA80A20421002004F0D6FA74
:100290007FA20621002004F0D1FA32224FF4FA6145
:1002A0004FF4E15000F099FA00F014FC11E000F076
:1002B00073FB7949096808447749086000F074FBCA
:1002C00076490968084475490860FFF753FFFFF74E
:1002D00039FFECE7FFF77DFF10B500F05DFB6E49DD
:1002E000096808446C49086000F05EFB6B490968C6
:1002F00008446A49086010BD10B5002400F013F9E5
:100300005448006838B153485349086008460068AB
:1003100001685248884706F019FE012006F021FEC8
:10032000322000F0AAF9002400BF06F033FE28B9FD
:100330002046641C40F6FF718842F6D340F6FE70FA
:10034000844203D300205649087002E0012054493A
:10035000087010BD10B504F0CFF952A20021084674
:1003600004F06CFA10BD00BF00F082FDFFF703FF40
:1003700000F0DFF8FFF7EEFFFFF7BEFF32224FF489
:10038000FA614FF4E15000F028FA00F0A3FB05E019
:10039000FFF7F0FEFFF7D6FEFFF79EFFF8E710B578
:1003A00004F02EFD4FF4803004F04AFD04F087FD88
:1003B0000446012C24D1102005F00CF9022005F090
:1003C000F5F8002004F0C1FD002004F0D0FDA002EB
:1003D00004F0C4FD4FF4E011200404F099FD012065
:1003E00004F0A2FD00BF392004F04DFD0028FAD032
:1003F000022004F09CFD00BF04F0A2FD0828FBD100
:1004000010BD10B500F056F800F063F8002006F0BB
:10041000A8FD06F0ACFD00F08FFA10BD1808002012
:10042000A086010000080140000C014000100140BE
:100430000014014000180140001C0140001002405F
:10044000000230005553425F54455354204D6F64B1
:10045000656C0000349E000800080020009200082F
:1004600055534220436F6E6E65637474696E672ED8
:100470002E2E000020080020400D0300240800203C
:10048000564241543A000000484944203A000000D6
:10049000554152543A00000008080020040800208A
:1004A0001C080020426F61726420756E6465666985
:1004B0006E6564000020FC49086070470120FA491D
:1004C00008607047F948006880F48060F749086068
:1004D00070470020F649086070470120F449086021
:1004E0007047F248006880F00100F04908607047EA
:1004F00000B5024612F0010F02D0FFF7DBFF01E06A
:10050000FFF7DCFF00BD00B5024612F0010F02D07C
:10051000FFF7DFFF01E0FFF7E0FF00BD4FF4004011
:10052000E449086070474FF40040E249091F086041
:10053000704770477047DF4808380068C0F34010C4
:1005400070472020DB49091F086070472020D949E7
:1005500008607047D7480C380068C0F380107047B7
:100560004020D449091F08607047D2480C38006801
:1005700010F0400F01D0012070470020FCE7CD486B
:100580001438006820F0706040F04070C949143998
:1005900008607047C7481438006820F0706040F069
:1005A0000060C449143908607047C24814380068B4
:1005B00020F4700040F44010BE49143908607047C0
:1005C000BC481438006820F4700040F40000B949B9
:1005D000143908607047B548006810F0070F01D063
:1005E000012070470020FCE710F0010F04D0072124
:1005F000AE4A121D116003E00721AC4A08321160B7
:100600007047AC480C38006810F0070F01D001208B
:1006100070470020FCE7002070477047A348001F88
:10062000006810F0800F01D0012070470020FCE727
:1006300010F0010F04D007219C4A121D116003E045
:1006400007219A4A08321160704798480C380068B0
:1006500020F0704040F0E04094490C390860704749
:1006600092480C38006820F0704040F080408F497C
:100670000C3908607047002070478F4909684FF4B3
:100680007A72B1FBF2F1891C0622B1FBF2F1484308
:1006900000BF411E0800FCD170471CB587480068A8
:1006A00001908648001D006800908548806940F0F0
:1006B0000800834988610121052004F00BFD4FF4F7
:1006C00080607A490831086001A978480C3804F044
:1006D0004BFA0120754908310860694673480C38A7
:1006E00004F042FA1CBD1CB5744808300068009044
:1006F000FFF719FF7248806940F004007049886173
:1007000069466C48143804F02FFAFFF70CFF0121FA
:10071000052004F0DFFC01216A4804F0F4FA4FF4EC
:100720000040ADF8040003208DF8060010208DF87D
:10073000070001A95F48143804F016FAFFF7F3FE2A
:100740001CBD1CB55D480C30006801905B48103042
:100750000068009067205749091F086080205349AE
:1007600008310860FFF77CFF01A95248143804F0F3
:10077000FBF969464F48143804F0F6F91CBD08B57A
:100780004E4814300068009060204A49091F0860F4
:10079000802046490831086069464648143804F00C
:1007A000E3F9FFF7DDFE002047490860FFF758FF37
:1007B00008BD1CB541481830006801903F481C3006
:1007C0000068009001A93B48143804F0CDF969464F
:1007D00036480C3804F0C8F91CBD70B588B0064620
:1007E0000C4615460121052004F074FC0121084641
:1007F00004F07DFC0120ADF81C0003208DF81E00E4
:1008000018208DF81F0007A92A48143804F0ACF905
:10081000701E80B2ADF81000601E80B2ADF81400FA
:100820000020ADF81600ADF8120004A94FF080408A
:1008300005F06EFA0121880705F0C6FE0121880740
:1008400005F0C2FD0121880706F084F80121880720
:1008500005F0BAFD6020ADF800004FF08040808DBB
:100860006843642190FBF1F080B2ADF806000020EF
:10087000ADF808000120ADF802006946800705F0D8
:1008800084FA0121880705F0ABFD0821C80605F0B0
:10089000CBFE0121880705F097FE0121880705F0AE
:1008A00093FD08B070BD0000A88121420C0C0140EE
:1008B0008081214214080140340800200892000879
:1008C00000100240000230009401214270B5002463
:1008D00000F029FF054615F0040F01D044F0400454
:1008E00015F0020F01D044F0400415F0010F01D0C3
:1008F00044F0100400F015FF054615F0080F01D074
:1009000044F0080415F0040F01D044F0020415F07F
:10091000020F01D044F0010400F028FF08B144F0B8
:1009200004041A480068604005D0A0B206F063F9DC
:1009300008B11648046070BDFFF7AFFE002312E057
:10094000FFF7C7FDFA20FFF798FEFFF7C6FDFFF798
:10095000B1FDFA20FFF791FEFFF7B0FD4FF47A707A
:10096000FFF78BFE5B1C052BEADB00BFBFF34F8F4D
:100970000748006800F4E06006490843001D044988
:100980000860BFF34F8F00BF00BFFEE728080020BC
:100990000CED00E00000FA0510B501F0C7F808B151
:1009A000012010BD0020FCE710B50024FFF78EFFEA
:1009B00025480068401C07D106F00AF92249086062
:1009C00008460068214908601F480068401C0BD099
:1009D00001241D49087800F08FFE1B4909688842F0
:1009E00002D1A01E1849086018480068401C0BD0AE
:1009F0001649087806F0BFF814490968884203D1FF
:100A00004FF0FF301149086010480068401C03D1C6
:100A100000F065FE0D490860204610BD10B5044683
:100A20000A2C02D10D20FFF7F9FF00BF204606F087
:100A3000A2F8A042FAD110BD70B504460D46E0B24E
:100A4000FFF7ECFF204670BD2C0800203008002086
:100A500008B50121052004F03DFB01211A4804F0EE
:100A600052F94FF48070ADF8000048208DF8030073
:100A70000121042004F02EFB6946144804F074F8A8
:100A80004FF40060ADF8000048208DF8030001210C
:100A9000082004F01FFB69460D4804F065F808BD06
:100AA00010B500244FF48071084804F0EEF800B946
:100AB00001244FF40061064804F0E7F808B944F057
:100AC0000204204610BD0000000230000008014072
:100AD000000C014000B585B00121052004F0FAFAB0
:100AE0000121480404F003FB0121042004F0F2FA80
:100AF0000121042004F0EEFA0220ADF800001020DD
:100B00008DF8030003208DF802006946864804F042
:100B10002BF81020ADF800008DF8030003208DF8AD
:100B200002006946804804F01FF80420ADF8000078
:100B300018208DF8030003208DF8020069467A48DA
:100B400004F012F80820ADF8000048208DF80300EA
:100B50006946754804F008F8744804F023FB4FF424
:100B6000E13001900020ADF80800ADF80A00ADF8C2
:100B70000C000C20ADF80E000020ADF8100001A90B
:100B80006A4804F052FB0121684804F0DAFB05B022
:100B900000BD70B54FF4FA74002500206449086068
:100BA0006449C1F890014FF4FA6400BF2000A4F139
:100BB0000104FBD101205E4908605E49C1F8900143
:100BC0004FF4FA6400BF2000A4F10104FBD17F219F
:100BD000564804F023FC00BF8021544804F08CFCEC
:100BE0000128F9D111E042F2107400BF2000A4F1F5
:100BF0000104FBD17F214D4804F010FC00BF80218F
:100C00004A4804F079FC0128F9D1484804F00AFC6C
:100C1000792805D028466D1C41F288318842E2D3FC
:100C20002021424804F068FC2021404804F071FC77
:100C30004FF4FA6400203E4908603E49C1F8900133
:100C400000BF2000A4F10104FBD1394908604FF036
:100C500001003849C1F8900170BD70B54FF4FA74C5
:100C600000250020324908603249C1F890014FF454
:100C7000FA6400BF2000A4F10104FBD101202C493B
:100C800008602C49C1F890014FF4C87400BF2000DF
:100C9000A4F10104FBD11CE04FF47A7400BF2000E2
:100CA000A4F10104FBD10021204804F0B7FB00BFF0
:100CB00080211E4804F020FC0128F9D1FF211B48A7
:100CC00004F0ACFB00BF8021184804F015FC01289B
:100CD000F9D1164804F0A6FB792805D028466D1CEA
:100CE00041F288318842D7D34FF4FA64002010498A
:100CF00008601049C1F8900100BF2000A4F1010470
:100D0000FBD10B4908604FF001000A49C1F890017E
:100D100070BD7047704770477047704770477047A5
:100D2000704770477047704700080140004400401A
:100D3000840121420000214208B500200090704843
:100D4000006840F480306E49086000BF6C4800685D
:100D500010F4003F03D10098B0F5A06FF6D16848B9
:100D6000006810F4003F08D16548006820F4803026
:100D7000634908600120009001E000200090614874
:100D8000006840F010005F4908600846006820F0E5
:100D9000030008600846006840F0020008605848F8
:100DA00040685749486008464068486008464068BF
:100DB00040F4806048600846406820F47C10486039
:100DC000009828B10846406840F4D000486005E02B
:100DD0004B48406840F4E81049494860484800687A
:100DE00040F080704649086000BF4548006810F038
:100DF000007FFAD04248406820F003004049486034
:100E00000846406840F00200486000BF3C48406827
:100E100000F00C000828F9D108BD10B5FFF78CFFD1
:100E200010BD10B53648006840F001003449086034
:100E3000084640683449084031494860084600681F
:100E4000324908402E4908600846006820F4802096
:100E500008600846406820F4FE0048604FF41F0018
:100E60008860FFF7DAFF4FF000602949086010BD85
:100E700010B5002100200022214B5B6803F00C011B
:100E800021B1042906D0082928D107E0214B224CA2
:100E9000236027E01F4B204C236023E0184B5B6846
:100EA00003F47010164B5B6803F48032022303EBEB
:100EB000904022B9194B4343174C23600DE0104B6F
:100EC0005B6813F4003F04D0144B4343124C23607F
:100ED00003E0104B4343104C236003E00D4B0E4CDA
:100EE000236000BF00BF064B5B68C3F303130C4CC9
:100EF000E15C094B1B68CB40074C236010BD000030
:100F000000100240002002400000FFF8FFFFF6FE44
:100F100008ED00E000127A003408002000093D00CE
:100F20003808002006F018BD0020704700207047E8
:100F30000020704700207047002070470020704755
:100F40000020704700207047002070470020704745
:100F500005F073BE10B506F026FDBDE8104005F0A3
:100F600014BF7047002070470020704710B500F094
:100F700085FC06F065FEBDE8104005F025BD704714
:100F800030B500F00F01FE4B042404FB01331A6856
:100F900010F0800F08D048F6CF731340F84C0425AA
:100FA00005FB0144236007E04CF68F731340F44CBB
:100FB000042505FB0144236030BD70B500F00F022D
:100FC000EF4C042505FB0244236810F0800F0BD082
:100FD00001F030045C4048F6BF752C40E84D042613
:100FE00006FB02552C600AE001F440545C404BF6CD
:100FF0008F752C40E24D042606FB02552C6070BD17
:1010000014200121814042094FF0E02303EB8202CA
:10101000C2F8001100BF704700B5DA48C06940F45B
:101020000000D849C861FFF7EBFF00BD10B50446CA
:1010300074B10120D2494031086000200860091DC8
:1010400008604FF4E050091F0860FFF767FA05E0F9
:101050000320CB4940310860FFF765FA10BD00203E
:10106000C74944310860C848006808B1481400E026
:10107000002040F41C40C449096811B14FF480417C
:1010800000E000210843C149096811B14FF4007123
:1010900000E000210843BD49096811B14FF4807197
:1010A00000E000210843B649403108605020B849AB
:1010B00008800020B24950310860B5480088B54921
:1010C00009680860B24800884030B1490880084685
:1010D0000088B04909688860AD4800884030AC4954
:1010E000088048F2FF70AB490968C8604FF4485067
:1010F000A34908608020A2494C3108607047A0488D
:101100004030006840F008009D49403108600846C2
:10111000006840F00400086070477047984840300D
:10112000006820F008009649403108607047704719
:1011300001B1704740F08002914B4C331A6000BF00
:10114000F7E730B95021924A118011460988803161
:101150001180704710B50246937803F00F01908814
:10116000937813F0800F0AD0894B1B88894C246830
:1011700004EB01142360431C23F0010020E0844BA6
:101180001B88844C246804EB0114A3603E280ED90C
:1011900000F11F0323F01F000123C3EB401343F4AE
:1011A00000437C4C246804EB0114E36008E0431C1A
:1011B00023F001004302774C246804EB0114E36040
:1011C000734B1B880344724C2380D37813F00303C2
:1011D00006D0012B07D0022B08D0032B0FD10BE038
:1011E0004FF400700BE04FF4806008E00020002313
:1011F0000BB140F4807002E04FF4C06000BF00BF4C
:1012000008435F4B042404FB0133186010BD704792
:1012100010B5044643F220012046FFF7CEFE10BD74
:1012200010B5044600212046FFF7C7FE10BD10B5DB
:1012300004462046FFF7A4FE10BD10B5044641F257
:1012400010012046FFF7B9FE10BD10B50446204638
:10125000FFF796FE43F230012046FFF7AEFE10BDC9
:1012600070472DE9F04305460C4605F00F06494846
:10127000006800EB061080684749022202FB001953
:101280004448006800EB06108089C0F309074FF05E
:10129000000805E039F8041B2180A41C08F10108AE
:1012A000781CB8EB500FF5D34FF440512846FFF7A8
:1012B00084FE3846BDE8F0832DE9F04707460D4629
:1012C000144607F00F063348006800EB061000686C
:1012D0003149022202FB001A4FF0000805E028887D
:1012E0004AF8040BAD1C08F10108601CB8EB500F64
:1012F000F5D32848006800EB06104460204804211C
:1013000001FB060000681FFA80F909F03000102880
:1013100003D030213846FFF750FE2046BDE8F08765
:10132000174848300068C0F30A00704770B5144889
:101330004430046814F4806F0ED0FFF790FE05F07F
:1013400016FE1648006810B11448006880476FF414
:1013500080600B494431086014F4006F0CD0FFF733
:10136000CEFE0F48006810B10D48006880476FF44A
:10137000006003494431086014F4805F1ED011E01E
:10138000005C004000100240749200087092000857
:101390005C080020580800200060004060920008AF
:1013A00064920008FFF7BAFE4148006810B1404857
:1013B000006880476FF480503E49086014F4007F55
:1013C00009D03D48006810B13B48006880476FF481
:1013D00000703849086014F4804F0AD0374800681C
:1013E00018B102203549096888476FF480403149B7
:1013F000086014F4005F0AD03048006818B101207A
:101400002E49096888476FF400502A49086014F48F
:10141000807F03D06FF480702649086025480068FB
:10142000044610F4004F42D06FF400402149086098
:1014300004F00F051F484438042101FB050006682D
:1014400016F4004F19D026F4004048F68F7108407A
:1014500018494439042202FB05110860184850F865
:10146000250050B116F4006F01D0022200E00422E2
:101470001046134A52F82510884716F0800F16D0F0
:1014800026F0800048F68F7108400A49443904224A
:1014900002FB051108600A4850F8250028B10848E9
:1014A00050F825100820884701E000BFFEE770BD16
:1014B00068920008445C0040709200087492000832
:1014C0007892000870B50546DE4CA879082801D04E
:1014D000002070BD0020A080687920B1012809D0CB
:1014E00002280BD102E00020208109E04FF4806047
:1014F000208105E04FF4C060208101E00020E8E792
:1015000000BF287920B1012809D002280BD102E0C0
:101510000020E08009E04FF40050E08005E04FF447
:101520004050E08001E00020D3E700BF2879C649A1
:101530000871A879887168794871286808602868F6
:1015400020600C2060810020A0812146BF4803F06C
:101550006CFE012240F22551BC4803F0FEFE012141
:10156000BA4803F0EEFE0120B3E710B5262000F0E4
:101570001F0201219140B64A430942F8231000BFDF
:101580000020B4490860B4490860AF4908710820D8
:101590008871002048714FF4E13008600846FFF779
:1015A00091FF262000F01F020121914042094FF0D7
:1015B000E02303EB8202C2F8001100BF012010BD3E
:1015C00010B50121084603F085FD0121480403F010
:1015D0008EFDFFF7CAFFA149A14803F0C5FAA14952
:1015E0009F4803F0C1FA012010BD10B500214FF44F
:1015F000003003F07CFD9C49994803F0B5FA9B4903
:10160000974803F0B1FA012010BD10B5FFF7ADFF08
:1016100010BD01468C48007908718B48807988712B
:1016200089484079487188480068086001207047FF
:101630000146012070472DE9F04104460D46002681
:101640001BE0681E85B28A4880888949C988401A8B
:101650000FFA80F8B8F1FF0F0FDC8548078814F8FF
:10166000011B0830C155781CC7B2814807808088AB
:10167000401C00B27E498880761C002DE1D12EB13D
:10168000012240F22771714803F067FE3046BDE841
:10169000F08130B5024600201EE04B1E99B2754B1A
:1016A000B3F90430734CB4F90640A34214D0714C22
:1016B00063885C1C6F4D6C8005F10804E45C02F8E3
:1016C000014B2B465B88DBB22C4663802346DB88CC
:1016D0005B1C1BB2E380401C0029DED130BD08B585
:1016E00001216846FFF7D5FF012802D19DF80000CF
:1016F00008BD4FF0FF30FBE701B501216846FFF759
:101700009AFF012802D19DF8000008BD4FF0FF307C
:10171000FBE75848B0F904005649B1F90610401AE1
:1017200070470020704700205349097811F0010FDD
:1017300001D040F002005049097811F0040F01D0A7
:1017400040F004004449096831B94B49097811F067
:10175000020F01D040F00200704710B501203D4952
:1017600008603A4803F063FE012010BD3A48006863
:10177000704770B5354800883F49086040F22551F0
:10178000324803F0CFFE50B33A4880883949C988BF
:10179000401A05B2FF2D22DC2C4803F043FEC4B2F0
:1017A00034490888411C334A118002F108010C5465
:1017B00044B90221254803F09FFE18B101202649B3
:1017C000086002E00020244908602A480088C0B26E
:1017D0002849088008468088401C00B2888040F272
:1017E00027711A4803F09EFE20B31A4800680128AA
:1017F00003D1164803F01BFE23E01D48B0F9040096
:101800001B49B1F90610884215D019484688701C4A
:10181000174A508002F10800815D0C4803F0FEFD7C
:1018200013484088C0B2124948800846C088401C0E
:1018300000B2C88005E0002240F22771034803F09F
:101840008CFD70BD440E00206C0800200044004058
:1018500080E100E06408002068080020C8950008C6
:1018600000080140CC950008D0950008D4950008E8
:10187000340C00203C0D0020600800200020D149DD
:101880000870D1490860D14908600120D04908702A
:101890000020D0490870D0490860D04908607047DE
:1018A0002DE9F04104460F4615461E46012C02D094
:1018B000032C38D136E026B1012E04D0022E2FD1D0
:1018C00000E000BF2CE0C5480068C34909688842B1
:1018D00002D1C0480078F8B1C148C04A126800EB94
:1018E00082114022284607F0CFF8BC480068401C0F
:1018F000BA49086008460068402801D10020086005
:10190000B6480068B4490968884202D10020B1494C
:1019100008704020BDE8F0810120AD49087000BF8B
:1019200000BF00E000BF00BF0020F3E72DE9F04159
:101930000646884614461D46069F022E02D0032EF8
:1019400036D134E005B933E02078072807D1A5481F
:10195000006818B1A34909688868804728E0994859
:10196000007830B19848006898490968884200D1E9
:101970001EE09D49944A126801EB82102A462146D6
:1019800007F082F890480068401C8F4908600846BC
:101990000068402801D1002008608B4800688B490E
:1019A0000968884202D101208649087000E000BF22
:1019B00000BFBDE8F0812DE9F04704460D464FF029
:1019C000FF0A2078D0286EDB2078D7286BDC2078BF
:1019D00005F8010B14F8010BD038082872D2DFE8A3
:1019E00000F004121518213356728048076805F874
:1019F000017B380A05F8010B380C05F8010B380E8D
:101A000005F8010B74E003F0F0FD71E003F0F9FD5F
:101A10006EE02768384603F02DFE042801D04FF011
:101A2000FF0A65E0D4F80080A68806E018F8011BDC
:101A3000FF2902D04FF0FF0A04E03000A6F10101B7
:101A40008EB2F3D100BF53E02768A688382E02DD9E
:101A50004FF0FF0A1AE0A41D12E014F8019B2EB10A
:101A600014F8011B49EA0129701E86B2494638461E
:101A700003F003FF042802D04FF0FF0A05E0BF1C6B
:101A80003000A6F101018EB2E7D100BF30E0D4F8FA
:101A90000080A6883E2E02DD4FF0FF0A11E00020F4
:101AA00005F8010B08E027E016B998F800A003E05C
:101AB00018F8010B05F8010B3000A6F101018EB2F8
:101AC000F2D115E010E000BFBFF34F8F4848006827
:101AD00000F4E06047490843001D45490860BFF332
:101AE0004F8F00BF00BFFEE76D1E4FF0FF0A00BF23
:101AF00000BF85F800A017E03A48006890B1384B65
:101B0000DFF8D4C0DCF800C003EB8C11364BDFF8F3
:101B1000BCC0DCF800C003EB8C10324B1B685A6869
:101B2000904701E0FF202870BDE8F08710B52748F6
:101B3000006825490968884203D1224800780028B6
:101B40003DD0274A244B1B6802EB8311264A1F4BCA
:101B50001B6802EB8310FFF72EFF1C480068441C33
:101B6000402C00D100241948046000681649096817
:101B7000884202D10020134908701548007860B1EE
:101B80000020134908701648134A126800EB8211AE
:101B90004022002005F0EDFF0FE00F480068441CD4
:101BA000402C00D100240C48046000680B490968EF
:101BB000884202D1012007490870012010BD002091
:101BC000FCE7000074080020780800207C08002052
:101BD0008008002081080020840800208808002058
:101BE000541E002000080020540E0020002004E0B5
:101BF0000CED00E00000FA0510B50446044804604E
:101C000001F089F810BD01200249087070470000FA
:101C10008C0800209008002002460020052A1AD0D7
:101C200008DC012A0FD0022A0ED0032A0DD0042A84
:101C300021D10BE0062A0FD0F02A0ED0FE2A16D0B2
:101C4000FF2A18D10DE016E015E014E0F94B1B68EF
:101C50000B6004200FE00EE00DE003230B70012069
:101C600009E040230B7000234B70022003E0402367
:101C70000B70012000BF00BF704708B5EE4909682E
:101C80004FF47A72B1FBF2F1891C0322B1FBF2F13D
:101C900048430146009100BF00BF009A521E0092C7
:101CA000FBD100BF08BD18B502460B46107854782A
:101CB00040EA0421E0480068E04CB0FBF4F0801CEE
:101CC0000324B0FBF4F041430846009000BF00BF7E
:101CD000009C641E0094FBD100BF002018700120FE
:101CE00018BD70B504460D46207810B1012810D1FA
:101CF00007E0627802F00100D14A12681168884753
:101D00000BE0627802F00100CD4A12685168884702
:101D100003E0FF202870012070BD00BF0020287064
:101D20000120F9E770B506460D46307808B9012460
:101D300000E03478012C02D0022C0CD105E0012007
:101D4000C0490870FEF71BFD09E00220BD4908707C
:101D5000FEF7F7FC03E000202870012070BD00BFF3
:101D60002C700120FAE710B504460020B549087030
:101D7000FEF71FFD00202070012010BD10B50446A5
:101D8000FEF779FC607000202070022010BD2DE964
:101D9000F0470646884600240025002734787578E9
:101DA000B078F17840EA0120317940EA0140717958
:101DB00040EA016715F0010F07D014F0010F02D0BF
:101DC000FEF7BFFB01E0FEF7C1FB15F0020F08D0E4
:101DD00014F0020F02D0FEF7C3FB02E000209A4984
:101DE000086015F0040F02D0A010FEF7FDFB15F0FF
:101DF000200F02D06011FEF710FC15F0800F02D00A
:101E0000E011FEF715FC002F52D09048874200D910
:101E1000074600BF00204FF0E02188618648006837
:101E200078438649B0FBF1F04FF0E021486105208E
:101E3000086100BF00BF15F0010F04D0FEF77BFB67
:101E4000604000D024E015F0020F05D0FEF782FBC1
:101E500090EA640000D01BE015F0040F05D0FEF7F7
:101E6000BAFB90EAA40000D012E015F0200F05D0D4
:101E7000FEF7D1FB90EA641000D009E015F0800F66
:101E800005D0FEF7CBFB90EAE41000D000E007E0BD
:101E900000BF4FF0E0200069C0F300400028CAD026
:101EA00000BF00BF00204FF0E021086100BF00BF6D
:101EB000FEF741FB8146FEF74DFB49EA4009FEF77C
:101EC0008AFB49EA8009FEF79CFB49EAC009FEF754
:101ED000A2FB49EA4019FEF7A1FB49EAC010C4B2CF
:101EE00088F800400120BDE8F08730B502460C4676
:101EF0001078557840EA0520957840EA0540D57875
:101F000040EA05631BB9FF202070012030BD4A481C
:101F10000068B3EB900F04D301204A4D68706860ED
:101F200014E00020474D6870581E434D2D6800EBAB
:101F30005500B0FBF3F1022905D9891E881C032541
:101F4000B0FBF5F100E001213E4841600020207027
:101F50000120DBE770B504460D4614F8016B0EB99D
:101F60004FF480762146304600F0EEFE00202870C7
:101F7000012070BD10B50246137803F00300401C29
:101F8000304C2075C3F380042E484475002008703F
:101F9000012010BD38B504460D462A4800780128B6
:101FA00003D0FF202870012038BD6078A17840EA76
:101FB0000120E17840EA0140217940EA0160009087
:101FC0006946002000F0F4FE002028700120EBE7B5
:101FD0002DE9F04704460D46002005F8010B4FF0AF
:101FE000010814F8019B12E014F8017B2A462146EF
:101FF000384601F03FFA07F03F0606B94026F01DCB
:10200000C608344417F0800F01D03544B0445FEA6D
:102010000900A9F10109E7D14046BDE8F087F0B514
:1020200002460E4612F8013B064883750025002142
:1020300017E00000D89500083408002040420F0047
:102040008C080020542E002098012142C0C62D008B
:1020500012F8014BFE484454083020F81150254432
:10206000491C9942F4D3002107E0F948405C2D1A3D
:10207000F748183020F81150491C9942F5D3002038
:1020800030700120F0BD70B506460C46F048183897
:102090000078022804D000BFFF202070012070BD0E
:1020A0003178EB481838C175C07DE9491839897D08
:1020B000884200DBF0E70E2002F08BFA02F015F800
:1020C0000546002020706570280AA070280CE0707A
:1020D000280E20710520E2E770B504460D46DC4865
:1020E00018380078022804D000BFFF202870012093
:1020F00070BD2178D6481838C175C07DD4491839CB
:10210000897D884200DBF0E7082002F062FA6078FF
:10211000A17840EA0120E17840EA0140217940EAD3
:102120000166304602F0C7F8002028700120DFE782
:1021300002461078C64B183B18725078937840EAE4
:102140000323C34818384381D078137940EA032326
:10215000BF481838838100200870012070472DE99E
:10216000F04F85B006460C46002003900025A1469E
:10217000A41CB849087082460290761C16F8010B20
:1021800004904FE116F8018B18F0020F7ED0BAF1DF
:10219000000F3DD0AE481838478908F011000128DB
:1021A00011D100BF6946404600F002FE0546022DEF
:1021B0001CD13800A7F101018FB217D0A5480078D3
:1021C0000028EFD012E000BF69460E2000F0F0FDBD
:1021D0000546022D08D13800A7F101018FB203D0C6
:1021E0009C4800780028EFD04FF0000A012D00D065
:1021F0001FE1009804F8010B0098000A04F8010B95
:102200000098000C04F8010B0098000E04F8010B74
:1022100018F0100F5FD03078717840EA0120B17863
:1022200040EA0140F17840EA016B361D88481838D1
:102230008089019018F0010F16D085481838478919
:1022400000BF0021404600F0B3FD0546022D08D135
:102250003800A7F101018FB203D07E480078002832
:10226000EFD0012D00D0E4E000BF7948183847894D
:1022700000BF6946404600F09BFD0546022D0AD18D
:102280003800A7F101018FB205D000E069E0714884
:1022900000780028EDD0012D00D00FE06C481838F0
:1022A000006900990840584508D00198411E89B23C
:1022B000019118B1674800780028D6D000BF644863
:1022C0001838006900990840584501D045F01005BC
:1022D000012D43D0ADE05E481838478918F0010F52
:1022E00019D0BAF1000F39D100BF0021404600F0EB
:1022F0005FFD0546022D08D13800A7F101018FB21C
:1023000003D0544800780028EFD0012D00D090E091
:102310004FF0010A22E000BF6946404600F048FD48
:102320000546022D08D13800A7F101018FB203D074
:10233000484800780028EFD0012D00D079E00098BF
:1023400004F8010B0098000A04F8010B0098000C37
:1023500004F8010B0098000E04F8010B0020029015
:1023600058E0BAF1000F27D039481838478900BF24
:1023700069460E2000F01CFD0546022D08D13800EC
:10238000A7F101018FB203D0324800780028EFD0C6
:10239000012D00D04DE0009804F8010B0098000AD0
:1023A00004F8010B0098000C04F8010B0098000ED3
:1023B00004F8010B4FF0000A3078717840EA0120F0
:1023C000B17840EA0140F17840EA01600090361DA2
:1023D00018F0200F05D01E4818380099016101251A
:1023E00018E01B481838478900BF6946404600F08E
:1023F000DFFC0546022D08D13800A7F101018FB29C
:1024000003D0144800780028EFD0012D00D010E050
:10241000012002900398401CC0B203900D48007840
:1024200000B106E00498411EC9B2049100287FF46F
:10243000A9AE00BF012D43D1BAF1000F2BD0044843
:102440001838478900BF69460E2000F0B1FC03E050
:102450006C2E0020900800200546022D08D138007F
:10246000A7F101018FB203D0F94800780028EAD023
:10247000012D00D025E0009804F8010B0098000A17
:1024800004F8010B0098000C04F8010B0098000EF2
:1024900004F8010B14E0029890B1EE48478900BFA0
:1024A00000210E2000F084FC0546022D08D13800E2
:1024B000A7F101018FB203D0E54800780028EFD0E2
:1024C00000BF039889F8000089F80150A4EB0900C7
:1024D00005B0BDE8F08F2DE9F04F87B006460C46F9
:1024E000002005900025A346A41CD9490870814608
:1024F000049016F8011BD748C175C07DD549897D68
:10250000884200DB99E116F8010B069046E116F8C7
:10251000017B17F0010F01D00B2000E00A2082465A
:1025200017F0020F78D00498002846D0C948B0F8B8
:102530000A80D14514D117F0100F11D100BFF8B2A5
:1025400001A902F053F80546022D24D15FEA0800E4
:10255000A8F101081FD0BE4800780028EFD01AE08B
:10256000B9F10A0F04D04FF00A09484602F031F8D9
:1025700000BF01A90E2002F039F80546022D08D14E
:102580005FEA0800A8F1010803D0B14800780028EC
:10259000EFD000200490012D00D005E1019804F84F
:1025A000010B0198000A04F8010B0198000C04F8D3
:1025B000010B0198000E04F8010B17F0100F60D00A
:1025C0003078717840EA0120B17840EA0140F17832
:1025D00040EA01600390361D9E4880890290D145F3
:1025E00003D0D146484601F0F4FF9A48B0F80A807B
:1025F00000BFF8B2002101F0F9FF0546022D08D115
:102600005FEA0800A8F1010803D09148007800288B
:10261000EFD0012D01D0C7E056E000BF8D48B0F8E3
:102620000A8000BFF8B201A901F0E0FF0546022DC3
:1026300008D15FEA0800A8F1010803D084480078B7
:102640000028EFD0012D00D00EE0824800690199EA
:1026500008400399884207D00298411E029118B1A0
:102660007B4800780028D9D000BF7A4800690199DA
:1026700008400399884201D045F01005012D22D071
:1026800092E0049800281ED1D14503D0D146484697
:1026900001F09FFF6F48B0F80A8000BFF8B2002138
:1026A00001F0A4FF0546022D08D15FEA0800A8F159
:1026B000010803D0664800780028EFD0012D00D033
:1026C00072E00120049062E0049878B3B9F10A0F37
:1026D00004D04FF00A09484601F07BFF5D48B0F88E
:1026E0000A8000BF01A90E2001F080FF0546022DDF
:1026F00008D15FEA0800A8F1010803D05448007827
:102700000028EFD0012D00D04EE0019804F8010B15
:102710000198000A04F8010B0198000C04F8010B61
:102720000198000E04F8010B0020049030787178B5
:1027300040EA0120B17840EA0140F17840EA0160C6
:102740000190361D17F0200F04D042480199016115
:1027500001251CE0D14503D0D146484601F039FFA0
:102760003C48B0F80A8000BFF8B201A901F03EFF72
:102770000546022D08D15FEA0800A8F1010803D040
:10278000334800780028EFD0012D00D00CE00598E8
:10279000401C05902E48007800B105E00698411EC7
:1027A000069100287FF4B3AE00BF012D44D1B9F1EA
:1027B0000A0F04D04FF00A09484601F00AFF0498B6
:1027C00030B32448B0F80A8000BF01A90E2001F000
:1027D0000DFF0546022D08D15FEA0800A8F10108A7
:1027E00003D01B4800780028EFD0012D00D024E052
:1027F000019804F8010B0198000A04F8010B0198F4
:10280000000C04F8010B0198000E04F8010B13E012
:102810001048B0F80A8000BF00210E2001F0E6FE4B
:102820000546022D08D15FEA0800A8F1010803D08F
:10283000074800780028EFD000BF05988BF800000B
:102840008BF80150A4EB0B0007B0BDE8F08F00003F
:1028500090080020542E00202DE9F84F04460D4624
:102860004FF0000B0026A846ED1C0020F949087027
:10287000641C2078617840EA012AA41CBAF1000F98
:1028800000D194E014F8017B17F0020F4FD017F03D
:10289000010F16D0F048B0F80A9000BFF8B200213E
:1028A00000F086FA0646022E08D15FEA0900A9F177
:1028B000010903D0E74800780028EFD0012E00D0AE
:1028C00075E02EE0BAF1000F03D117F0010F00D030
:1028D0000E27E148B0F80A9000BFF8B2694600F050
:1028E00067FA0646022E08D15FEA0900A9F101093C
:1028F00003D0D84800780028EFD0012E00D056E051
:10290000009805F8010B0098000A05F8010B0098E3
:10291000000C05F8010B0098000E05F8010B0BF1F7
:10292000010B5FEA0A00AAF1010ACBD13EE024E0E4
:102930002078617840EA0120A17840EA0140E178FE
:1029400040EA01600090241DC348B0F80A9000BF1F
:10295000F8B2694600F02CFA0646022E08D15FEA6A
:102960000900A9F1010903D0BA4800780028EFD086
:10297000012E00D01BE00BF1010B5FEA0A00AAF167
:10298000010AD5D1B448B0F80A9000BF00210E204A
:1029900000F00EFA0646022E08D15FEA0900A9F1FE
:1029A000010903D0AB4800780028EFD000BF88F8B9
:1029B00000B04FEA1B2088F8010088F80260A5EB00
:1029C0000800BDE8F88F2DE9FC5F04460D464FF086
:1029D000000B0026A946ED1C00209E49087014F843
:1029E000011B9D48C175C07D9B49897D884200DBE4
:1029F000ADE02078617840EA0128A41CB8F1000F0E
:102A000000D1A4E014F8017B17F0010F01D00B20D6
:102A100000E00A200090009801F0DBFD17F0020FA3
:102A20004FD08D48B0F80AA000BFF8B2002101F0E5
:102A3000DDFD0646022E08D15FEA0A00AAF1010A6E
:102A400003D0844800780028EFD0012E00D07EE02B
:102A500031E0B8F1000F06D100980A2802D00A2010
:102A600001F0B7FD0E277C48B0F80AA000BFF8B20D
:102A700001A901F0BBFD0646022E08D15FEA0A005B
:102A8000AAF1010A03D0734800780028EFD0012E84
:102A900000D05CE0019805F8010B0198000A05F8E8
:102AA000010B0198000C05F8010B0198000E05F8C8
:102AB000010B0BF1010B5FEA0800A8F10108C8D176
:102AC00044E024E02078617840EA0120A17840EADF
:102AD0000140E17840EA01600190241D5E48B0F8B1
:102AE0000AA000BFF8B201A901F080FD0646022E3F
:102AF00008D15FEA0A00AAF1010A03D0554800781C
:102B00000028EFD0012E00D021E00BF1010B5FEA8D
:102B10000800A8F10108D5D100980A2802D00A209F
:102B200001F057FD4C48B0F80AA000BF00210E206C
:102B300001F05CFD0646022E08D15FEA0A00AAF108
:102B4000010A03D0434800780028EFD000BF89F87D
:102B500000B04FEA1B2089F8010089F80260A5EB5C
:102B60000900BDE8FC9F0246FF2008700120704765
:102B700070B506460D463078802807DB30789F28F0
:102B800004DC29463046FFF7EEFF70BD307805F8CB
:102B9000010B16F8010B172873D2DFE800F00C14B4
:102BA0001A202565802B9B2C32B4B4B4B4B4373DC5
:102BB00043494F555F003078691CFFF72DF80446F4
:102BC0002C70A01CE1E729463046FFF78AF804463E
:102BD0009EE029463046FFF7A5F8044698E02846CF
:102BE000FFF7C1F8044693E029463046FFF7A0FA04
:102BF00004468DE08CE029463046FFF754F8044641
:102C000086E02846FFF7BAF8044681E029463046B8
:102C1000FFF7BDF804467BE029463046FFF765F92B
:102C2000044675E029463046FFF794F904466FE004
:102C300029463046FFF79EF9044669E029463046AA
:102C4000FFF7C6F9044663E029463046FFF7E7F987
:102C500004465DE090080020542E002029463046AE
:102C6000FFF711FA044653E034480078012802D0F7
:102C700002280DD106E029463046FFF770FA0446D7
:102C80000BE040E029463046FFF725FC044604E00F
:102C9000002028706870022400BF00BF38E0274879
:102CA0000078012802D002280CD105E029463046E0
:102CB000FFF7D2FD04460BE029463046FFF783FEBE
:102CC000044605E0002028706870A870032400BF47
:102CD00000BF1DE019480078012802D002280CD15D
:102CE00005E029463046FFF755F9044609E0294634
:102CF0003046FFF7F1F9044603E0FF202870022078
:102D000043E700BF04E0FF2005F8010C01203CE789
:102D100000BF601C39E710B5094800684008094940
:102D2000B0FBF1F0801E05494860642103484181F1
:102D3000012002490875FDF73CFD10BD542E00200E
:102D40003408002040420F00F8B504460D46002725
:102D50002BE0641E17B915F8016B082716F0010F58
:102D600002D0FDF7FDFB02E00020FE4908604FF0B5
:102D70000000FD490860FD494868009000BF00BFA1
:102D80000099491E0091FBD100BF0120F64908605F
:102D9000F6494868009000BF00BF0099491E0091A5
:102DA000FBD100BF7610781EC7B2002CD1D1F8BD80
:102DB0002DE9F84F06468A4600270120E9490860B8
:102DC0004FF00000EA49C1F89401E84948680090D2
:102DD00000BF00BF0099491E0091FBD100BF012038
:102DE000E1490860E1494868009000BF00BF0099D0
:102DF000491E0091FBD100BF3546DA4805604FF00F
:102E00000000DB49C1F89401D8494868009000BF30
:102E100000BF0099491E0091FBD100BF0120D2499B
:102E20000860D2494868009000BF00BF0099491E61
:102E30000091FBD100BF7819C7B27510C948056071
:102E40004FF00000CA49C1F89401C8494868009091
:102E500000BF00BF0099491E0091FBD100BF0120B7
:102E6000C1490860C1494868009000BF00BF00998F
:102E7000491E0091FBD100BF7819C7B2B510B948FF
:102E800005604FF00000BA49C1F89401B74948689D
:102E9000009000BF00BF0099491E0091FBD100BF08
:102EA0000120B1490860B1494868009000BF00BFE7
:102EB0000099491E0091FBD100BF7819C7B2F510E7
:102EC000A84805604FF00000A949C1F89401A7493E
:102ED0004868009000BF00BF0099491E0091FBD1D7
:102EE00000BF0120A0490860A0494868009000BFC9
:102EF00000BF0099491E0091FBD100BF7819C7B2ED
:102F0000984807604FF000009949C1F8940197492B
:102F10004868009000BF00BF0099491E0091FBD196
:102F200000BF01209049086090494868009000BFA8
:102F300000BF0099491E0091FBD100BF00208949C4
:102F400008608B49C1F8940188494868009000BF27
:102F500000BF0099491E0091FBD100BF01208249AA
:102F6000086082494868009000BF00BF0099491E70
:102F70000091FBD100BF01207A4908604FF00000AA
:102F80007B49C1F8940179494868009000BF00BFAF
:102F90000099491E0091FBD100BF012072490860D1
:102FA00072494868009000BF00BF0099491E009117
:102FB000FBD100BFFDF7EEFA6C48047D1BE000205A
:102FC0006949086069494868009000BF00BF0099DE
:102FD000491E0091FBD100BF01206349086063498D
:102FE0004868009000BF00BF0099491E0091FBD1C6
:102FF00000BF601EC4B2002CE1D100205A49086015
:103000005A494868009000BF00BF0099491E0091CE
:10301000FBD100BF57480068C5B24FF001005449CA
:10302000C1F8940151494868009000BF00BF009961
:10303000491E0091FBD100BFA94600204A49086003
:103040004A494868009000BF00BF0099491E00919E
:10305000FBD100BF47480068C5B24FF001004449AA
:10306000C1F8940141494868009000BF00BF009931
:10307000491E0091FBD100BF49EA450000F0FF095D
:1030800000203949086039494868009000BF00BFF6
:103090000099491E0091FBD100BF36480068C5B2B7
:1030A0004FF001003249C1F894013049486800905E
:1030B00000BF00BF0099491E0091FBD100BF49EA43
:1030C000850000F0FF09B9F1010F7DD116F0020F64
:1030D0007BD088460027202426E000202249086073
:1030E00022494868009000BF00BF0099491E009126
:1030F000FBD100BF1F480068C5B24FF001001C495A
:10310000C1F8940119494868009000BF00BF0099B8
:10311000491E0091FBD100BF7819C7B24FEA580889
:1031200048EAC578601EC4B2002CD6D100200E49F2
:1031300008600E494868009000BF00BF0099491E12
:103140000091FBD100BF0B480068C5B24FF00100F1
:103150000749C1F8940105494868009000BF00BFC5
:10316000009909E09801214294012142542E002047
:103170000000214218012142491E0091F0D100BFF8
:1031800087EA050010F0010F01D04FF00809BAF1ED
:10319000000F01D0CAF80080B248047D1EE0002074
:1031A000B1490860AF494868009000BF00BF00996E
:1031B000491E0091FBD100BF0120AB490860A9491D
:1031C0004868009000BF01E0A4E00CE000BF009957
:1031D000491E0091FBD100BF601EC4B2002CDED19D
:1031E000FDF7CDF96BE09F48047D1BE000209E4970
:1031F00008609C494868009000BF00BF0099491EC4
:103200000091FBD100BF01209749086095494868AB
:10321000009000BF00BF0099491E0091FBD100BF84
:10322000601EC4B2002CE1D1FDF7A9F9DAF80080E4
:103230000027202423E08D48C0F8988100208A4987
:10324000086088494868009000BF00BF0099491E87
:103250000091FBD100BF0120834908608149486883
:10326000009000BF00BF0099491E0091FBD100BF34
:1032700007EB0800C7B24FEA5808601EC4B2002C22
:10328000D9D17B4807604FF000007849C1F894011C
:1032900074494868009000BF00BF0099491E009122
:1032A000FBD100BF0120704908606E49486800905A
:1032B00000BF00BF0099491E0091FBD100BF6948C3
:1032C000047A0CB300206A4908601BE000206649BC
:1032D000086064494868009000BF00BF0099491E1B
:1032E0000091FBD100BF01205F4908605D4948683B
:1032F000009000BF00BF0099491E0091FBD100BFA4
:10330000601EC4B2002CE1D1012059490860484632
:10331000BDE8F88FB9F1020F02D0B9F1040F78D1EE
:103320005048407D10B316F0020F1FD021241BE03F
:1033300000204D4908604B494868009000BF00BF1D
:103340000099491E0091FBD100BF01204649086049
:1033500044494868009000BF00BF0099491E009191
:10336000FBD100BF601EC4B2002CE1D13D48047DFA
:103370001BE000203C4908603A494868009000BFC3
:1033800000BF0099491E0091FBD100BF01203649C2
:10339000086034494868009000BF00BF0099491E8A
:1033A0000091FBD100BF601EC4B2002CE1D1FDF73B
:1033B000E6F82C48407D30B316F0020F23D10020F0
:1033C0002B4908604FF021041BE0002026490860CB
:1033D00024494868009000BF00BF0099491E009131
:1033E000FBD100BF0120204908601E4948680090B9
:1033F00000BF00BF0099491E0091FBD100BF601EB5
:10340000C4B2002CE1D101201949086048467FE789
:10341000FFE71448007D2130C4B21BE000201249B0
:10342000086010494868009000BF00BF0099491E1D
:103430000091FBD100BF01200B4908600949486891
:10344000009000BF00BF0099491E0091FBD100BF52
:10345000601EC4B2002CE1D1012005490860484635
:1034600056E70000542E0020940121420000214222
:10347000980121422DE9F84F04460F46904604F08A
:103480003F0606B9402614F0400F03D00120F8494A
:10349000086002E00020F649086038E017F801AB48
:1034A00000254FF0080926E00AF0FF00FDF79CF820
:1034B000FDF74CF8EF494868009000BF00BF009945
:1034C000491E0091FBD100BFFDF79BF88346FDF735
:1034D00038F8E8494868009000BF00BF0099491ECD
:1034E0000091FBD100BF4FEA5A0A6D0845EACB159F
:1034F000A9F10109761EB9F1000F01D0002ED3D138
:1035000025FA09F514F0800F01D008F8015B002EB0
:10351000C4D1BDE8F88F70B505460120D4490860D4
:10352000FDF714F800BF00BFFDF70BF800BF00BFA8
:10353000FDF70CF800BF00BFFDF703F800BF00BFA8
:103540000020CD49C1F89801FDF700F800BF00BF89
:10355000FCF7F7FF00BF00BFFCF7F8FF00BF00BF9C
:10356000FCF7EFFF00BF00BF0120FDF73DF8C148A9
:10357000C17D203030F8114008E0FCF7E7FF00BFC4
:1035800000BFFCF7DEFF00BF00BF641E002CF4D1BB
:10359000B848C17D1830405C441E0CE0E8B2FDF72D
:1035A00023F8FCF7D3FF00BF00BFFCF7CAFF00BF42
:1035B00000BF6D08641E002CF0D1AE48C17D3030D4
:1035C00030F8114034B3E8B2FDF70EF8FCF7BEFF57
:1035D00000BF00BFFCF7B5FF00BF00BF0120FDF733
:1035E00003F8641E08E0FCF7B1FF00BF00BFFCF762
:1035F000A8FF00BF00BF641E002CF4D101209C492D
:103600000860FCF7A3FF00BF00BFFCF79AFF00BFF4
:1036100000BF0EE0012096490860E8B2FCF7E4FF25
:10362000FCF794FF00BF00BFFCF78BFF00BF00BF9B
:1036300000BFFCF78BFF00BF00BFFCF782FF00BF9D
:1036400000BF00208A490860FCF780FF00BF00BF70
:10365000FCF777FF00BF00BF0120FCF7C5FF70BD7E
:103660002DE9F04706468846012081490860FCF7AD
:103670006DFF00BF00BFFCF764FF00BF00BF00206C
:103680007D49C1F89801FCF761FF00BF00BFFCF75E
:1036900058FF00BF00BFFCF759FF00BF00BFFCF799
:1036A00050FF00BF00BF7348C47D08E0FCF74EFF29
:1036B00000BF00BFFCF745FF00BF00BF641E002C29
:1036C000F4D1C6F34700FCF78FFFFCF73FFF00BFC4
:1036D00000BFFCF796FF0746FCF733FF00BF00BFB3
:1036E0004FEA4709C6F38700FCF77EFFFCF72EFF81
:1036F00000BF00BFFCF785FF0746FCF722FF00BFB5
:1037000000BF49EA0709C6F3C700FCF76DFFFCF7E5
:103710001DFF00BF00BFFCF774FF0746FCF711FF59
:1037200000BF00BF49EA8709B9F1010F0BD00120A2
:103730004F490860FCF70AFF00BF00BFFCF701FF1C
:1037400000BF00BFABE016F0020F54D000251F24CD
:103750000EE0FCF7FBFE00BF00BFFCF752FF074680
:10376000FCF7EFFE00BF00BF45EAC7756D08641E99
:10377000002CEED13F48817DC07D081A441E1CB349
:10378000FCF7E4FE00BF00BFFCF73BFF0746FCF779
:10379000D8FE00BF00BF641E08E0FCF7D7FE00BFE4
:1037A00000BFFCF7CEFE00BF00BF641E002CF4D1AA
:1037B00001202F490860FCF7C9FE00BF00BFFCF7DD
:1037C000C0FE00BF00BF0EE0012029490860FCF7E1
:1037D000BDFE00BF00BFFCF714FF0746FCF7B1FEBB
:1037E00000BF00BF00BF45EAC775B8F1000F55D054
:1037F000C8F8005052E0D8F800501F240CE0E8B29E
:10380000FCF7F2FEFCF7A2FE00BF00BFFCF799FE3A
:1038100000BF00BF6D08641E002CF0D11548817DEB
:10382000C07D081A441E4CB3E8B2FCF7DDFEFCF77D
:103830008DFE00BF00BFFCF784FE00BF00BF641E0A
:1038400008E0FCF783FE00BF00BFFCF77AFE00BF74
:1038500000BF641E002CF4D1012005490860FCF76C
:1038600075FE00BF00BFFCF76CFE00BF00BF15E097
:1038700098012142542E002000002142FFE7012040
:10388000F8490860E8B2FCF7AFFEFCF75FFE00BF46
:1038900000BFFCF756FE00BF00BF00BF00BFFCF733
:1038A00055FE00BF00BFFCF74CFE00BF00BF00206C
:1038B000EC490860FCF74AFE00BF00BFFCF741FE80
:1038C00000BF00BF0120FCF78FFEE748047A08E044
:1038D000FCF73CFE00BF00BFFCF733FE00BF00BF9B
:1038E00000BF2000A4F10104F2D109F0FF00BDE8FF
:1038F000F08738B505460120DA490860FCF726FE56
:10390000D9494868009000BF00BF0099491E009146
:10391000FBD100BFFCF715FED3494868009000BFFB
:1039200000BF0099491E0091FBD100BFFCF70EFEBD
:10393000CD494868009000BF00BF0099491E009122
:10394000FBD100BFFCF7FDFDC7494868009000BFF0
:1039500000BF0099491E0091FBD100BF0020C14962
:103960000860FCF7F3FDC0494868009000BF00BF45
:103970000099491E0091FBD100BFFCF7E2FDBA4956
:103980004868009000BF00BF0099491E0091FBD11C
:1039900000BFFCF7DBFDB4494868009000BF00BFE2
:1039A0000099491E0091FBD100BFFCF7CAFDAE494A
:1039B0004868009000BF00BF0099491E0091FBD1EC
:1039C00000BF0120FCF710FEA748C17D203030F871
:1039D000114018E0FCF7BAFDA3494868009000BF09
:1039E00000BF0099491E0091FBD100BFFCF7A9FD63
:1039F0009D494868009000BF00BF0099491E009192
:103A0000FBD100BF641E002CE4D19748C17D183063
:103A1000405C441E1CE0E8B2FCF7E6FDFCF796FDB6
:103A200091494868009000BF00BF0099491E00916D
:103A3000FBD100BFFCF785FD8B494868009000BFB3
:103A400000BF0099491E0091FBD100BF6D08641EA4
:103A5000002CE0D18448C17D303030F81140002C7A
:103A600055D0E8B2FCF7C0FDFCF770FD7E49486810
:103A7000009000BF00BF0099491E0091FBD100BF1C
:103A8000FCF75FFD78494868009000BF00BF0099CF
:103A9000491E0091FBD100BF0120FCF7A5FD641E6B
:103AA00018E0FCF753FD70494868009000BF00BF64
:103AB0000099491E0091FBD100BFFCF742FD6A4905
:103AC0004868009000BF00BF0099491E0091FBD1DB
:103AD00000BF641E002CE4D1012062490860FCF79D
:103AE00035FD61494868009000BF00BF0099491E3C
:103AF0000091FBD100BFFCF724FD5B4948680090B2
:103B000000BF00BF0099491E0091FBD11DE00120BC
:103B100054490860E8B2FCF767FDFCF717FD52490D
:103B20004868009000BF00BF0099491E0091FBD17A
:103B300000BFFCF706FD4C494868009000BF00BF7D
:103B40000099491E0091FBD100BFFCF7FFFC4649DC
:103B50004868009000BF00BF0099491E0091FBD14A
:103B600000BFFCF7EEFC40494868009000BF00BF72
:103B70000099491E0091FBD100BF0020394908601F
:103B8000FCF7E4FC38494868009000BF00BF00998A
:103B9000491E0091FBD100BFFCF7D3FC32494868B5
:103BA000009000BF00BF0099491E0091FBD100BFEB
:103BB0000120FCF719FD38BD2DE9F8430746894679
:103BC000012028490860FCF7C1FC2749486800909B
:103BD00000BF00BF0099491E0091FBD100BFFCF758
:103BE000B0FC21494868009000BF00BF0099491E01
:103BF0000091FBD100BF00201A490860FCF7A6FC29
:103C000019494868009000BF00BF0099491E009103
:103C1000FBD100BFFCF795FC13494868009000BF3A
:103C200000BF0099491E0091FBD100BFFCF78EFC3C
:103C30000D494868009000BF00BF0099491E0091DF
:103C4000FBD100BFFCF77DFC07494868009000BF2E
:103C500000BF0099491E0091FBD100BF0248C47DFE
:103C60001DE0000098012142542E0020FCF76EFC5C
:103C7000FE494868009000BF00BF0099491E0091AE
:103C8000FBD100BFFCF75DFCF8494868009000BF1D
:103C900000BF0099491E0091FBD100BF641E002C9B
:103CA000E4D1C7F34700FCF79FFCFCF74FFCEF495A
:103CB0004868009000BF00BF0099491E0091FBD1E9
:103CC00000BFFCF79EFC0646FCF73BFCE749486852
:103CD000009000BF00BF0099491E0091FBD100BFBA
:103CE0004FEA4608C7F38700FCF77EFCFCF72EFC82
:103CF000DE494868009000BF00BF0099491E00914E
:103D0000FBD100BFFCF77DFC0646FCF71AFCD74947
:103D10004868009000BF00BF0099491E0091FBD188
:103D200000BF48EA0608C7F3C700FCF75DFCFCF7D4
:103D30000DFCCE494868009000BF00BF0099491EA5
:103D40000091FBD100BFFCF75CFC0646FCF7F9FBD9
:103D5000C6494868009000BF00BF0099491E009105
:103D6000FBD100BF48EA8608B8F1010F1BD0012043
:103D7000BF490860FCF7EAFBBC494868009000BFF7
:103D800000BF0099491E0091FBD100BFFCF7D9FB91
:103D9000B6494868009000BF00BF0099491E0091D5
:103DA000FBD100BF43E117F0020F7DD000251F2497
:103DB0001EE0FCF7CBFBAD494868009000BF00BF98
:103DC0000099491E0091FBD100BFFCF71AFC064682
:103DD000FCF7B7FBA5494868009000BF00BF0099F9
:103DE000491E0091FBD100BF45EAC6756D08641EEF
:103DF000002CDED19D48817DC07D081A441E002C18
:103E000053D0FCF7A3FB99494868009000BF00BF5E
:103E10000099491E0091FBD100BFFCF7F2FB06465A
:103E2000FCF78FFB91494868009000BF00BF0099E4
:103E3000491E0091FBD100BF641E18E0FCF786FB11
:103E40008A494868009000BF00BF0099491E009150
:103E5000FBD100BFFCF775FB84494868009000BFA8
:103E600000BF0099491E0091FBD100BF641E002CC9
:103E7000E4D101207E490860FCF768FB7B49486873
:103E8000009000BF00BF0099491E0091FBD100BF08
:103E9000FCF757FB75494868009000BF00BF0099C8
:103EA000491E0091FBD11EE025E001207049086009
:103EB000FCF74CFB6D494868009000BF00BF0099BB
:103EC000491E0091FBD100BFFCF79BFB0646FCF7A7
:103ED00038FB66494868009000BF00BF0099491E42
:103EE0000091FBD100BF45EAC675B9F1000F01D0C2
:103EF000C9F800509AE0D9F800501F241CE0E8B23D
:103F0000FCF772FBFCF722FB58494868009000BFA1
:103F100000BF0099491E0091FBD100BFFCF711FBC7
:103F200052494868009000BF00BF0099491E0091A7
:103F3000FBD100BF6D08641E002CE0D14B48817D91
:103F4000C07D081A441E002C52D0E8B2FCF74CFB8E
:103F5000FCF7FCFA45494868009000BF00BF009993
:103F6000491E0091FBD100BFFCF7EBFA3F494868BE
:103F7000009000BF00BF0099491E0091FBD100BF17
:103F8000641E18E0FCF7E2FA38494868009000BF68
:103F900000BF0099491E0091FBD100BFFCF7D1FA88
:103FA00032494868009000BF00BF0099491E009147
:103FB000FBD100BF641E002CE4D101202C49086015
:103FC000FCF7C4FA29494868009000BF00BF009977
:103FD000491E0091FBD100BFFCF7B3FA23494868A2
:103FE000009000BF00BF0099491E0091FBD11DE069
:103FF00001201F490860E8B2FCF7F6FAFCF7A6FAC0
:104000001A494868009000BF00BF0099491E0091FE
:10401000FBD100BFFCF795FA14494868009000BF37
:1040200000BF0099491E0091FBD100BF00BFFCF703
:104030008DFA0E494868009000BF00BF0099491EE4
:104040000091FBD100BFFCF77CFA0849486800905A
:1040500000BF00BF0099491E0091FBD100BF0020A6
:1040600003490860FCF772FA004903E0542E00206F
:10407000980121424868009000BF00BF0099491E86
:104080000091FBD100BFFCF75CFAFE494868009044
:1040900000BF00BF0099491E0091FBD100BF012065
:1040A000FCF7A2FAF748047A17E0FCF74FFAF54953
:1040B0004868009000BF00BF0099491E0091FBD1E5
:1040C00000BFFCF73EFAEF494868009000BF00BF10
:1040D0000099491E0091FBD100BF2000A4F101040A
:1040E000E3D108F0FF00BDE8F883F8B50120E64908
:1040F0000860FCF72BFAE3494868009000BF00BF56
:104100000099491E0091FBD100BFFCF71AFADD4966
:104110004868009000BF00BF0099491E0091FBD184
:1041200000BF0020D8490860FCF710FAD54948685C
:10413000009000BF00BF0099491E0091FBD100BF55
:10414000FCF7FFF9CF494868009000BF00BF009915
:10415000491E0091FBD100BFFCF7F8F9C949486836
:10416000009000BF00BF0099491E0091FBD100BF25
:10417000FCF7E7F9C3494868009000BF00BF009909
:10418000491E0091FBD100BFBE48C57D18E0FCF779
:10419000DDF9BC494868009000BF00BF0099491E86
:1041A0000091FBD100BFFCF7CCF9B64948680090FC
:1041B00000BF00BF0099491E0091FBD100BF6D1EDA
:1041C000002DE4D100241F251EE0FCF7BFF9AD4906
:1041D0004868009000BF00BF0099491E0091FBD1C4
:1041E00000BFFCF70EFA0646FCF7ABF9A549486894
:1041F000009000BF00BF0099491E0091FBD100BF95
:1042000044EAC67464086D1E002DDED101209E496B
:104210000860FCF79BF99B494868009000BF00BF0D
:104220000099491E0091FBD100BFFCF7EAF9064650
:10423000FCF787F993494868009000BF00BF0099D8
:10424000491E0091FBD100BF44EAC674FCF77EF919
:104250008C494868009000BF00BF0099491E00913A
:10426000FBD100BFFCF76DF986494868009000BF9C
:1042700000BF0099491E0091FBD100BF0020824978
:104280000860FCF763F97F494868009000BF00BFF1
:104290000099491E0091FBD100BFFCF752F9794902
:1042A0004868009000BF00BF0099491E0091FBD1F3
:1042B00000BF2046F8BD38B50546012072490860A8
:1042C000FCF744F96F494868009000BF00BF0099AF
:1042D000491E0091FBD100BFFCF733F969494868DA
:1042E000009000BF00BF0099491E0091FBD100BFA4
:1042F000002065490860FCF729F962494868009088
:1043000000BF00BF0099491E0091FBD100BFFCF720
:1043100018F95C494868009000BF00BF0099491E29
:104320000091FBD100BFFCF711F956494868009095
:1043300000BF00BF0099491E0091FBD100BFFCF7F0
:1043400000F950494868009000BF00BF0099491E1D
:104350000091FBD100BF4B48C47D18E0FCF7F6F894
:1043600048494868009000BF00BF0099491E00916D
:10437000FBD100BFFCF7E5F842494868009000BF58
:1043800000BF0099491E0091FBD100BF641E002CA4
:10439000E4D10020FCF728F9FCF7D8F8394948683F
:1043A000009000BF00BF0099491E0091FBD100BFE3
:1043B000FCF7C7F833494868009000BF00BF009978
:1043C000491E0091FBD100BFFCF7C0F82D49486899
:1043D000009000BF00BF0099491E0091FBD100BFB3
:1043E000FCF7AFF827494868009000BF00BF00996C
:1043F000491E0091FBD100BFFCF7A8F8214948688D
:10440000009000BF00BF0099491E0091FBD100BF82
:10441000FCF797F81B494868009000BF00BF00995F
:10442000491E0091FBD100BF1F241CE0E8B2FCF73D
:10443000DBF8FCF78BF813494868009000BF00BF19
:104440000099491E0091FBD100BFFCF77AF80D4995
:104450004868009000BF00BF0099491E0091FBD141
:1044600000BF6D08641E002CE0D10648817DC07D30
:10447000081A441E002C57D0E8B2FCF7B5F8FCF738
:1044800065F803E0542E0020980121425F494868F6
:10449000009000BF00BF0099491E0091FBD100BFF2
:1044A000FCF74FF859494868009000BF00BF0099D9
:1044B000491E0091FBD100BF641E18E0FCF746F8CE
:1044C00052494868009000BF00BF0099491E009102
:1044D000FBD100BFFCF735F84C494868009000BF9D
:1044E00000BF0099491E0091FBD100BF641E002C43
:1044F000E4D1012046490860FCF728F843494868A0
:10450000009000BF00BF0099491E0091FBD100BF81
:10451000FCF717F83D494868009000BF00BF0099BC
:10452000491E0091FBD11DE0012039490860E8B225
:10453000FCF75AF8FCF70AF834494868009000BFC5
:1045400000BF0099491E0091FBD100BFFBF7F9FFA6
:104550002E494868009000BF00BF0099491E009195
:10456000FBD100BFFBF7F2FF28494868009000BF6D
:1045700000BF0099491E0091FBD100BFFBF7E1FF8E
:1045800022494868009000BF00BF0099491E009171
:10459000FBD100BF00201E490860FBF7D7FF1B4975
:1045A0004868009000BF00BF0099491E0091FBD1F0
:1045B00000BFFBF7C6FF15494868009000BF00BF69
:1045C0000099491E0091FBD100BF0120FCF70CF8B7
:1045D00038BD10B504460D48407818B12046FEF7A6
:1045E0009AFF02E02046FFF784F910BD70B504463B
:1045F0000D460648407820B129462046FFF730F89E
:1046000070BD29462046FFF7D7FAF9E7542E00205F
:104610009801214270B504460E462EB14FF48041F8
:10462000FE4800F04CFB04E04FF48041FB4800F0F2
:1046300048FB4FF48051F94800F043FB00251BE094
:104640004FF40051F54800F03CFB14F0800F05D00A
:104650004FF40041F14800F032FB04E04FF4004118
:10466000EE4800F02EFB4FF40051EC4800F027FB21
:104670006006040E681CC5B2082DE1DB4FF48051C2
:10468000E64800F01CFB4FF48041E44800F017FBC3
:1046900070BD70B504460D4605F1B001C8B20021E9
:1046A000FFF7B8FF102141EA14100021FFF7B2FF15
:1046B00004F00F0141F001000021FFF7ABFF70BDD6
:1046C00010B500218D20FFF7A5FF00211420FFF772
:1046D000A1FF0021AF20FFF79DFF10BD10B5002105
:1046E0008D20FFF797FF00211020FFF793FF002197
:1046F000AE20FFF78FFF10BD70B5002419E004F164
:10470000B001C8B20021FFF785FF00210846FFF77E
:1047100081FF00211020FFF77DFF002505E001212A
:104720000020FFF777FF681CC5B2802DF7DB601C07
:10473000C4B2082CE3DB70BD2DE9F04107460E46FC
:10474000904600250024A8F12000C5B27F2F02DD8D
:104750000027B01CC6B231463846FFF79AFF002446
:1047600008E004EB0511AE4A505C0121FFF752FF4F
:10477000601CC4B2082CF4DB701CC1B23846FFF7D1
:1047800088FF002409E004EB05110831A44A505CBD
:104790000121FFF73FFF601CC4B2082CF3DBBDE82A
:1047A000F08110B50246012000E050430B00A1F15A
:1047B0000104E1B2F9D110BD2DE9FF5F0746914632
:1047C0001D460E9E4FF0000A002433E0281B401EB9
:1047D000C1B20A20FFF7E5FFB9FBF0F00A21B0FBF8
:1047E000F1F201FB1208BAF1000F13D1681EA042CA
:1047F00010DDB8F1000F0BD1B34606EBDB714910A9
:1048000001FB0471C8B220220199FFF795FF0FE068
:104810004FF0010AB34606EBDB71491001FB04714E
:10482000C8B208F13001CAB20199FFF785FF00BF95
:10483000601CC4B2AC42C9DBBDE8FF9F2DE9F0416A
:1048400004460F46154600260EE0AA5D394620466E
:10485000FFF772FF04F10800C4B2782C02DD0024D7
:10486000B81CC7B2701CC6B2A85D0028EDD1BDE867
:10487000F0812DE9F04180460E461546002731466D
:104880004046FFF706FF00240AE0664A02EB851166
:10489000085D0121FFF7BEFE781CC7B2601CC4B2E0
:1048A000102CF2DB701CC1B24046FFF7F2FE002470
:1048B0000CE06900491C5B4A02EB4111085D0121D3
:1048C000FFF7A8FE781CC7B2601CC4B2102CF0DB46
:1048D000BDE8F0812DE9F05F06460F4690461C4684
:1048E000DDF828A04FF0000BE11704EB5171C9105F
:1048F000B4EBC10106D12046E11704EB5171C1F3BD
:10490000C70506E02046E11704EB5171C910491CA8
:10491000CDB23D4615E029463046FFF7BAFEB14616
:104920000BE059460BF1010B1AF801000121FFF7CA
:1049300071FE09F1010000F0FF09C145F1DB681CBF
:10494000C5B2A542E7DBBDE8F09F10B5FFF7D4FE86
:1049500010BD08B50121082000F0BCFB4FF6014056
:10496000ADF8000010208DF8030003208DF8020040
:1049700069462A4800F0F8F84FF60141274800F050
:104980009EF94FF40061254800F099F94FF4006159
:10499000224800F096F94FF40061204800F08FF9AA
:1049A0000021AE20FFF736FE00210846FFF732FE59
:1049B00000211020FFF72EFE00214020FFF72AFEE5
:1049C00000218120FFF726FE0021CF20FFF722FEE5
:1049D0000021A120FFF71EFE0021C820FFF71AFECC
:1049E0000021A620FFF716FE0021A820FFF712FEE7
:1049F00000213F20FFF70EFE0021D320FFF70AFE23
:104A000000210846FFF706FE0021D520FFF702FE31
:104A100000218020FFF7FEFD002105E0000C014091
:104A20000498000891080020D920FFF7F3FD002129
:104A3000F120FFF7EFFD0021DA20FFF7EBFD002169
:104A40001220FFF7E7FD0021DB20FFF7E3FD002147
:104A50004020FFF7DFFD00212020FFF7DBFD0021D4
:104A60000220FFF7D7FD00218D20FFF7D3FD0021A5
:104A70001420FFF7CFFD0021A420FFF7CBFD00217C
:104A8000A620FFF7C7FD0021AF20FFF7C3FD0021DF
:104A9000AF20FFF7BFFDFFF72FFE00210846FFF70D
:104AA000F8FDFFF752FF08BD10B50446CA4884421E
:104AB00008D10121042000F027FB0021042000F090
:104AC00023FB46E0C548844208D10121082000F0BC
:104AD0001BFB0021082000F017FB3AE0C04884428D
:104AE00008D10121102000F00FFB0021102000F060
:104AF0000BFB2EE0BB48844208D10121202000F0AE
:104B000003FB0021202000F0FFFA22E0B648844297
:104B100008D10121402000F0F7FA0021402000F0E8
:104B2000F3FA16E0B148844208D10121802000F058
:104B3000EBFA0021802000F0E7FA0AE0AC4884425A
:104B400007D10121801500F0DFFA0021A01500F047
:104B5000DBFA10BD10B50121084600F0D5FA00219E
:104B6000012000F0D1FA10BD2DE9F04102460025E8
:104B70000026002000230024002791F803C00CF039
:104B80000F0591F803C01CF0100F03D091F802C07C
:104B90004CEA050591F800C0BCF1000F31D0146853
:104BA00000202BE04FF0010C0CFA00F3B1F800C02C
:104BB0000CEA03069E4220D183004FF00F0C0CFA42
:104BC00003F7BC4305FA03FC4CEA040491F803C064
:104BD000BCF1280F06D14FF0010C0CFA00FCC2F812
:104BE00014C00AE091F803C0BCF1480F05D14FF0A2
:104BF000010C0CFA00FCC2F810C0401C0828D1D3EC
:104C00001460B1F800C0BCF1FF0F34DD546800201F
:104C10002EE000F1080C4FF0010808FA0CF3B1F88F
:104C200000C00CEA03069E4221D183004FF00F0C16
:104C30000CFA03F7BC4305FA03FC4CEA040491F8B0
:104C400003C0BCF1280F05D100F1080C08FA0CF8DC
:104C5000C2F8148091F803C0BCF1480F07D100F1ED
:104C6000080C4FF0010808FA0CF8C2F81080401C3C
:104C70000828CED35460BDE8F0814FF6FF71018063
:104C8000022181700421C1707047024600209368A0
:104C90000B4201D0012000E00020704701468868E7
:104CA00080B2704702460020D3680B4201D0012039
:104CB00000E0002070470146C86880B2704701617B
:104CC0007047416170470AB1016100E0416170477E
:104CD000C16070474FF480320A4382618161826112
:104CE00082698269704702460020424B18684FF67D
:104CF0008073184040EA021008433E4B186070472A
:104D00003D49C8617047F0B50A46002300240021E0
:104D1000002500F00046B6F1004F02D1354EF16992
:104D200001E0344E7168C0F3034583B200F44016CD
:104D3000B6F5401F08D121F070612E4E766826F03E
:104D400070662C4F7E6012E000F48016B6F5801F6E
:104D500006D1032606FA05F4A14341F0706106E08E
:104D6000460D360103FA06F6B14341F0706122B1F7
:104D7000460D360103FA06F6314300F00046B6F15F
:104D8000004F02D11B4EF16101E01A4E7160F0BD7F
:104D900030B500228B071C0F0F2303FA04F2154BCA
:104DA00008338C1053F824309343124C08348D1080
:104DB00044F8253023468C1053F824308C07240FF8
:104DC00000FA04F423430B4C08348D1044F82530CA
:104DD00030BD0A490860704700080140000C0140DE
:104DE000001001400014014000180140001C014067
:104DF000002001400000014000002042DC00204271
:104E0000DD48006840F00100DB4908600846406862
:104E1000DA490840D849486008460068D84908403F
:104E2000D54908600846006820F4802008600846DC
:104E3000406820F4FE0048604FF41F00886070470F
:104E4000CD49096821F48031CB4A116011460968C7
:104E500021F480211160B0F5803F03D0B0F5802FA0
:104E60000ED106E0C449096841F48031C24A11609C
:104E700007E0C149096841F4A021BF4A116000E080
:104E800000BF00BF704710B501460022002300207C
:104E90004A11012A02D1B84C236806E0022A02D145
:104EA000B54C236A01E0B44C636A01F01F0201248F
:104EB00094401C4201D0012000E0002010BD38B514
:104EC000002000900024002500BF3120FFF7DBFF09
:104ED00005460098401C00900098B0F5A06F01D0E6
:104EE000002DF2D03120FFF7CEFF08B1012400E001
:104EF0000024204638BD014600209F4A106820F05B
:104F0000F80040EAC100106070479E490860704791
:104F100002460020984B586820F47C1042EA0103B6
:104F20001843954B5860704796490866704701468C
:104F30000020914A506820F00300084350607047F9
:104F40008D48406800F00C007047014600208A4AF6
:104F5000506820F0F0000843506070470146002080
:104F6000854A506820F4E06008435060704701466D
:104F70000020814A506820F4605040EAC10050602F
:104F8000704729B17C4A527A02437B4B5A7204E043
:104F9000794A527A8243784B5A7270477A4908604C
:104FA000704701460020744A506820F4404008438E
:104FB000506070470021754A11706F4A82F82010C6
:104FC000012802D0042808D103E001216F4A1170A2
:104FD00004E005216D4A117000E000BF00BF70477A
:104FE0006B49086070476449096A0143624A11626B
:104FF0007047674944390860704730B50021002286
:10500000002400235C4D6D6805F00C0121B10429DA
:1050100005D0082923D105E05E4D056022E05D4DF5
:1050200005601FE0544D6D6805F47012524D6D68B7
:1050300005F48034022505EB92421CB9564D5543C8
:1050400005600BE04C4D6D6815F4003F03D0524DE8
:105050005543056002E04F4D5543056002E04D4D5C
:10506000056000BF00BF444D6D6805F0F0010909FF
:105070004A4D6B5C0568DD4045603F4D6D6805F449
:10508000E061090A454D6B5C4568DD4085603A4D3D
:105090006D6805F46051C90A404D6B5C4568DD40A0
:1050A000C560354D6D6805F44041890B3C4D6B5C26
:1050B000C568B5FBF3F5056130BD29B12E4A5269CB
:1050C00002432D4B5A6104E02B4A526982432A4B1A
:1050D0005A61704729B1284A92690243264B9A6166
:1050E00004E0254A92698243234B9A61704729B1B3
:1050F000214AD2690243204BDA6104E01E4AD26998
:1051000082431D4BDA61704729B11B4AD2680243C2
:10511000194BDA6004E0184AD2688243164BDA6011
:10512000704729B1144A12690243134B1A6104E013
:10513000114A12698243104B1A6170471449403971
:10514000086070470F49C86470470B49C8717047C1
:105150000948406A40F0807007494862704701463C
:105160000020054A92680A4201D0012000E0002098
:105170007047014988727047001002400000FFF834
:10518000FFFFF6FE00004242D800424220100240DB
:105190008004424200127A0000093D00D10900203B
:1051A000E109002010B50446FB48844209D10121E1
:1051B0008803FFF7A9FF00214FF48040FFF7A4FF09
:1051C00032E0F648844209D101214804FFF7A9FFE3
:1051D00000214FF40030FFF7A4FF25E0F04884429F
:1051E00009D101218804FFF79CFF00214FF48020A2
:1051F000FFF797FF18E0EB48844209D10121C8046A
:10520000FFF78FFF00214FF40020FFF78AFF0BE02C
:10521000E548844208D101210805FFF782FF0021FB
:105220004FF48010FFF77DFF10BD2DE9F04786B0E9
:1052300005460E460024A24600BFA1460027B089BD
:1052400000B100BF2F462C8A4CF6FF700440F08856
:1052500004432C82AC894EF6F3100440B0883189A7
:105260000843718908430443AC81AC8A4FF6FF4080
:105270000440B0890443AC8201A8FFF7BEFEC648D3
:10528000874202D1DDF810A001E0DDF80CA0A8896A
:1052900010F4004F08D00AEBCA0000EB0A10316886
:1052A0004900B0FBF1F807E00AEBCA0000EB0A1076
:1052B00031688900B0FBF1F86420B8FBF0F004011C
:1052C0002009642101FB1089A88910F4004F08D03F
:1052D000322000EBC900B0FBF1F000F007000443FE
:1052E00008E0322000EB09106421B0FBF1F000F07F
:1052F0000F0004432C8106B0BDE8F0874FF416512F
:10530000016000218180C18001810C214181002147
:105310008181704710B502460020108A4FF2FF03CA
:1053200018400B884C8823438C882343CC88234324
:105330001843108210BD0021018041808180C1800E
:10534000704721B1828942F40052828104E082894F
:105350004DF6FF731A4082817047F0B50346002472
:10536000002600250020A1F510676A3F00D100BF8C
:105370001846C1F3421401F01F06012707FA06F58B
:10538000012C01D10C3004E0022C01D1103000E0DE
:1053900014301AB107682F43076002E00768AF4373
:1053A0000760F0BD1AB1838A0B43838202E0838ACF
:1053B0008B4383827047028A4FF6F0731A40028251
:1053C000028A0A430282704782894FF2FF731A40B1
:1053D000828182890A438281704721B1828942F0A9
:1053E0000202828104E082894FF6FD731A408281B5
:1053F0007047028A4FF6DF731A400282028A0A431C
:105400000282704721B1028A42F48042028204E0A3
:10541000028A4BF6FF731A4002827047C1F30802FA
:105420008280704701468888C0F3080070478189F0
:1054300041F0010181817047028BD2B20283028B5D
:1054400042EA012202837047028B02F47F42028308
:10545000028B0A430283704721B1828A42F0200204
:10546000828204E0828A4FF6DF731A40828270479C
:1054700021B1828A42F01002828204E0828A4FF6D1
:10548000EF731A408282704721B1828A42F008028B
:10549000828204E0828A4FF6F7731A408282704754
:1054A00021B1828942F40042828103E08289C2F301
:1054B0000E028281704721B1828A42F400628282A8
:1054C00004E0828A4FF2FF731A4082827047828A18
:1054D0004FF6FB731A408282828A0A4382827047A7
:1054E00021B1828A42F00202828204E0828A4FF66F
:1054F000FD731A408282704702460020B1F5007F9A
:1055000000D100BF13880B4201D0012000E0002031
:10551000704701F40072B2F5007F00D100BFCA43AA
:105520000280704770B50246002400230025002049
:10553000A1F510666A3E00D100BFC1F3421501F02B
:105540001F03012606FA03F3012D02D19689334089
:1055500006E0022D02D1168A334001E0968A3340DC
:105560000C12012606FA04F41688344013B10CB16B
:10557000012000E0002070BD10B500220023A1F53D
:1055800010646A3C00D100BF0A1201249440A3B207
:10559000DC43048010BD000000380140004400409E
:1055A00000480040004C00400050004001460020F0
:1055B000FE4A106800F03800084310607047FB494D
:1055C000096821F00801F94A116011460968014390
:1055D00011607047F549096821F01001F34A116024
:1055E00011460968014311607047F148EF4948606E
:1055F000F04848607047EE48EC494860ED48486024
:105600007047EA48006940F08000E8490861704747
:10561000E648006940F08000E449086170470420D2
:10562000E249C96811F0010F01D001200EE0DF4905
:10563000C96811F0040F01D0022007E0DB49C968F6
:1056400011F0100F01D0032000E00420704700B5D6
:1056500002460423FFF7E3FF034603E0FFF7DFFF03
:105660000346521E012B01D1002AF7D102B90523AE
:10567000184600BD30B5044604254FF43020FFF72E
:10568000E6FF0546042D17D1C848006940F0020026
:10569000C649086108464461006940F0400008615D
:1056A0004FF43020FFF7D3FF0546C048006941F6AC
:1056B000FD710840BD490861284630BD10B504247D
:1056C0004FF43020FFF7C3FF0446042C16D1B7482F
:1056D000006940F00400B54908610846006940F0DF
:1056E000400008614FF43020FFF7B1FF0446AF4897
:1056F000006941F6FB710840AC490861204610BDC5
:1057000000B502460423FFF78AFF034603E0FFF7D4
:1057100086FF0346521E012B01D1002AF7D102B9A0
:105720000523184600BD10B504244FF43020FFF7C0
:10573000E7FF0446042C16D19C48006940F00400A1
:105740009A4908610846006940F0400008614FF43A
:105750003020FFF7D5FF04469448006941F6FB71FD
:10576000084092490861204610BD00208F49C96950
:1057700011F0020F01D0012000E00020704730B589
:10578000A5250424FFF7F1FF00B100254FF43020D8
:10579000FFF75DFF0446042C3AD1854883498860B1
:1057A000844888600846006940F020000861084687
:1057B000006940F0400008614FF43020FFF747FFD8
:1057C0000446042C1BD17948006941F6DF7108407A
:1057D000764908610846006940F010000861764883
:1057E0000580E002FFF733FF0446052C10D06F4818
:1057F000006941F6EF7108406C49086108E0052C2A
:1058000006D06A48006941F6EF71084067490861AF
:10581000204630BD78B506460C4604250020009091
:10582000E802FFF714FF0546042D24D15F48006904
:1058300040F001005D4908613480E802FFF707FF8E
:105840000546042D10D1B01C0090200C0099088052
:10585000E802FFF7FCFE05465448006941F6FE7178
:1058600008405249086106E05048006941F6FE715F
:1058700008404E490861284678BD70B504460D467B
:105880000426F002FFF7E3FE0646042E11D1474836
:10589000006940F00100454908612580F002FFF7EA
:1058A000D6FE06464148006941F6FE7108403F4970
:1058B0000861304670BD70B505460E460424E0020E
:1058C000FFF7C5FE0446042C17D1394837498860D4
:1058D000384888600846006940F0100008612E8052
:1058E000E002FFF7B4FE0446052C06D02F480069FD
:1058F00041F6EF7108402D490861204670BD2DE941
:10590000F04304464FF6FF763746B046B1460425CD
:10591000E443E6B2C4F30727C4F307484FEA146927
:10592000E802FFF794FE0546042D49D120481F499F
:105930008860204888600846006940F010000861CF
:10594000FF2E06D01C4808300680E802FFF77FFED5
:105950000546042D08D1FF2F06D017480A300780CE
:10596000E802FFF774FE0546042D0AD1B8F1FF0FD7
:1059700007D011480C30A0F80080E802FFF767FE5E
:105980000546042D0AD1B9F1FF0F07D00A480E30A1
:10599000A0F80090E802FFF75AFE0546052D0FD04B
:1059A0000248006941F6EF71084007E0002002401C
:1059B00023016745AB89EFCD00F8FF1F66490861F9
:1059C0002846BDE8F08330B5054604244FF4302066
:1059D000FFF73DFE0446042C41D160485E498860D3
:1059E0005F4888600846006940F02000086108466A
:1059F000006940F0400008614FF43020FFF727FEB7
:105A00000446042C22D15448006941F6DF71084055
:105A1000514908610846006940F0100008611DB155
:105A200000205049088002E0A5204E4908804FF42C
:105A30003020FFF70CFE0446052C10D046480069C4
:105A400041F6EF7108404449086108E0052C06D092
:105A50004148006941F6DF7108403F49086120462E
:105A600030BDF0B505460E46174604243B483A497A
:105A700088603B488860E002FFF7E9FD0446042C9B
:105A800019D13548006940F010003349086147F0EA
:105A9000F800304328433349891C0880E002FFF7AF
:105AA000D6FD0446052C06D02B48006941F6EF715F
:105AB0000840294908612046F0BD2748C069800890
:105AC00070472548006A704700202349096811F093
:105AD000200F01D0012000E00020704729B11E4AAC
